:100000000C9462040C947F040C947F040C947F0481
:100010000C947F040C947F040C947F040C947F0454
:100020000C947F040C947F040C9477210C94B320DF
:100030000C948C180C947F040C947F040C947F0413
:100040000C947F040C947F040C947F040C947F0424
:100050000C947F040C945A180C947F040C947F0425
:100060000C947F040C947F040C947F040C947F0404
:100070000C947F040C947F040C947F040C947F04F4
:100080000C947F040C947F040C947F040C947F04E4
:100090000C947F040C947F040C947F040C947F04D4
:1000A0000C947F040C947F040C947F0403080E08C6
:1000B000130818081D08220827082C0831083608DC
:1000C0003B084208440846084808930893089308E8
:1000D00093089308FA08FA08340934097F09200BB9
:1000E000200B200B9B09790A8A0A8A0AE20DEB0D84
:1000F000160E530E940EDE0E250F280F2D0F300F07
:10010000330F360F390F3C0F3F0F420F450F480F8B
:100110004B0F500F550F580F5B0F600FA00FBE1EF7
:10012000E51E8B20E51E8B202D1F501F8B203F20AE
:10013000532057265A265D266026632666266926A2
:10014000CA28CA28DD28DD28D328DD28DD28DD28B7
:10015000CA28CA28D828DD28DD28D82800D0D0D041
:10016000D0D0D00101020408102041424448480088
:100170000000484850608182848890A0C1C2C4D0E9
:10018000D0D0D0D0D0C80000000000000000000097
:100190000000000000000000000000002900350001
:1001A000E100E700E60000001E00140004001D004E
:1001B0005200E3001F001A0016001B005100E0006F
:1001C0002000080007000600500003512100150020
:1001D000090019004F00E200220017000A00050084
:1001E00000004B0005512B0000002B1200004E00B8
:1001F000025328000000280000002D0023001C00EE
:100200000B00110000001150240018000D00100018
:1002100052002C0425000C000E00360051002C006A
:10022000260012000F00370050002A00270013009C
:10023000330038004F0073002E0031003400E50019
:10024000E400000029003500E1006859645900000D
:100250001E00140004001D00520068591F001A00FF
:1002600015001B005200615920000900160006000D
:100270005000045121001300170019004F00645969
:1002800022000A000700050000004B0005512B006A
:1002900000002B1200004E0002532800000028002E
:1002A00000002D0023000D000B000E000000105078
:1002B00024000F001100100052002C04250018002B
:1002C0000800360051002C0026001C000C003700EE
:1002D00050002A0027003300120038004F0073003E
:1002E0002E0031003400E50061590000290035007E
:1002F000E100E700E60000001E00015A075A085A14
:10030000520001001F00025A095A0A5A5100105A9D
:100310002000035A0B5A0C5A50000F5A2100045A5D
:100320000D5A0E5A4F0001002200055A115A125A56
:100330000000010001002B0000002B120000010052
:1003400001002800000028000000305A2300065A4F
:10035000165A175A000001002400235A1A5A1B5A31
:100360005200315A2500245A1C5A1D5A5100195A5C
:100370002600255A1E5A1F5A5000185A2700265A7E
:10038000205A215A4F0001002D00275A225A295A7B
:10039000E400000001003502E100E700E600000093
:1003A0001E0201004A0035020100E3001F020100A5
:1003B00050002E020100E0002002520051002D02E8
:1003C00001000100210201004F002E000100E200A7
:1003D000220201004D002D000000010001002B1839
:1003E00000002B1A000001000100010000000100C4
:1003F00000000100230201000100010000000100D3
:1004000024022F0226020100010001002502300211
:100410002702360201002E15260201002F003702A6
:1004200001003511270213123000380201002D158A
:100430002D0231023402E500E40000000100350223
:10044000E100E700E60000001E0201004A0035025C
:100450000100E3001F02010050002E020100E00035
:100460002002520051002D02010001002102010072
:100470004F002E000100E200220201004D002D007D
:100480000000010001002B1800002B1A00000100E1
:100490000100010000000100000001002302010032
:1004A000010001000000010024022F0226020100C9
:1004B00001000100250230022702360201002E153C
:1004C000260201002F0037020100351127023312E6
:1004D0003000380201002D152D0231023402E500F2
:1004E000E4000000145C0100E100E700E600000009
:1004F0003A000100010001000100E3003B0001009F
:10050000010001000100E0003C00010001000100C9
:10051000010001003D000100010001000100E200B6
:100520003E00010001000100000001000100A800E0
:100530000000AE00000001000100A9000000AA00B8
:10054000000001003F000100010001000000010067
:100550004000010001000100010001004100010014
:100560000100010001002C00420001000100010017
:1005700001002A0043000100010001000100010008
:10058000440045000100E500E400000029003500BA
:10059000E1000100010000001E00140004001D0025
:1005A000520001001F001A0016001B00510001003C
:1005B000200008000700060050000100210015007F
:1005C000090019004F000100220017000A00050071
:1005D00000004B0001002B0000002B1200004E0019
:1005E00001002800000028000000010023001C007A
:1005F0000B00110000002E00240018000D00100058
:100600005200010025000C000E00360051002C00A5
:10061000260012000F00370050002A0027001300A8
:10062000330038004F0001002D0031003400E50098
:100630000100000005010980A101850319012AB705
:1006400000150126B700950175108100C0050C0941
:1006500001A101850419012AA002150126A0029515
:100660000175108100C005010906A1018505050776
:1006700019E029E715002501950875018102050794
:10068000190029EF1500250195F075018102050873
:1006900019012905950575019102950175039101CF
:1006A000C005010906A101050719E029E715002584
:1006B00001950875018102950175088101050719E9
:1006C0000029FF150026FF00950675088100050822
:1006D000190129059505750191029501750391018F
:1006E000C009027800040100A0FA09040000010317
:1006F00001010009211101000122400007058103C9
:1007000008000A0904010001030000000921110189
:100710000001226D000705820320000A080B020277
:100720000202010009040200010202010005240086
:1007300010010424020205240602030705830308AE
:1007400000FF09040300020A00000007050502106B
:1007500000050705840210000512010002EF0201E6
:10076000089732764901000102000120034500721A
:100770000067006F0044006F007800200045005AB9
:1007800000200047006C006F007700000030035A23
:100790000053004100200054006500630068006EB3
:1007A000006F006C006F006700790020004C006152
:1007B0000062007300200049006E00630000000426
:1007C000030904000101010101010101010202020A
:1007D00002020202020203030303030303030404ED
:1007E00004040404040505050505060606060607B7
:1007F0000707070708080808090909090A0A0A0B70
:100800000B0B0C0C0C0D0D0D0E0E0E0F0F0F101010
:100810001111111212131314141515161617171897
:100820001819191A1A1B1B1C1D1D1E1E1F20202102
:100830002222232424252626272829292A2B2C2D49
:100840002D2E2F30313232333435363738393A3B6A
:100850003C3D3E3F404142434445464748494A4C5F
:100860004D4E4F50515354555658595A5B5D5E5F2B
:10087000616264656668696B6C6D6F7072737577C1
:10088000787A7B7D7E8082838587888A8C8E8F9123
:10089000939596989A9C9EA0A2A3A5A7A9ABADAF4D
:1008A000B1B3B5B7BABCBEC0C2C4C6C9CBCDCFD137
:1008B000D4D6D8DBDDDFE2E4E7E9EBEEF0F3F5F8E0
:1008C000FAFDFF0011241FBECFEFDAE0DEBFCDBF7F
:1008D00013E0A0E0B1E0E2E8FBE502C005900D9274
:1008E000A032B107D9F725E0A0E2B3E001C01D9224
:1008F000A03BB207E1F70E94720B0C94BF2D0C9441
:1009000000008F929F92AF92BF92CF92DF92EF92B0
:10091000FF920F931F93CF93DF93CDB7DEB72A9744
:100920000FB6F894DEBF0FBECDBFFC010081D180B1
:1009300083819481892B39F01FEFD11206C091E099
:100940000F3F19F403C091E001C090E090FDB7C6DD
:100950007F0185E0DE01169601900D928A95E1F700
:10096000F70122818E819F81222349F00E94F11993
:10097000182F682F8E819F810E946B1A03C00E94DE
:100980003E1A182F24E5129FF001112436E0D39E61
:10099000E00DF11D1124E00FF11DEE0FFF1FE456D5
:1009A000FE4F059114910A328DE5180751F00B3274
:1009B0009DE5190791F1033CECE51E0709F07AC0AB
:1009C00050C0F7018281882309F473C190912F03ED
:1009D00081E0890F8770987F853020F4892B809380
:1009E0002F0302C090932F0380912F038770FFEF96
:1009F0008F9FC00111249595879595958795992787
:100A0000909389008093880090938B0080938A0054
:100A100090938D0080938C0017C0F701828188230A
:100A200009F447C180912F0383FB222720F991E02D
:100A3000922790FB83F980932F03992329F040E0BC
:100A400060E080E00E94E11540912F035091300357
:100A500060913103709132038FE090E00E94EF2BA0
:100A600028C1F7018281882309F45DC39091360182
:100A700080912F039F3F59F4109236018F7E80930F
:100A80002F0340E060E080E00E94E11506C09FEF88
:100A900090933601806180932F0340912F035091F2
:100AA000300360913103709132038FE090E00E9437
:100AB000EF2B39C30337110559F5F70182818823DC
:100AC00009F431C38091330390913403A09135032D
:100AD000B09136030097A105B10551F0B695A795E1
:100AE0009795879580FF04C081E00E94A11A03C0FA
:100AF00081E00E94DF1A80EE0E944B298CE20E9466
:100B00004B298CE20E94192980EE0E9419290BC3FF
:100B100000332AE5120769F4F701408151816281AF
:100B2000738184810E947323882309F4FCC280E0CE
:100B300015C001333AE51307A0F001338AE5180721
:100B400009F0B7C0F70140815181628173818481CE
:100B50000E947323882309F4E6C281E00E94672380
:100B6000E2C2C8019A558A9708F0A3C0D090390311
:100B7000DD2021F0F1E0DF1659F156C0F701408188
:100B800051816281738184810E947323F801FF2760
:100B9000E45AFE4F9491A92FA295A695A695A3700D
:100BA000B0E0882369F09D01205E3C4FF90180810F
:100BB000892B8083AA5DBC4F0C91E92FE02B06C0E6
:100BC000A05EBC4FE92FE0950C91E023EC932CC084
:100BD000F701408151816281738184810E94732376
:100BE000482F802F67E00E94642C292FE82FF0E027
:100BF00086E090E0821B910921E030E001C0220FE5
:100C00008A95EAF7DF01A05EBC4F442349F08C913E
:100C1000822B8C93EA5DFC4F8081282B208304C0BB
:100C200020958C9128232C93F7014081518162817A
:100C3000738184810E94732390912C03882311F087
:100C40009F5F03C0915019161CF490932C036BC244
:100C500010922C03DD2079F0F1E0DF1227C08091A3
:100C6000260380688093260306E213E03CE2C32E4D
:100C700033E0D32E13C006E213E04AE2C42E43E071
:100C8000D42EF80181918F0181110E941E18C01687
:100C9000D106B9F780E00E941E1808C0F8018191C2
:100CA0008F010E941E18C016D106C1F70E9458235A
:100CB0003AC2043F9CE5190749F406E221EE40EEF2
:100CC00064EF7CE5C7010E9418172DC2053FECE5D3
:100CD0001E0708F046C1093DFCE51F0731F407E295
:100CE00025EE45EE69ED7CE5EDCF0A3D2CE51207DA
:100CF00031F408E221E045EE6AED7CE5E3CF083D02
:100D00003CE5130731F406E221EE41EE68ED7CE5A7
:100D1000D9CFF7019281992309F458C110922D037C
:100D20000230FCE51F0708F43BC106312CE5120731
:100D300038F098012B5F3C452730310508F030C171
:100D40000E940E1990933803809337030F303CE5CF
:100D5000130709F4CFC008F042C008309CE519071A
:100D600009F4A8C0F0F40430FCE51F0709F490C0B2
:100D700068F402303CE5130709F486C003301C45D3
:100D800009F0DFC0809137038260D9C006309CE54E
:100D9000190709F487C008F089C08091370388607B
:100DA000CEC00B30FCE51F0709F495C068F409308C
:100DB0003CE5130709F482C00A301C4509F0C1C0A4
:100DC00080913703886080C00D309CE5190709F4D5
:100DD00086C008F087C0809137038D7FB0C00B3F7D
:100DE000FCE51F0709F457C050F502313CE5130735
:100DF00009F488C068F400319CE5190709F47EC045
:100E000001311C4509F09DC0809137038F7B97C04D
:100E10000431FCE51F0709F487C008F479C00531E7
:100E20001C4509F08EC08091370382FB222720F9F0
:100E300091E0922790FB82F990FB83F980C00E3FEE
:100E40008CE5180709F452C058F40C3FECE51E0776
:100E500029F10D3F1C4509F074C08091380360C032
:100E600001152DE5120709F458C080F101301D4528
:100E700009F067C080913803982F909591708E7F0C
:100E8000892B90FB81F94DC080913703816057C059
:100E90008091370319C0809138031BC080913803BB
:100EA00082603FC080913703806149C080913703E1
:100EB000806245C080913703806441C00E94EF2862
:100EC0008091370380683BC0846039C080913803CB
:100ED0008260816026C0809137038E7F30C0809110
:100EE000370319C080913703877F29C08091380369
:100EF0008D7F17C0809137038F7E21C0809137038B
:100F00008F7D1DC00E94EF28809137038F7717C017
:100F100080913703877F8B7F12C0809138038D7F4C
:100F20008E7F809338030DC00E94EF288091370395
:100F300087FB222720F991E0922790FB87F9809385
:100F40003703609137031091380384E090E00E94EA
:100F5000DD2B612F81E290E00E94DD2B0E94EF28C3
:100F6000E2C0063F8CE5180731F406E221EE42EEBE
:100F700066EF7CE5A7CE063F9CE5190730F407E253
:100F800025EE44EE65EF7CE59DCE073FECE51E07C0
:100F900009F0BFCE07E225EE46EE67EF7CE592CE84
:100FA00080916C050631FCE51F0709F58A7A91E00E
:100FB00009F490E090932E03882311F065E301C0BB
:100FC00069E28AED94E00E94D9180EC006311C45F2
:100FD00009F0C8C080912E03882309F46EC365E32D
:100FE0008AED94E00E94B1180E94AB199CC08272F5
:100FF000F801E35CFC45E431F10508F04DC0EA5A24
:10100000FF4F0C94982C9091A70581E0892780933D
:10101000A705109234010E944D1685C044EF54E19B
:101020006DEF74E12CC04DEF54E164EF74E127C023
:1010300042EE54E16BEE74E122C04BEE54E162EEFD
:1010400074E11DC04AEC54E166ED74E118C046ED50
:1010500054E16AEC74E113C042EB54E16EEB74E1CD
:101060000EC04EEB54E162EB74E109C04FE556E16E
:1010700065E576E104C045E556E16FE576E10E945D
:10108000DB1551C081E005C085E003C08DE001C0E3
:1010900082E10E94362847C00115ECE51E0739F0B1
:1010A0000F3D1C4509F05EC00E942A193CC00E94F9
:1010B000EF280FEF14E32CE0015010402040E1F73F
:1010C00000C00000F89481E08093E00080E280930B
:1010D000D8001092C9008FE19EE40197F1F700C09B
:1010E00000001DBA109268001CBC10BE1FBA1092FE
:1010F0007A0010926E0010926F00109271001092A0
:1011000072001092C9001092BC0014B817B81AB837
:101110001DB810BA1092BC0015B818B81BB81EB88C
:1011200011BA0C94003F80916905877009F4C7C219
:10113000F7018281882309F4C2C282E02A960FB6A1
:10114000F894DEBF0FBECDBFDF91CF911F910F91FD
:10115000FF90EF90DF90CF90BF90AF909F908F90D7
:101160000C94C61AF70100811181992349F0C80136
:101170000E94F119D82E682FC8010E946B1A04C072
:10118000C8010E943E1AD82EB8018D2D0E949923C5
:101190008C01982EF701A580A2942FE0A222D28084
:1011A000D11010926B0580916905877099F0DD2050
:1011B00089F0812F807F803421F080E2800F883099
:1011C00048F082E00E94C61A809169058770CC249D
:1011D000C3948111C12CB12EB2949FE0B9228B2D02
:1011E00090E08C30910508F02BC2FC01E659FF4FCE
:1011F0000C94982C812F807F1F70882311F01295FA
:10120000107FDD20B9F0112309F405C280E2800FC0
:10121000883010F0911006C080916C05182B109347
:101220006C0505C080916B05182B10936B050E940F
:10123000AB19F1C1802F0E941929112309F400C2B2
:10124000005E1095083010F0911006C080916C057A
:10125000182310936C0505C080916B05182310931B
:101260006B050E94AB19ECC1812F807F1F7080320B
:1012700011F01295107F992021F0F1E09F16E1F016
:1012800028C0DD2081F080916D05AA2051F001E099
:10129000A01207C0182B181709F4D2C110936D05BE
:1012A000CFC1812B10C0AA2021F021E0A21609F4A1
:1012B000C7C10E94A5191FC0DD2041F031E03A15D9
:1012C00008F4BEC1812F0E940F29BAC1A110B8C174
:1012D00012C0DD2019F0AA20A9F39DC1AA2059F05F
:1012E000093309F0AAC18FEF97EEE3E081509040F7
:1012F000E040E1F7A0C1812F0E940429A1C1812F04
:1013000086958695837019F0813059F099C1DD205A
:1013100019F0C801937002C080E090E00E94B915F6
:1013200095C1DD2019F0C801937002C080E090E003
:101330000E94A3158BC1812F837009F069C0D11061
:1013400083C1902F929596959770990F990F802F42
:101350008F70882E912CA12CB12C092E04C0880CE2
:10136000991CAA1CBB1C0A94D2F704FF12C04FE0C0
:1013700050E060E070E004C0440F551F661F771F07
:101380009A95D2F7DB01CA0180959095A095B0950A
:1013900003C080E090E0DC0116951695412F437064
:1013A000423019F1C8F400916E0510916F0520913B
:1013B000700530917105413059F088299929AA2981
:1013C000BB29BC01CD0160237123822393230AC072
:1013D000802A912AA22AB32ABC01CD016829792941
:1013E0008A299B290E94001B2FC188299929AA2993
:1013F000BB2900916E0510916F0520917005309109
:101400007105BC01CD016027712782279327EACFA0
:10141000DD2019F0812F817001C08695882309F4A1
:1014200013C1902F929596959770990F990F802FD1
:101430008F70882E912CA12CB12C092E04C0880C01
:10144000991CAA1CBB1C0A94D2F704FF12C04FE0DF
:1014500050E060E070E004C0440F551F661F771F26
:101460009A95D2F7DB01CA0180959095A095B09529
:1014700003C080E090E0DC0116951695412F437083
:101480004230D9F068F50091330310913403209174
:10149000350330913603413059F088299929AA291A
:1014A000BB29BC01CD0160237123822393231EC07D
:1014B000802A912AA22AB32A13C088299929AA2905
:1014C000BB290091330310913403209135033091EF
:1014D0003603BC01CD01602771278227932706C000
:1014E000BC01CD01682979298A299B290E94971A74
:1014F000ABC01F70DD2039F0812F0E94DF1A802FD2
:101500000E940F29A1C0802F0E940429812F0E94D0
:10151000A11A9AC0802FF2EF9F1609F43EC0F91568
:1015200038F020EF921661F031EF931689F16EC01A
:1015300093EF9916C9F1E4EF9E1609F44CC066C00A
:10154000DD2009F1A1107CC01F7181E090E0A0E0D6
:10155000B0E0AC01BD0104C0440F551F661F771FEA
:101560001A95D2F78091330390913403A0913503FB
:10157000B09136038A019B01082719272A273B27A8
:10158000C901B80125C021E02A1508F459C0DCCFF3
:10159000DD2029F0812F8F712CC0DD20D9F3812F20
:1015A0008F710E94A11A4CC0DD2079F01F7181E07B
:1015B00090E0A0E0B0E0BC01CD0104C0660F771F51
:1015C000881F991F1A95D2F703C060E070E0CB0125
:1015D0000E94971A35C0DD2079F01F71812F0E947B
:1015E000DF1A38E0139FC0011124836080936905DE
:1015F000812F0E94DF1A24C081E00E94C61A81E078
:101600008A15F0F482E00E94C61A1AC0DD2039F073
:10161000AA2009F4BFCF802F0E944B2911C0AA2015
:1016200009F4BDCF893349F49FEFE7EEF3E0915021
:10163000E040F040E1F700C00000802F0E9419292F
:1016400088EF8B0D843010F40E94CF15CC20A9F0C8
:101650008091690580FD11C0F701128285958595FD
:1016600085950E94DF1AC7010E9481048091690557
:101670008595859585950E94A11A85E0F701DE0183
:10168000119601900D928A95E1F789819A810E94C5
:101690003E1A9A8104E5809FF001112416E0919F83
:1016A000E00DF11D11248981E80FF11DEE0FFF1FE0
:1016B000E456FE4F8591949102C069E291CC2A963E
:1016C0000FB6F894DEBF0FBECDBFDF91CF911F9153
:1016D0000F91FF90EF90DF90CF90BF90AF909F90D1
:1016E0008F900895CF93DF93CDB7DEB72D970FB6C8
:1016F000F894DEBF0FBECDBF84B7877F84BF0FB61F
:10170000F894A895809160008861809360001092A1
:1017100060000FBE90E080E80FB6F89480936100FF
:10172000909361000FBE85B7806885BF85B78068DC
:1017300085BF0E94F7200E9416218091E2008460FC
:101740008093E20078948091A2058823A1F0109103
:10175000E9001F709091EC00892F817090FD80E866
:10176000182B1092E9008091E80083FD0E942F1D44
:101770001F701093E90082E084BD93E095BD9AEF5D
:1017800097BD80936E000E94322590E090930B01EC
:1017900080930A010E946D268098889A8198899A80
:1017A00084988C9A85988D9A86988E9A87988F9A25
:1017B000AAE5B3E0ECE4F3E011921D9223E0EA35F0
:1017C000F207D1F78EE090E00E949E2C80933D03BB
:1017D00090933E03FC010E962BEF21938E179F07EB
:1017E000E1F70E941F19811102C00E942A190E946C
:1017F0007A1689EA8093800089E08093810024989A
:101800002C983F988AB18F7C8AB96E98479A8BB191
:1018100080638BB9769A8FE090E00E94C12B609331
:101820002F037093300380933103909332036770DA
:101830008FEF869FB0011124759567957595679513
:101840007727709389006093880070938B00609372
:101850008A0070938D0060938C0090912F0394FF09
:1018600003C08093360102C0109236010E94A92560
:1018700081E00E9467230E941F19811102C00E940B
:101880002A1982E090E00E94B92B809369030E949C
:101890000E19909338038093370383E090E00E9401
:1018A000B92B682F70E080E090E00E94001B0E943E
:1018B0001F19811102C00E942A198DE090E00E9438
:1018C000B92B809339038091A705837011F410928E
:1018D00034018091A7058C7F81608093A7058EE0FD
:1018E00091E090933B0380933A0382E090E09093E1
:1018F0002C0180932B018091A205843079F5809191
:101900002D0190912E01A0912F01B0913001892BD2
:101910008A2B8B2B19F1809124018F708093E90021
:1019200088E0E8E3F1E0DE01119601900D928A95DE
:10193000E1F740E050E068E070E0CE0101960E94DF
:101940008C2840E050E062E070E08BE291E00E9481
:101950008C288091E8008E778093E8006BEFE62E6C
:10196000F12C7BEF272EE0E3CE2ED12CFAE0AF2E28
:10197000B12C80910A0190910B01892BA1F08091EB
:101980003C038F5F80933C0381110DC00E94322580
:1019900090E090930B0180930A01892B21F40E941F
:1019A000A9250E947A160CE413E0912C812C57E0B3
:1019B000652E680C882D0E941926862D0E941926F6
:1019C000882D0E947C26D8019C91891721F08C9348
:1019D0007724739401C0712C862D0E947C26F80117
:1019E0009781891719F0878381E001C080E08729FA
:1019F000982A0E946D2683940F5F1F4FF7E08F1285
:101A0000D6CF0E948018AC016091400370914103D1
:101A1000909341038093400390913F03292F30E03E
:101A2000261B370BC901840F951FB7010E94702C2C
:101A3000682F80933F0320914303222309F445C07C
:101A400010924303E0913D03F0913E03AF01425FEA
:101A50005F4F70E0A081AB3FD9F02A2F30E06A17CA
:101A600028F0DC01A21BB30B9D0106C0D701A21B0D
:101A7000B30B9D01280F391F8901330F220B330B44
:101A80000E3111052105310510F0208201C071E0F1
:101A90003196E417F507F1F670934303911002C0F5
:101AA000711115C010924203E0913D03F0913E0385
:101AB000509143039F01225F3F4F8CE493E04AE53E
:101AC000842E43E0942E40E01EC09110EBCF809115
:101AD00042038111E7CF8FB7F894409148035091AA
:101AE000490360914A0370914B038FBF40934403B5
:101AF00050934503609346037093470380917305A9
:101B0000811125C01BC0DC017D91CD01D4011C9148
:101B1000171741F010811B3F21F460837C9351E043
:101B200001C041E03196BFEF8B1A9B0AE217F30721
:101B300051F75093430340934203CDCF8091A705C3
:101B4000982F937021F0782E7694769401C0712CA2
:101B5000809134018130B1F038F0823009F440C214
:101B6000833009F44AC266C2109235014093A3053E
:101B70005093A4056093A5057093A605E1E0E0935A
:101B8000340158C280910D0178120DC02091A70533
:101B9000237030E040910C0150E081E024173507BC
:101BA00019F480E001C081E0817080933701472DF6
:101BB00050E04931510508F001C2FA01EA58FF4FDF
:101BC0000C94982C882309F4F9C140E060E080E08F
:101BD0000E94E115F3C180913501182F110F110FEB
:101BE000180F05E0010F013308F000E36091A8052C
:101BF0007091A9058091AA050E94C822962E872E71
:101C0000682E101708F01CC1E12FF0E0DF01A1548D
:101C1000BD4F8C9190913601982331F0262D492D9E
:101C2000682DCF010E94E3151F5FEBCF8091350136
:101C3000182F110F110F180F05E0010F013308F0D5
:101C400000E38090A9059090AA056090A805662DF4
:101C5000782D892D0E94C822562E472E382E60914D
:101C6000AB05660D782D892D0E94C822962E672E11
:101C7000882E101708F0E4C0812F90E0FC01E15499
:101C8000FD4F308120913601232359F030FF04C0ED
:101C9000282D492D662D03C0232D452D642D0E942E
:101CA000E3151F5FE6CF80913501982E990C990CB2
:101CB000980E05E0802E890CF0E3F81510F410E37F
:101CC000812E5090A9054090AA052091AB05B0E463
:101CD0006B2E362D329F312D1124632E981408F06F
:101CE00067C0092D10E0F801E154FD4F908180910B
:101CF00036018923B9F0F801EE0FFF1FE05AFD4FBE
:101D0000808182958F706091A805869D600D112459
:101D1000752D842D0E94C822462F282F672FC801B9
:101D20000E94E3159394DACF80913501982E990C97
:101D3000990C980EE5E08E2E890C80E3881510F43E
:101D400070E3872E5090A9054090AA052091AB051D
:101D500060E4662E362D329F312D1124632E9814A7
:101D600038F5092D10E0F801E154FD4F9081809184
:101D700036018923D9F0F801EE0FFF1FE15AFD4F1C
:101D80006081669EB001112455E0759567955A955E
:101D9000E1F78091A805680F752D842D0E94C82257
:101DA000462F282F672FC8010E94E3159394D7CFA1
:101DB00081E07FE2781508F002C100C18091350111
:101DC000182F110F110F180F05E0010F013308F044
:101DD00000E38090A8059090A9056090AA05609105
:101DE000AB056695669566958091A3059091A405CF
:101DF0000E940E170E949316805887FD8195880FC8
:101E0000282F362D239F212D1124822FB4010E94CB
:101E1000C822962E872E682E101790F4E12FF0E03E
:101E2000DF01A154BD4F8C9190913601982331F080
:101E3000262D492D682DCF010E94E3151F5FECCFA1
:101E400081E0003308F4BBC0B9C080E392E102C076
:101E500084E092E10E94EC27B2C089E093E11DC0CA
:101E60008AEE92E11AC08FEC92E11CC083EB92E102
:101E700019C082E092E1EECF89EF91E1EBCF80EFE4
:101E800091E1E8CF85ED91E1E5CF86EC91E10AC0E3
:101E900085EE96E102C082EA92E10E9490278FC00F
:101EA0008EE892E10E9414278AC088E991E105C07A
:101EB00086E691E102C088E291E10E94B3267FC0EC
:101EC00081111CC06091AB0520E1620F08F46FEF37
:101ED0008091A3059091A4050E940E17B5010E9460
:101EE000702C892B09F06AC00E94992BB6010E94C0
:101EF000842C609136010E94071660C080913501E4
:101F0000082F000F000F080F35E0632E600E70E3FE
:101F1000761510F420E3622E10E0862C912C081523
:101F2000190544F460913601C8010E9407160F5F3D
:101F30001F4FF5CF81E09FE2961508F040C03EC0EC
:101F400081111CC06091AB0520E1620F08F46FEFB6
:101F50008091A3059091A4050E940E1765E070E0A2
:101F60000E94702C892B51F50E94992BB6010E947A
:101F7000842C609136010E94E51520C080913501C6
:101F8000082F000F000F080F95E0692E600EA0E3E8
:101F9000A61510F480E3682E10E0862C912C08150D
:101FA000190544F460913601C8010E94E5150F5FE0
:101FB0001F4FF5CF81E0BFE2B61508F480E09091A5
:101FC00035019F5F90933501811134C082E0809389
:101FD00034018091370181112DC0772051F02AC042
:101FE00070920D018091A705837080930C010E946F
:101FF0004C1383E0809334011DC04091A3055091A0
:10200000A4056091A5057091A6052FB7F89480915D
:10201000480390914903A0914A03B0914B032FBF0D
:10202000841B950BA60BB70B4A97A105B10510F0C1
:1020300010923401EAE6F3E0AAE5B3E000E010E034
:10204000302F2D919191922721F180E09924939442
:10205000492F4921D1F089833A83292181E009F46C
:1020600080E08B830E9480188160782F9D838C8311
:1020700049815A816B818D810E940715F801E659CB
:10208000FC4F80819826908219C08F5F990C863012
:10209000F9F60F5F1F4F0E30110591F68FEF89870C
:1020A0008A871B860E9480188160782F9D878C8785
:1020B00049855A856B858D850E9407150E94CF152D
:1020C00090916803891721F00E94CF1580936803CF
:1020D0008091A205843009F055C040902D015090A8
:1020E0002E0160902F017090300141145104610461
:1020F000710409F447C020911F012F702093E9005B
:102100008091E80082FF3EC03091F3008091F200A0
:1021100090E0932B892B31F48091E8008B778093AA
:10212000E80030C03091F3008091F20090E0932BF2
:10213000009741F13091A205343011F5411451045A
:1021400061047104E9F02093E9003091E80032FF66
:1021500017C03091F3004091F20050E0532B452B13
:1021600011F03091F1003091F3004091F20050E015
:10217000532B452B29F43091E8003B773093E8004E
:102180000197D6CF8091A205843009F0F2CB8091DF
:102190002D0190912E01A0912F01B0913001892B3A
:1021A0008A2B8B2B09F4E5CB80911A018F708093D9
:1021B000E9008091E80080FFDCCB89E191E00E949A
:1021C0004C28D7CB8033910540F5880F991F880F95
:1021D000991FFC01E55BFE4F528133818081837042
:1021E0007181A82FB0E0E0E98E9FC00111248257D1
:1021F0009C4FFC01E70FF11DB4976083FC01E50FD4
:10220000F11DB4974083830F911DFC01B497208387
:10221000FD01E457FC4F81E080830895FF920F9306
:102220001F93CF93DF93182F062FF42EC0E0D0E03A
:102230002F2D402F612FCE010E94E2102196C03336
:10224000D105B1F7DF91CF911F910F91FF900895C4
:102250000F931F9310E0F801EE0FFF1FE15AFD4F9F
:102260009081905797FD9195000F111FF801E05A4A
:10227000FD4FE081F0E0B097DF01AA0FBB1F8D0199
:102280000E0F1F1F2003D001219FB00D1124E8E382
:10229000F0E0E91BF10997FDF3959F01220F331F31
:1022A00089010E0F1F1F40039001419F300D112423
:1022B0002A0F3B1F37FF02C021583F4F220F232F09
:1022C000221F330B620F1F910F9108950F931F93DD
:1022D000522F10E0F801EE0FFF1FE05AFD4FE08192
:1022E000F0E0B097EE0FFF1F9F015203D001539F04
:1022F000B00D1124000F111FF801E15AFD4F0081AC
:1023000010E000571109000F111F40039001419F79
:10231000300D11242A0F3B1F37FF02C021583F4FB9
:10232000220F232F221F330B620F1F910F9108954D
:102330000F931F93522F10E0F801EE0FFF1FE05A8A
:10234000FD4FE081F0E0B0979F015203D001539F11
:10235000B00D1124000F111FF801E15AFD4F00814B
:1023600010E00057110940039001419F300D1124E6
:102370002A0F3B1F37FF02C021583F4F220F232F48
:10238000221F330B620F1F910F910895EF920F934D
:102390001F9393E0099F80011124159507956E2DD9
:1023A000600F1F910F91EF900895A22F50E0FA0156
:1023B000EE0FFF1FE05AFD4F9081905297FD9195CF
:1023C000440F551FFA01E15AFD4F3081232F30E0B1
:1023D0002A1B3109290F311D97FD3A95620F089587
:1023E000E42FF0E0EE0FFF1FE05AFD4F6081621B0B
:1023F0000895E42FF0E0EE0FFF1FE15AFD4F6081DA
:10240000621B0895622F0895E42FF0E0EE0FFF1F86
:10241000E15AFD4F408134EE439F412D1124E82FB6
:10242000F0E050E0445E5F4FDA01A21BB1099D016C
:10243000B7FF03C031952195310993E0220F331F77
:102440009A95E1F7AF01421B530B9A0157FF02C067
:1024500020E030E0582F259F212D1124822F089550
:10246000E42FF0E0EE0FFF1FE15AFD4F408134EE04
:10247000439F412D1124E72FF0E050E0445E5F4F71
:10248000DA01A21BB1099D01B7FF03C03195219567
:10249000310993E0220F331F9A95E1F7AF01421BF8
:1024A000530B9A0157FF02C020E030E0279F212DF7
:1024B0001124722F0895FC019B01009721F477FFEE
:1024C0002BC080E80895AC0197FF04C0442755272E
:1024D000481B590BB901640F751F37FD0CC0241B35
:1024E000350BC901A5E0880F991FAA95E1F70E9455
:1024F000842C80E20CC0CB0165E0880F991F6A959F
:10250000E1F7BA01621B730B0E94842C80E6861BE4
:10251000F7FF03C08195089580E00895EF920F932F
:10252000CF93DF93D72FC82FC9010E19BA010E948C
:102530005B12602F681B7D2F8C2FDF91CF910F9145
:10254000EF9008950F93CF93DF93D72FC82FC90132
:10255000BA010E945B12682F600F7D2F8C2FDF91D4
:10256000CF910F910895EF920F931F93CF93DF9325
:10257000D62FC72F182FC9010E19010FBA010E94BB
:102580005B12081B202F219F212D1124822F6D2FDC
:102590007C2FDF91CF911F910F91EF900895EF92D3
:1025A0000F931F93CF93DF93D62F172FC82FC901F7
:1025B0000E19070FBA010E945B12702F781B719FD2
:1025C000712D11246D2F8C2FDF91CF911F910F91C1
:1025D000EF900895FF920F931F93CF93DF93F62E02
:1025E000D72F182FC901C12FC01BBA010E945B123F
:1025F000982F990F890FC81B2C2F219F212D112453
:10260000822F6F2D7D2FDF91CF911F910F91FF9022
:102610000895FF920F931F93CF93DF93F62E172FFA
:10262000D82FC901C72FC01BBA010E945B12982F77
:10263000990F890F7C2F781B719F712D11246F2D9D
:102640008D2FDF91CF911F910F91FF9008950F93E0
:102650001F93CF93DF93082F000FEB0114E2109329
:102660007803E9E7F3E0DE018D91819383E0E938B7
:10267000F807D1F724E630E041E150E068E773E085
:10268000802F0E94222B105F6096143B41F7DF9150
:10269000CF911F910F91089580918C03882329F089
:1026A0006EE873E084E70E94271310928C038091F8
:1026B0008D03882329F06EE174E087E70E942713D9
:1026C00010928D030895E8E7F3E06083418324E6E8
:1026D00030E042E050E0BF01880F0C94222BDF92E3
:1026E000EF92FF920F931F93CF93DF93262F30E04B
:1026F000A9014E525B4F7A01FA01908191110AC0F3
:10270000F7011082DF91CF911F910F91FF90EF9011
:10271000DF900895D82EF2E16F9FE001112400E0D0
:1027200010E0F801EC0FFD1FE255FB4F4081602FD8
:102730008D2D0E9463130F5F1F4F0231110589F722
:10274000DFCFCF93DF93C82F4BE06DEF0E94631371
:1027500040E06AE08C2F0E9463138FE39CE90197AD
:10276000F1F700C0000040E060E08C2F0E9463138E
:1027700040E061E08C2F0E94631340E066E08C2F04
:102780000E94631340E06DEF8C2F0E946313D0E032
:1027900040E06D2F8C2F0E946313DF5FD231C1F7B1
:1027A00040E06D2F8C2F0E946313DF5FD432C1F79E
:1027B00040E06D2F8C2F0E946313DF5FD43BC1F785
:1027C0004BE06DEF8C2F0E94631341E06AE08C2F89
:1027D0000E94631340E06DEF8C2FDF91CF910C943A
:1027E00063137F928F929F92AF92BF92CF92DF92AC
:1027F000EF92FF920F931F93CF93DF930E94702A63
:1028000084E70E94A11387E70E94A1130BE411E063
:10281000E12CF12C42E138E0A32EB12CCC24C3945E
:10282000D12C77247394D80111962C91119730E014
:10283000C90184971296CC911297D0E0A497139671
:10284000EC91F0E0B497BC0197FF02C0695F7F4F45
:10285000A3E075956795AA95E1F7D701AA0FBB1F6D
:10286000AA0FBB1FA55BBE4F2C91237030E0429F87
:10287000D001439FB00D1124A255BB4F4D01860ED0
:10288000911CB5010E94842CB60102C0660F771F0F
:102890008A95E2F7CB01D4019C91892B8C93CE01D0
:1028A000D7FD079663E0959587956A95E1F7429F76
:1028B000B001439F700D112462557B4F4B01880E70
:1028C000911CCE01B5010E94842CB60102C0660F96
:1028D000771F8A95E2F7CB01D4019C91892B8C93C9
:1028E000CF01F7FD079653E0959587955A95E1F747
:1028F000429FE001439FD00D1124C255DB4FC80F0A
:10290000D11DCF01B5010E94842CF60102C0EE0F4B
:10291000FF1F8A95E2F7CF019881892B8883F901FF
:10292000EE52FB4F7082FFEFEF1AFF0A0C5F1F4F52
:1029300060E3E616F10409F076CF60E084E70E94D8
:102940006F1361E087E7DF91CF911F910F91FF90A7
:10295000EF90DF90CF90BF90AF909F908F907F903F
:102960000C946F13E7EAF5E0438120E1421B08F481
:1029700040E08181628190E00C947F28E7EAF5E0F5
:10298000438120E1420F08F44FEF8181628190E0A2
:102990000C947F28E7EAF5E0628120E1621B08F4ED
:1029A00060E08181438190E00C947F28E7EAF5E0C4
:1029B000628120E1620F08F46FEF8181438190E032
:1029C0000C947F28E7EAF5E0818190E04381628101
:1029D00008970C947F28E7EAF5E0818190E0438135
:1029E000628108960C947F288091A705869586952C
:1029F000815009F488E10C9436288091A7058695CA
:102A000086958F5F893108F081E00C9436281F93FA
:102A1000CF93DF93CDB7DEB767970FB6F894DEBFDD
:102A20000FBECDBF4B8B5C8B6D8B7E8B8F8B86E00F
:102A30009E01235F3F4FD901E82F1D92EA95E9F7E8
:102A400095E0FE017396D90101900D929A95E1F7F8
:102A5000F901DE01179601900D928A95E1F7CE01FA
:102A600007960E94801B81113EC086E0FE013796CA
:102A7000DE01119601900D928A95E1F7FF81E885BC
:102A80006A857B856115710531F0EF3F31F481E096
:102A9000FF3F19F403C081E001C080E080FD23C046
:102AA0002091000530E0C901019687709927409177
:102AB000310550E08417950779F1F983EA837D8326
:102AC0006C8396E0929FD001939FB00D1124AF5F6D
:102AD000BA4FFE01319601900D929A95E1F78093DD
:102AE00000050E940A1B16E08091310590910005B7
:102AF0008917F9F0189FC00111248F5F9A4F0E9427
:102B0000801B8823B1F08091310590E00196877099
:102B1000992780933105E8CF0E94EF281092000595
:102B200010923105EAEFF4E086E0DF011D928A950C
:102B3000E9F767960FB6F894DEBF0FBECDBFDF9101
:102B4000CF911F9108952091D8043091D90428176E
:102B5000390771F09093D9048093D804E0913A0337
:102B6000F0913B03309721F00084F185E02D09942A
:102B700008952091D6043091D7042817390771F0B1
:102B80009093D7048093D604E0913A03F0913B03ED
:102B9000309721F00680F781E02D09940895E091A7
:102BA0003A03F0913B03309721F00190F081E02D42
:102BB000099480E00895882311F0FA0101C0FB0117
:102BC00009940C940E110C94E2101F93CF93DF9391
:102BD000FC01E154FD4F20816223A9F0EC010E9429
:102BE000992B182F0E94992B612F782F8091AA057D
:102BF0000E94C822462F282F672FCE01DF91CF9148
:102C00001F910C94E315DF91CF911F910895DF92EE
:102C1000EF92FF920F931F93CF93DF93EC01FC0190
:102C2000E154FD4F9081692381F1D090A905009175
:102C3000AA051091A805E12EF12C0E94992B282FAE
:102C4000C7018C549F4F68E671E00E94842C8E1956
:102C50009F0997FD03969595879595958795237080
:102C6000612F289F600D11247D2D802F0E94C82286
:102C7000462F282F672FCE01DF91CF911F910F9103
:102C8000FF90EF90DF900C94E315DF91CF911F91AF
:102C90000F91FF90EF90DF90089545E050E06CE1D8
:102CA00070E087EA95E00C94CD2BE7EAF5E024810B
:102CB00030E1230F08F42FEF24830C944D16E7EA3C
:102CC000F5E0248130E1231B08F420E024830C94F8
:102CD0004D16E7EAF5E085E380838091400190910D
:102CE0004101A091420181839283A3838CE3848379
:102CF0000C944D160E94F1130E941F19811104C0FB
:102D00000E942A190E94691645E050E06CE170E0CB
:102D100087EA95E00E94A92B8091A7058C7F11F48A
:102D20000C9469160895482F982F46FD9095E92F29
:102D3000EF739F7046FD9F5FE295EF70EE0FF0E03E
:102D4000ED5BFE4F2181299F802D212D112482953D
:102D50008F702295207F822B3081982F930F892F9F
:102D600047FD819580580895BC018230910508F493
:102D70000895613E8EE1780748F49B0195E0369511
:102D800027959A95E1F748E0420F01C04FEF91E097
:102D9000242F30E0290F311D35952795229FF00112
:102DA000239FF00DF00D11246E177F0718F44FEFDD
:102DB000420F04C02F3F39F091E0920F491740F7BE
:102DC0008FEF890F08958FEF08950F93CF93DF93BF
:102DD000D72FC82F47FD4195E8E3F0E0CF01841BD2
:102DE000910947FD9395889FB001899F700D700DE3
:102DF0001124229FC001239F900D900D1124860F56
:102E0000971F0E94B416682F660F860F682F600FF9
:102E10007D2F8C2FDF91CF910F91089520E030E02E
:102E2000869F212D969F200D311D1124C9010895E3
:102E30000F931F93CF93DF93C42F122FFC01828136
:102E40008823C9F040932D030E9480189093D504E5
:102E50008093D40480E28C0F883008F06AC0C77079
:102E600081E001C0880FCA95EAF7DF91CF911F91E9
:102E70000F910C940F2980912D0348134AC0209183
:102E8000D4043091D5044FB7F894809148039091C1
:102E90004903A0914A03B0914B034FBF821B930B90
:102EA000883C9105B0F5D0E2D10FC117B9F080E2AE
:102EB0008C0F883040F4C77081E001C0880FCA953C
:102EC000EAF70E940429D83048F481E0912F9770E6
:102ED00001C0880F9A95EAF70E940F29802F0E945F
:102EE0004B29093349F4FFEF27EE83E0F1502040EE
:102EF0008040E1F700C00000802F0E941929D830DF
:102F0000C0F4212F277081E001C0880F2A95EAF7CD
:102F10000AC080E28C0F883060F4C77081E001C085
:102F2000880FCA95EAF7DF91CF911F910F910C940A
:102F30000429DF91CF911F910F91089508958091F9
:102F400075050895CF93DF9300D01F92CDB7DEB7FC
:102F50009091A205943019F589837B836A8382E07E
:102F60008093E9008FEF9091E800815095FD06C0B5
:102F700095ED9A95F1F700008111F5CF8091E80069
:102F800085FF0DC040E050E063E070E0CE010196A7
:102F90000E948C288091E8008E778093E8000F9043
:102FA0000F900F90DF91CF910895BC0184E00C94B5
:102FB000A217BC0183E00C94A217CF93DF9320915A
:102FC0001801222339F02091370327FF03C060E264
:102FD00022E002C068E021E02093E9002FEF309169
:102FE000E800215035FD06C035ED3A95F1F70000B7
:102FF0002111F5CF2091E80025FF1DC0EC01809143
:103000001801811105C040E050E068E070E003C0A5
:1030100070E040E050E0CE010E948C288091E800F2
:103020008E778093E80080E2FE01A6E7B5E001908C
:103030000D928A95E1F7DF91CF910895CF93C091DA
:10304000E9002091EC00922F917020FD90E82091F2
:10305000290120FF2DC0CF70C92B90911A019F70BC
:103060009093E9009091EB0090FF1FC09091EE00CB
:1030700097FF1BC09FEF2091E800915025FD06C0EF
:1030800025ED2A95F1F700009111F5CF8093F1001D
:1030900089E191E00E944C288091E80080FF05C002
:1030A0008091E8008E778093E800CF70C093E900AC
:1030B000CF91089578941F920F920FB60F9211241A
:1030C0008F939F93AF93BF9380914803909149034F
:1030D000A0914A03B0914B030196A11DB11D8093AD
:1030E000480390934903A0934A03B0934B03BF91C5
:1030F000AF919F918F910F900FBE0F901F901895D9
:103100002FB7F8948091480390914903A0914A0306
:10311000B0914B032FBF08951F920F920FB60F92DD
:1031200011248F939F93AF93BF9380914803909105
:103130004903A0914A03B0914B034196A11DB11DD3
:103140008093480390934903A0934A03B0934B03A1
:10315000BF91AF919F918F910F900FBE0F901F90D5
:103160001895209118012223C9F02091370327FFD9
:1031700015C0262F2695269526952E31C8F4FC01DC
:10318000E20FF11D677081E090E001C0880F6A9541
:10319000EAF780959281892382830895FC0106963F
:1031A0002281621301C012823196E817F907C1F734
:1031B0000895209118012223C1F02091370327FFA1
:1031C00014C0262F2695269526952E3130F5FC0124
:1031D000E20FF11D677081E090E001C0880F6A95F1
:1031E000EAF79281892B82830895FC0132962FEFB2
:1031F00030E04191641789F02F3F19F4411101C06B
:10320000232F3F5F3630A9F72F3F39F0FC01E20F43
:10321000F11D27FDFA95628308950895CF9384E008
:1032200090E00E94B92BC82F81E290E00E94B92B58
:103230002C2F30E0A901582BCA01CF91089580E0CE
:1032400090E00E94C72B21E08F3E9E4F09F020E0C6
:10325000822F08956FEE7EEF80E090E00E94FB2BBE
:1032600060E082E090E00E94DD2B60E083E090E08F
:103270000E94DD2B10926E0510926F051092700562
:103280001092710560E084E090E00E94DD2B60E028
:1032900081E290E00E94DD2B60E085E090E00E94FA
:1032A000DD2B60E086E090E00E94DD2B6FEF87E091
:1032B00090E00E94DD2B40E050E0BA0188E090E011
:1032C0000E94EF2B60E08DE090E00E94DD2B40E05B
:1032D00050E0BA0188E190E00E94EF2B60E087E1C6
:1032E00090E00E94DD2B40E050E0BA018CE190E0DC
:1032F0000E94EF2B60E080E290E00E94DD2B40E036
:1033000050E0BA0188E190E00E94EF2B10922F0369
:1033100010923003109231031092320384E08061E6
:1033200080932F0340912F0350913003609131031C
:10333000709132038FE090E00E94EF2B40E050E06C
:10334000BA0183E190E00C94EF2B80916D0581111F
:1033500010926D05089590916C0580916B05892BF5
:1033600020916A05982F922B9093DA0480916D0535
:103370008823D9F0892B8093DA048091180188235F
:1033800031F08091370387FF02C08EE101C086E0F3
:10339000ECEDF4E090E0815028F021912223D9F364
:1033A0009F5FF9CF91110E94A519E0913A03F09126
:1033B0003B033097A9F080911801882359F0809140
:1033C000370387FF07C08091DA048093DB0485E030
:1033D0008093DA040280F381E02D8AED94E0099471
:1033E0000895BF92CF92DF92EF92FF920F931F93B7
:1033F000CF93DF938C01C0903303D0903403E090DF
:103400003503F090360380916E0590916F05A09181
:103410007005B0917105C82AD92AEA2AFB2ACFE1A2
:10342000D0E0D701C6010C2E04C0B695A79597959C
:1034300087950A94D2F780FD04C0219790F7B12CAC
:1034400007C0BC2EB8018C2F0E9499230197A9F3C5
:103450008B2DDF91CF911F910F91FF90EF90DF9017
:10346000CF90BF900895CF93DF93EC010E94F119A4
:10347000BE010E949923DF91CF910895292F220F39
:10348000920F990F890F682F669566956695982F0C
:10349000977085E0689FB001112440E050E080E023
:1034A000FB01E40FF51FEE5CFA4F208130E0092E9E
:1034B00002C0369527950A94E2F721703327042E2F
:1034C00001C0220F0A94EAF7822B4F5F5F4F45300D
:1034D000510531F70895292F220F920F990F890F67
:1034E000E82FE695E695E695877051E001C0550F07
:1034F0008A95EAF785E0E89FF0011124EE5CFA4F27
:1035000020E030E070E04081CB01022E02C09695B1
:1035100087950A94E2F78170819584278523842713
:1035200081932F5F3F4F2530310569F708956093F0
:1035300033037093340380933503909336030C94D4
:10354000E1280F931F9341E050E060E070E004C079
:10355000440F551F661F771F8A95D2F740955095E7
:10356000609570958091330390913403A091350359
:10357000B09136038A019B01082319232A233B2398
:10358000C901B8011F910F910C94971A20916905F8
:103590008095822380936905982F977079F430E0A5
:1035A000482F082E000C550B2417350739F0859548
:1035B000859585950E94A11A1092690508950F932B
:1035C0001F9341E050E060E070E004C0440F551FDD
:1035D000661F771F8A95D2F7809133039091340349
:1035E000A0913503B09136038A019B01082B192B5A
:1035F0002A2B3B2BC901B8011F910F910C94971AEC
:1036000060936E0570936F058093700590937105BC
:103610000C94E1288091310590910005891719F0EB
:103620008F5F8770FBCF08950F931F93CF93DF9326
:103630008091FF0482958F7009F05DC08091FC0439
:10364000882309F458C080913105109100056091DC
:10365000FA047091FB04C091FD04D091FE0491E046
:103660006F3F09F090E0292F06E0811709F443C06D
:10367000209721F07F3F21F030E003C031E001C00E
:10368000322F90E030FD34C0089FF001099FF00D0B
:103690001124DF01AF5FBA4F11963C911197371398
:1036A00027C03C91361324C012963C9112973111D9
:1036B0001FC013964D915C9114974C1B5D0B483CB9
:1036C0005105B0F48091FF048F7080618093FF04F6
:1036D000EA5FFA4F80818F70806180838AEF94E087
:1036E0000E948104DF91CF911F910F910C940A1BCE
:1036F00001968770BACFDF91CF911F910F910895F6
:103700009F92AF92BF92CF92DF92EF92FF920F9370
:103710001F93CF93DF93CDB7DEB761970FB6F894C1
:10372000DEBF0FBECDBF8C0185E0F801DE011D9626
:1037300001900D928A95E1F7F80190818181E280F4
:103740003091FA046091FB044091FD045091FE0415
:103750004115510531F06F3F31F421E03F3F19F43D
:1037600003C021E001C020E0F22FF1709F2E20FD68
:1037700023C1F801C380D4802AEFA22E24E0B22E08
:10378000F090FC04F601E41BF50BFF2009F4CEC019
:103790002091FF04E83CF10508F099C0422F407FDA
:1037A00009F051C0681311C039130FC0FE2CE1108D
:1037B0000CC02F7020612093FF04C5010E9481047A
:1037C0008091FF04F801858337C1CD2831F08F3F08
:1037D00031F421E09F3F19F403C021E001C020E053
:1037E00020FD03C021E02E2502C020E030E0F22FB2
:1037F000F170FF2E20FF1DC0209131054091000582
:1038000056E0241709F4F6C030E0529FF001539FB0
:10381000F00D1124EF5FFA4F6181861306C06081BD
:10382000961303C06281E61204C02F5F3F4F2770DA
:10383000E8CFFE2CEE2009F4FFC08091FF048160E8
:103840008093FF0450C0681307C0391305C0E1100E
:1038500003C0F80125838DC09D878E878D859E8549
:103860000E94B828882369F1EE2059F12091FF04C5
:10387000822F82958F7090E0029774F08091FA0405
:103880009091FB0498878F831986DB86CA862C87E4
:10389000CE0107960E94810486E0F801AAEFB4E009
:1038A00001900D928A95E1F70E94141B0DC06817D4
:1038B000E1F09D878E878D859E850E94B8288111B5
:1038C0001EC0C8010E948104FF24F394B5C0422F9A
:1038D000407F69F78AEF94E00E94810486E0F50159
:1038E00011928A95E9F7F12CA7C03913E2CFE110C4
:1038F000E0CFF8012583C8010E94810457C0EE2063
:1039000001F32091FF04822F82958F7090E002973F
:103910001CF28091FA049091FB049A8389831B82A4
:10392000DD82CC822E83CE010196B4CFE83CF10536
:10393000E8F5FE2CEE2029F2681327C0391325C0C4
:103940002091FF0420FD18C0822F82958F70482F90
:1039500050E04115510581F0F80125834F305105A4
:1039600041F08F5F982F9295907F822F8F70892BD7
:103970008583C8010E94810486E0F801AAEFB4E0C3
:1039800001900D928A95E1F757C09D878E878D85AE
:103990009E850E94B82881117FCF8091FF048160AD
:1039A0008093FF04C8010E94810446C086E0F501AF
:1039B00011928A95E9F740C0EE2009F482CF9D87E5
:1039C0008E878D859E850E94B828F82E882309F45D
:1039D00078CF86E0F801AAEFB4E001900D928A95C5
:1039E000E1F78091FA049091FB040E94331A0E943F
:1039F000141B22C09D878E878D859E850E94331A59
:103A0000292F22952F70223028F49F7039F08111D0
:103A100005C00BC0243028F49F7049F4805E8830C4
:103A200020F0C8010E9481049F2CF92C05C0F801E8
:103A30009581907F99F7F9CF8F2D61960FB6F89405
:103A4000DEBF0FBECDBFDF91CF911F910F91FF90D1
:103A5000EF90DF90CF90BF90AF909F9008951F930D
:103A6000CF93DF93CDB7DEB7AA970FB6F894DEBF3A
:103A70000FBECDBFE9E9F5E081EA95E02091F100C4
:103A800021938E179F07D1F780919A05833009F40F
:103A900060C030F4813071F0823009F49AC0B1C056
:103AA0008A3009F486C08B3009F46BC0893009F084
:103AB000A8C020C080919905813A09F0A2C08091E8
:103AC000E800877F8093E80080919D0590919E0596
:103AD000892B21F460E286E795E003C060E080E096
:103AE00090E070E00E94122A8091E8008B7780932A
:103AF000E80087C080919905813209F082C08091E9
:103B00009D0590919E05029708F07BC08091E8008A
:103B1000877F8093E8008091E80082FD05C0809156
:103B2000A2058111F8CF17C12091F3008091F20016
:103B300090E0922B029729F48091F1008B7F8130E5
:103B400021F48091F100809375058091E8008B77D6
:103B500054C080919905813A09F053C080919D0528
:103B600090919E05892B09F04CC08091E800877FD9
:103B70008093E8008091E80080FFFCCF80911801DD
:103B800037C0809199058132E1F580919D05909132
:103B90009E05892BB1F58091E800877F8093E8002E
:103BA0000E94BE2980919B05809318010E94EF28F6
:103BB00028C080919905813221F58091E800877FA6
:103BC0008093E8000E94BE2980919C058093740533
:103BD00018C080919905813AA1F48091E800877F0F
:103BE0008093E8008091E80080FFFCCF809174050D
:103BF0008093F1008091E8008E778093E8000E9426
:103C0000BE298091E80083FFA6C08091190190E051
:103C100020919D0530919E052817390709F09BC01A
:103C200080919A05813261F020F4803209F441C01C
:103C300092C0823209F470C0833209F481C08BC013
:103C400080919905813A09F086C08091E800877FCC
:103C50008093E8008091E80080FFFCCF80912D01E7
:103C600090912E01A0912F01B09130018093F1002D
:103C7000492F5A2F6B2F77274093F100AD0166270C
:103C800077274093F1008B2F9927AA27BB27809392
:103C9000F100809131018093F10080913201809395
:103CA000F100809133018093F1008091E8008E77DC
:103CB0004EC080919905813209F04DC08091E80095
:103CC000877F8093E8008091E80082FD05C08091A5
:103CD000A2058111F8CF3FC03091F1002091F10091
:103CE0009091F1008091F10030932D0120932E01ED
:103CF00090932F01809330018091F10080933101E6
:103D00008091F100809332018091F1008093330122
:103D10008091E8008B771BC0809199058132D9F49E
:103D20008091E800877F8093E8000E94BE298091FF
:103D30009B0590919C0590932A01809329010BC0CB
:103D400080919905813239F48091E800877F8093D2
:103D5000E8000E94BE298091E80083FFDCC18091C9
:103D6000990590919A05492F50E04A30510508F085
:103D7000D2C1FA01E157FF4F0C94982C803821F002
:103D8000823809F0C8C108C08091960590919705C6
:103D9000992389F082600FC080919D058F708730D4
:103DA00008F0B9C18093E9008091EB0085FB88277A
:103DB00080F91092E9009091E800977F9093E800D5
:103DC0008093F1001092F10066C1282F2D7F09F039
:103DD000A2C1882319F0823061F09DC180919B05BA
:103DE000813009F098C1933009F080E08093970505
:103DF0002EC080919B0581112AC080919D058F70F6
:103E00002FEF280F263008F086C18093E90020911B
:103E1000EB0020FF1CC0933021F48091EB00806206
:103E200014C09091EB0090619093EB0021E030E0A2
:103E3000A90102C0440F551F8A95E2F74093EA009A
:103E40001092EA008091EB0088608093EB00109262
:103E5000E9008091E800877F21C181115CC1109148
:103E60009B051F778091E3008078812B8093E3008E
:103E70008091E800877F8093E8000E94BE298091AE
:103E8000E80080FFFCCF8091E30080688093E3002E
:103E9000111102C082E001C083E08093A2053BC102
:103EA0008058823008F037C180919B0590919C0525
:103EB0008C3D53E0950779F583E08A838AE2898314
:103EC0004FB7F894DE01139620E03EE051E2E32F75
:103ED000F0E050935700E49120FF03C0E295EF70AB
:103EE0003F5FEF708E2F90E0EA3010F0C79601C070
:103EF000C0968D939D932F5F243149F74FBF8091DA
:103F0000E800877F8093E8006AE270E0CE010196C6
:103F10000E94122AAEC040919D0550919E05292F06
:103F2000332723303105A9F068F42130310509F435
:103F300001C12230310509F0EEC088E790E0E1EEE2
:103F4000F6E044C02132310521F12232310571F110
:103F5000E2C0992781309105A1F058F0029709F04D
:103F6000DAC0EBE6F7E0E4918E2F90E0EBE6F7E0C5
:103F70002AC0EFEBF7E0E4918E2F90E0EFEBF7E053
:103F800022C0EDE8F7E0E4918E2F90E0EDE8F7E055
:103F90001AC04115510509F4D2C04130510509F04C
:103FA000BAC089E090E0ECE0F7E010C0411551059F
:103FB00009F4CAC04130510509F0ADC08DE690E06A
:103FC000E4E3F6E003C0009709F4A5C02091E800FF
:103FD000277F2093E80020919F053091A00582174C
:103FE000930708F49C0140E02115310589F1809187
:103FF000A205882309F43DC08530D9F18091E800FD
:1040000083FD37C08091E80082FD2FC08091E800D9
:1040100080FFEACF4091F3008091F20090E0942B72
:104020002115310559F08830910540F444914093B1
:10403000F1003196215031090196F2CF41E0089705
:1040400009F040E08091E8008E778093E800CCCFC3
:104050004111CDCF0AC08091A205882351F085304F
:1040600041F08091E80083FD04C08091E80082FF68
:10407000F2CF8091E8008B778093E8004CC08038C5
:1040800009F049C08091E800877F8093E800809123
:1040900098058093F1008091E8008E778093E80086
:1040A0000E94BE2938C0811136C080919B05909135
:1040B0009C05992702977CF58091E800877F809383
:1040C000E80010919B05109398050E94BE291111DC
:1040D00006C08091E30087FD02C081E001C084E05A
:1040E0008093A20542E061EC81E00E94DD2942E27A
:1040F00061EC82E00E94DD2942E061EC83E00E94F5
:10410000DD2942E160E885E00E94DD2942E161E8C5
:1041100084E00E94DD298091E80083FF1AC080912D
:10412000E800877F8093E8008091EB0080628093B5
:10413000EB000FC082E190E0E9E5F7E047CF89E0CE
:1041400090E0E3EFF6E042CF80E490E0E1EAF6E0D1
:104150003DCFAA960FB6F894DEBF0FBECDBFDF915C
:10416000CF911F9108951F920F920FB60F921124B5
:104170002F933F934F935F936F937F938F939F936F
:10418000AF93BF93CF93DF93EF93FF93C091E90079
:10419000CF708091EC00D82FD17080FDD0E81092C4
:1041A000E9008091F000877F8093F00078940E946E
:1041B0002F1D1092E9008091F00088608093F0003C
:1041C000CD2BCF70C093E900FF91EF91DF91CF919C
:1041D000BF91AF919F918F917F916F915F914F911F
:1041E0003F912F910F900FBE0F901F901895E8ED03
:1041F000F0E080818E7F80831092E2001092DA00DE
:104200001092E100A0EEB0E08C9181608C938081EF
:104210008F77808319BCA7EDB0E08C918E7F8C9353
:1042200080818F7E8083109272050895CF92DF92F5
:10423000EF92FF920F931F93CF93DF93C8EDD0E0DF
:1042400088818F7E8883E7EDF0E0808181608083C4
:1042500084E082BF81E08093720588818E7F8883AD
:1042600002EE10E0F80110821092DA0081EEC82E02
:10427000D12CF601108288818F77888388818068AD
:10428000888388818F7D888319BC1092A205109243
:104290009805109297051092960590EEE92EF12C54
:1042A000F70180818B7F808388818160888342E0F1
:1042B00060E080E00E94DD29F60180818E7F8083AE
:1042C000F801808181608083808188608083F7012C
:1042D00080818E7F8083888180618883DF91CF9108
:1042E0001F910F91FF90EF90DF90CF9008951F9254
:1042F0000F920FB60F9211242F933F934F935F931A
:104300006F937F938F939F93AF93BF93EF93FF939D
:104310008091E10082FF09C08091E20082FF05C028
:104320008091E1008B7F8093E1008091DA0080FF33
:104330002AC08091D80080FF26C08091DA008E7F4D
:104340008093DA008091D90080FF18C080E189BD98
:1043500082E189BD09B400FEFDCF81E08093A20512
:104360008091720581110FC00E94F7200E941621D2
:104370008091E20084608093E20005C019BC109235
:10438000A205109272058091E10080FF17C0809114
:10439000E20080FF13C08091E2008E7F8093E200F4
:1043A0008091E20080618093E2008091D800806279
:1043B0008093D80019BC85E08093A2058091E1002C
:1043C00084FF34C08091E20084FF30C080E189BD69
:1043D00082E189BD09B400FEFDCF8091D8008F7DB8
:1043E0008093D8008091E1008F7E8093E1008091DE
:1043F000E2008F7E8093E2008091E20081608093F2
:10440000E20080919805882311F084E007C0809134
:10441000E30087FD02C081E001C083E08093A20534
:104420000E94EF280E94CF15109273058091E10041
:1044300083FF27C08091E20083FF23C08091E100C9
:10444000877F8093E10082E08093A2051092980517
:104450008091E1008E7F8093E1008091E2008E7F69
:104460008093E2008091E20080618093E20042E06C
:1044700060E080E00E94DD298091F00088608093F8
:10448000F000FF91EF91BF91AF919F918F917F913C
:104490006F915F914F913F912F910F900FBE0F90B1
:1044A0001F9018952091E4003091E50095E6409129
:1044B000EC00842F817040FF23C08091E80080FDD4
:1044C0001DC08091A205882399F0853099F08091D4
:1044D000EB0085FD11C04091E4005091E5002417E8
:1044E000350729F3915011F09A01E1CF84E0089546
:1044F00082E0089583E0089581E0089580E00895C2
:104500004091E80042FFDDCF08959091370392FF7C
:104510000DC0282F2871283019F4877F846006C0C9
:10452000282F2471243011F48B7F886093FF0DC0F5
:10453000282F2871283119F4877E846106C0282F1E
:104540002471243111F48B7E88612091380320FF7F
:104550000DC0382F3871383019F4877F816006C05C
:10456000382F3171313011F48E7F886021FF0DC0FA
:10457000282F2871283119F4877E816106C0282FE1
:104580002171213111F48E7E886194FD877E08951A
:10459000CF92DF92EF92FF920F931F93CF93DF930F
:1045A000F62E472FE82FF0E0711106C0ED53F84FBB
:1045B0008491782F682F73C0272F30E0ED53F84F88
:1045C000E491FE2F0E2F10E056E0659FC0011124EC
:1045D000CFEFD0E0BE010E94702C5BEA5603C00111
:1045E000579F900D11248F0D911D8F0D911D982FA8
:1045F000990F980F7E01E21AF30AE09ED001E19E26
:10460000B00DF09EB00D11248B2F499FA0011124F5
:10461000452F55277E01E41AF50AE09EA001E19E90
:10462000500DF09E500D11246E01C91AD108C29E82
:104630007001C39EF00CD29EF00C11242F2D332755
:10464000C21BD30BC09F9001C19F300DD09F300D76
:104650001124932F6230710591F048F461157105B2
:10466000E1F061307105B9F49E2FE52F16C064307A
:10467000710569F040F06630710579F00CC09E2F2D
:10468000EB2F832F0AC0EB2F8F2F952F06C09B2F68
:104690008E2FE32F02C09B2F852F7E2F692FDF9156
:1046A000CF911F910F91FF90EF90DF90CF900895E1
:1046B00086E0E0E2F3E0DF01982F1D929A95E9F79A
:1046C000E6E2F3E0DF011D928A95E9F70895CF93C2
:1046D000C82F0E945823C09339036C2F8DE090E0BF
:1046E000CF910C94DD2BCF93DF9300D000D01F929D
:1046F000CDB7DEB76B837C838D838C819D81892BC5
:1047000031F05F3F31F481E04F3F19F403C081E0A5
:1047100001C080E080FD02C08B8102C080E090E09B
:1047200081700F900F900F900F900F90DF91CF91AD
:104730000895CF93DF9324E5829FC0011124FC01EB
:1047400046E0749FE00DF11D1124E60FF11DEE0F00
:10475000FF1FE456FE4FC591D491CE01C238D1055A
:1047600069F1B0F4C133D10509F475C048F4C93218
:10477000D10509F469C0CA32D10509F473C085C0F6
:10478000C533D10509F459C0C933D105B9F07DC08D
:10479000C33ED10571F138F4C03ED105B1F0C23E3F
:1047A000D10511F172C0C63ED105B9F1C73ED105A0
:1047B000C9F1C43ED10509F068C024C02091370377
:1047C00020FD5DC021FD5BC060C02091370320FD4E
:1047D00050C02091380320FF42C18091370384FDEF
:1047E0003CC183EE90E03BC12091370322FF37C1EB
:1047F000F4CF8091370382FD3FC08091380380FD64
:104800003EC0EBCF2091380321FF29C180913703AF
:1048100084FD23C187EE90E022C12091370323FF5E
:104820001EC1F4CF8091370383FD2CC080913803E3
:1048300081FFECCF84EE90E012C12091370325FF79
:104840000EC189E290E00BC12091370325FF07C11B
:1048500085E390E004C12091370326FF00C18AE27E
:1048600090E0FDC02091370326FFF9C081E390E07E
:10487000F6C089E390E0F3C082EE90E0F0C080EEF5
:1048800090E0EDC086EE90E0EAC0C11552E5D50794
:1048900008F06BC0C11521E5D20728F09C2F8827AE
:1048A000816F906ADCC0C83ED10570F5C03ED1056D
:1048B00008F0D5C0C83AD105B8F4C53AD10550F0D2
:1048C0008C2F855AC82FD0E0C151DD4F888190E0F0
:1048D0009064C5C0C130D10509F4C1C008F4BDC0A1
:1048E000249708F4BAC0BBC0CF3BD10508F0B5C0CF
:1048F0008C2F885AC82FD0E0CC0FDD1FCE50DD4F53
:10490000888199819464ABC0C11540E5D407F0F06B
:10491000CE01F4E096958795FA95E1F7282F23705C
:104920003C2F337081E090E002C0880F991F3A95C8
:10493000E2F79C68922B2C2F2F702695269550E23B
:10494000259F90011124822B932B89C0C11550E41F
:10495000D50720F0CE019F70906A81C09E013A95E4
:1049600021153F4108F47BC078C0C11556E5D50735
:1049700008F03FC0C11585E5D80748F08C2F0E948C
:1049800085228F7190E0982F8827906268C0C115AA
:1049900024E5D20728F09C2F8827846F906A5FC097
:1049A0009E01237033279C2F96959695C115D3456C
:1049B00080F441E050E002C0440F551F2A95E2F711
:1049C00080E2989F90011124CA01822B932B9C684E
:1049D00046C041E050E002C0440F551F2A95E2F75F
:1049E00080E2989F90011124CA01822B932B9A6830
:1049F00036C0C1155AE5D507B0F4C11589E5D80709
:104A000018F18C2F8F700E9485229E0194E03695BC
:104A100027959A95E1F72F7030E0322F22273069E1
:104A2000A901482B0FC0CE01905681159042A8F4E1
:104A30008D2F8F710E9485229E01332730628F71E6
:104A4000A901582BCA010BC0C11528E5D20728F0CF
:104A50009C2F8827806F906A02C080E090E0DF91F1
:104A6000CF91089580E290E090930B0180930A012A
:104A70008091A10581110EC00E94702A81E080936F
:104A8000A1052FEF83ED90E3215080409040E1F7A6
:104A900000C0000064E670E080E40E94762A9093F3
:104AA0000B0180930A01892B09F04EC064E670E087
:104AB00080E00E94CD2A90930B0180930A01892BFC
:104AC00009F042C064E670E080E00E94CD2A909335
:104AD0000B0180930A01892BB9F564E670E08FE33E
:104AE0000E94CD2A90930B0180930A01892B61F5D6
:104AF0000E94492B64E670E080E40E94762A90933D
:104B00000B0180930A01892BF9F464E670E08CE0D4
:104B10000E94CD2A90930B0180930A01892BA1F466
:104B200064E670E080E00E94CD2A90930B018093B0
:104B30000A01892B49F464E670E08FE30E94CD2AD4
:104B400090930B0180930A010E94492B80910A01E6
:104B50000895CF93DF9356985E9825982D982698C0
:104B60002E9827982F98C8E8D0E08FEF90E099838F
:104B70008883AAE8B0E011969C938E93ECE8F0E06D
:104B800091838083259A2D9A2FEF80E792E0215020
:104B900080409040E1F700C00000269A2E9A2FEF47
:104BA00080E792E0215080409040E1F700C0000093
:104BB000279A2F9A2FEF80E792E021508040904073
:104BC000E1F700C0000025982D982FEF80E792E0D4
:104BD000215080409040E1F700C0000026982E98B8
:104BE0002FEF80E792E0215080409040E1F700C035
:104BF000000027982F9880912F0387702FEF829FB6
:104C0000C001112495958795959587959927998346
:104C1000888311969C938E939183808356985E9897
:104C200025982D9826982E9827982F98DF91CF9128
:104C30000895CF93E82F873080F580910A019091F5
:104C40000B01892B09F047C0CE2F64E670E080E4A9
:104C50000E94762A90930B0180930A01892BD1F44C
:104C600064E670E082E10E94CD2A90930B0180936C
:104C70000A01892B79F481E090E001C0880FCA9580
:104C8000EAF764E670E080950E94CD2A90930B01CC
:104C900080930A01CF910C94492B90E0FC01379747
:104CA000E730F105C0F4E756FF4F0C94982C209A9A
:104CB000289811C0219A29980EC0229A2A980BC0D0
:104CC000239A2B9808C0529A5A9805C0539A5B9819
:104CD00002C03E9A4698CF9108952098289821982E
:104CE000299822982A9823982B9852985A98539842
:104CF0005B983E9846980895CF93873040F5809111
:104D00000A0190910B01892B59F564E670E081E46A
:104D10000E94762A90930B0180930A01892B11F04F
:104D2000C0E011C084E690E00E94FD2A97FF05C014
:104D300090930B0180930A01F3CFC82FC095109276
:104D40000B0110920A010E94492B8C2F0AC09FB1BF
:104D50008FB1807F869586959370892B809501C051
:104D600080E0CF9108959F92AF92BF92CF92DF9251
:104D7000EF92FF920F931F93CF93DF936C0180917B
:104D80003501C82FCC0FCC0FC80F15E01C0F113305
:104D900008F010E36091AB05669566958091A305D8
:104DA0009091A4050E940E17D82F80E48D0F0E94C9
:104DB000931690E8F92EF80E8D2F0E94931620E896
:104DC000922E980EC11700F5AC2EB12CF501E154CE
:104DD000FD4F9081809136018923A1F06091A80553
:104DE0007091A9058091AA05ED2E0C2F292D4F2D2C
:104DF000F60109950E94C822462F282F672FC5016A
:104E00000E94E315CF5FDECF81E0103308F080E031
:104E1000DF91CF911F910F91FF90EF90DF90CF9096
:104E2000BF90AF909F9008956F927F928F929F92C4
:104E3000AF92BF92CF92DF92EF920F931F93CF93D7
:104E4000DF933C0180913501C82FCC0FCC0FC80FE8
:104E5000D5E0DC0FD13308F0D0E36091AB05669567
:104E60008091A3059091A4050E940E17182FCD17CD
:104E700008F044C08C2E912CF401E154FD4F908138
:104E8000809136018923C1F1F401EE0FFF1FE15A31
:104E9000FD4FC080D12C80E7C81AD108F401EE0F75
:104EA000FF1FE05AFD4FA080B12CE0E2AE1AB1081E
:104EB000CC9C9001CD9C300D300D1124AA9CC001DA
:104EC000AB9C900D900D1124820F931F0E94B4167D
:104ED000082F6091A8057091A9058091AA05E12E7F
:104EE0009501A601F30109950E94C822462F282F9B
:104EF000672FC4010E94E315CF5FB9CF81E0D033A3
:104F000008F080E0DF91CF911F910F91EF90DF903B
:104F1000CF90BF90AF909F908F907F906F900895AB
:104F2000CF92DF92EF92FF920F931F93CF93DF9375
:104F30006C0180913501C82FCC0FCC0FC80FD5E084
:104F4000DC0FD13308F0D0E36091AB05669580911A
:104F5000A3059091A4050E940E17182FCD1778F580
:104F6000EC2EF12CF701E154FD4F90818091360138
:104F7000892319F1F701EE0FFF1FE05AFD4F208141
:104F800030E020523109F701EE0FFF1FE15AFD4FCB
:104F9000408150E0405751096091A8057091A905E2
:104FA0008091AA05012FF60109950E94C822462F7B
:104FB000282F672FC7010E94E315CF5FCFCF81E075
:104FC000D03308F080E0DF91CF911F910F91FF90D7
:104FD000EF90DF90CF900895DF92EF92FF920F93C2
:104FE0001F93CF93DF938C0180913501C82FCC0F95
:104FF000CC0FC80FD5E0DC0FD13308F0D0E36091BF
:10500000AB05669566958091A3059091A4050E94D5
:105010000E17D82ECD17F0F4EC2EF12CF701E15439
:10502000FD4F908180913601892391F06091A80510
:105030007091A9058091AA052D2D4C2FF801099595
:105040000E94C822462F282F672FC7010E94E31510
:10505000CF5FE0CF81E0D03308F080E0DF91CF91E7
:105060001F910F91FF90EF90DF9008959091A70509
:10507000937089F0811102C0946007C0893110F0EB
:10508000906603C0880F880F982B9093A705109205
:1050900034010C944D1608958091A205843069F571
:1050A00080912D0190912E01A0912F01B09130019E
:1050B000892B8A2B8B2B09F180911A018F70809399
:1050C000E9002091F3008091F20090E0922B892B6F
:1050D00091F09091E8008091E8008E778093E8004D
:1050E00095FD09C00E945222811108C08091E800FC
:1050F0008E778093E80080E0089582E00895909193
:10510000A705937041F08093A8056093A90540938B
:10511000AA050C944D160895EF92FF920F931F93DA
:10512000CF93DF937C018B010E945222811119C021
:10513000E70101151105A1F08091E80085FD0AC085
:105140008091E8008E778093E8000E9452228823A5
:1051500081F307C089918093F10001501109E9CFD3
:1051600080E0DF91CF911F910F91FF90EF90089514
:105170000E94331A292F2F70E92FE295EF704E2FDE
:1051800050E0FA013297EE30F105B8F4E056FF4FE7
:105190000C94982C803F99F018F4883E70F40FC05E
:1051A000843F59F40CC0883E50F0813F31F407C071
:1051B000822F869586958695089580E0089581E0F2
:1051C000089510926B0510926A050E94AB1980E059
:1051D00090E00E94B91580E090E00C94A315109225
:1051E0006C0580911801882331F08091370387FF87
:1051F00002C08EE101C086E0ECEDF4E0DF011D921B
:105200008A95E9F70C94E128882341F080959091E4
:105210006C05892380936C050C94AB190895882341
:1052200039F090916C05892B80936C050C94AB1927
:105230000895882379F19CEF980F913A30F4682F04
:105240008AED94E00E94B11814C090E2980F983053
:1052500090F4877021E030E0A90102C0440F551F8F
:105260008A95E2F7CA01809590916C058923809315
:105270006C050C94AB199BE5980F933020F480E0FB
:1052800090E00C94B915885A873120F480E090E0C2
:105290000C94A3150895CF93882309F46DC09CEF57
:1052A000980F913AC8F5C82F809118018823E1F032
:1052B0008091370387FF18C0EC2FE695E695E695B9
:1052C000F0E0E652FB4F8281282F30E04C2F4770F0
:1052D00081E090E002C0880F991F4A95E2F782238F
:1052E0009323892B61F412C0ECEDF4E082EE94E09C
:1052F0002191C21721F08E179F07D1F707C06C2F9D
:105300008AED94E00E94B1180E94AB196C2F8AEDCF
:1053100094E00E94D91813C090E2980F983090F44E
:10532000877021E030E0A90102C0440F551F8A9523
:10533000E2F7CA0190916C05892B80936C05CF919F
:105340000C94AB19EBE5E80FE33040F4F0E0E151E9
:10535000FD4F808190E0CF910C94B915885A873128
:1053600058F4E82FF0E0EE0FFF1FEE50FD4F808164
:105370009181CF910C94A315CF91089580919905B7
:1053800087FF11C08091E80082FD05C08091A205D1
:105390008111F8CF11C08091E8008B770BC080910C
:1053A000A205882349F08091E80080FFF8CF809122
:1053B000E8008E778093E8000895982F973068F57D
:1053C0009093E900981739F07091EC002091ED006E
:1053D0005091F00003C0242F762F50E021FD02C031
:1053E0009F5FECCF3091EB003E7F3093EB0030912C
:1053F000ED003D7F3093ED003091EB003160309354
:10540000EB007093EC002093ED005093F00020919E
:10541000EE0027FDE5CF80E008958F708093E900CE
:1054200081E0089520919F053091A0052617370748
:1054300048F06115710539F42091E8002E7720932A
:10544000E80001C0B901FC0120E06115710579F1A6
:105450008091A2058823F1F18530F1F18091E80077
:1054600083FD3CC08091E80082FD2EC08091E80061
:1054700080FFEBCF2091F3008091F20090E0922B1F
:105480006115710551F08830910538F42191209310
:10549000F100615071090196F3CF21E0089709F0FE
:1054A00020E08091E8008E778093E800CECF211134
:1054B000CFCF0AC08091A205882361F0853061F0CA
:1054C0008091E80083FD0AC08091E80082FFF2CF5E
:1054D00080E0089582E0089583E0089581E00895D2
:1054E0001092B9008CE08093B8000895EF92FF927B
:1054F0000F931F93CF93DF93182FEB011092BC00F3
:1055000084EA8093BC000E9480187C018091BC00DA
:1055100087FD0EC0CF3F8FEFD807C1F30E948018E0
:105520008E199F098C179D0788F38EEF9FEF2EC071
:105530008091B900887F883041F08091B900887FE0
:10554000803119F08FEF9FEF21C01093BB0084E8EA
:105550008093BC000E9480188C018091BC0087FD64
:105560000CC0CF3F8FEFD807C1F30E948018801B7B
:10557000910B8C179D0788F3D8CF8091B900887F55
:10558000883111F08034F1F680E090E0DF91CF9126
:105590001F910F91FF90EF9008950F931F93CF935A
:1055A000DF93EB018093BB0084E88093BC000E94F2
:1055B00080188C018091BC0087FD0EC0CF3F8FEF1B
:1055C000D807C1F30E948018801B910B8C179D0790
:1055D00088F38EEF9FEF0CC02091B900287F81E007
:1055E00090E0283211F480E090E091958195910946
:1055F000DF91CF911F910F9108950F931F93CF9338
:10560000DF93EC0184E88093BC000E9480188C0139
:105610008091BC0087FD0EC0CF3F8FEFD807C1F34C
:105620000E948018801B910B8C179D0788F38EEFCA
:105630009FEF03C08091BB0090E0DF91CF911F915D
:105640000F910895CF92DF92EF92FF920F931F93E5
:10565000CF93DF936B018A017901B9010E94762A09
:10566000E6010C0D1D1DC017D10761F424E920933C
:10567000BC00DF91CF911F910F91FF90EF90DF90D1
:10568000CF90089597FDF2CFB70189910E94CD2A5E
:10569000EACF84E98093BC0008958F929F92AF92E5
:1056A000BF92CF92DF92EF92FF92CF93DF93EC0104
:1056B000688179818A819B816115710581059105D8
:1056C00021F464E279ED8BE597E02DE133EF41E0E1
:1056D00050E00E94012C49015A019B01AC01A7EA4C
:1056E000B1E40E94202C6B017C01ACEEB4EFA5016B
:1056F00094010E942E2CDC01CB018C0D9D1DAE1D52
:10570000BF1DB7FF03C00197A109B04888839983E3
:10571000AA83BB839F77DF91CF91FF90EF90DF90BB
:10572000CF90BF90AF909F908F9008950E944D2B87
:10573000089580E091E00E944D2B0895A0E0B0E034
:105740008093000190930101A0930201B0930301A3
:105750000895DC01CB01FC01F999FECF06C0F2BD32
:10576000E1BDF89A319600B40D9241505040B8F71F
:105770000895F999FECF92BD81BDF89A992780B519
:105780000895A6E1B0E044E050E00C94AB2BA8E112
:10579000B0E042E050E00C94AB2BDC01A40FB51F4D
:1057A0004150504048F0CB01840F951F2E910E942C
:1057B000DE2B41505040D0F70895262FF999FECFA7
:1057C00092BD81BDF89A019700B4021639F01FBA54
:1057D00020BD0FB6F894FA9AF99A0FBE0895039671
:1057E000272F0E94DE2B0E94DD2B252F0E94DE2B0F
:1057F000242F0C94DE2B0196272F0E94DE2B0C9475
:10580000DD2B052E97FB1EF400940E94182C57FDEB
:1058100007D00E94332C07FC03D04EF40C94182CB4
:1058200050954095309521953F4F4F4F5F4F0895CC
:1058300090958095709561957F4F8F4F9F4F0895FC
:105840000E94552CA59F900DB49F900DA49F800D94
:10585000911D11240895B7FF0C94202C0E94202C38
:10586000821B930B0895A1E21A2EAA1BBB1BFD01FC
:105870000DC0AA1FBB1FEE1FFF1FA217B307E4072F
:10588000F50720F0A21BB30BE40BF50B661F771F87
:10589000881F991F1A9469F7609570958095909567
:1058A0009B01AC01BD01CF010895A29FB001B39F40
:1058B000C001A39F700D811D1124911DB29F700D19
:1058C000811D1124911D0895991B79E004C0991F31
:1058D000961708F0961B881F7A95C9F7809508954A
:1058E000AA1BBB1B51E107C0AA1FBB1FA617B70706
:1058F00010F0A61BB70B881F991F5A95A9F7809522
:105900009095BC01CD01089597FB072E16F40094E5
:1059100007D077FD09D00E94702C07FC05D03EF41B
:10592000909581959F4F0895709561957F4F08954B
:10593000EE0FFF1F0590F491E02D09940F931F9334
:10594000CF93DF938230910510F482E090E0E091F4
:10595000AE05F091AF0520E030E0A0E0B0E0309778
:1059600019F1408151810281138148175907C8F00C
:105970008417950769F4109731F012960C931297DB
:1059800013961C9327C00093AE051093AF0522C059
:105990002115310519F04217530718F49A01BD017A
:1059A000EF01DF01F801DBCF21153105F9F0281BEC
:1059B000390B2430310580F48A819B816115710592
:1059C00021F0FB019383828304C09093AF05809301
:1059D000AE05FE01329644C0FE01E20FF31F819333
:1059E000919322503109398328833AC02091AC0524
:1059F0003091AD05232B41F4209106013091070130
:105A00003093AD052093AC05209104013091050140
:105A10002115310541F42DB73EB740910801509151
:105A20000901241B350BE091AC05F091AD05E2179F
:105A3000F307A0F42E1B3F0B2817390778F0AC01B1
:105A40004E5F5F4F2417350748F04E0F5F1F50938E
:105A5000AD054093AC058193919302C0E0E0F0E086
:105A6000CF01DF91CF911F910F910895CF93DF93D5
:105A7000009709F481C0FC01329713821282A09131
:105A8000AE05B091AF05109781F420813181820F6E
:105A9000931F2091AC053091AD052817390751F5BA
:105AA000F093AD05E093AC0567C0ED0120E030E078
:105AB000CE17DF0740F44A815B819E0141155105F5
:105AC000F1F0EA01F5CFD383C28340815181840F85
:105AD000951FC817D90759F488819981840F951F9C
