:100000000C9481030C949E030C949E030C949E0309
:100010000C949E030C949E030C949E030C949E03DC
:100020000C949E030C949E030C942F110C94EB10D3
:100030000C94AD190C949E030C949E030C949E0397
:100040000C949E030C949E030C949E030C949E03AC
:100050000C949E030C940E120C949E030C949E031D
:100060000C949E030C949E030C949E030C949E038C
:100070000C949E030C949E030C949E030C949E037C
:100080000C949E030C949E030C949E030C949E036C
:100090000C949E030C949E030C949E030C949E035C
:1000A0000C949E030C949E030C949E0300D0D0D01D
:1000B000D0D0D00101020408102041424448480039
:1000C0000000484850608182848890A0C1C2C4D09A
:1000D000D0D0D0D0D0C80000000000000000000048
:1000E00000000000000000000000000029003500B2
:1000F000E100E700E60000001E00140004001D00FF
:100100005200E3001F001A0016001B005100E0001F
:1001100020000800070006005000035121001500D0
:10012000090019004F00E200220017000A00050034
:1001300000004B0005512B0000002B1200004E0068
:10014000025328000000280000002D0023001C009E
:100150000B00110000001150240018000D001000C9
:1001600052002C0425000C000E00360051002C001B
:10017000260012000F00370050002A00270013004D
:10018000330038004F0073002E0031003400E500CA
:10019000E400000029003500E100685964590000BE
:1001A0001E00140004001D00520068591F001A00B0
:1001B00015001B00520061592000090016000600BE
:1001C0005000045121001300170019004F0064591A
:1001D00022000A000700050000004B0005512B001B
:1001E00000002B1200004E000253280000002800DF
:1001F00000002D0023000D000B000E000000105029
:1002000024000F001100100052002C0425001800DB
:100210000800360051002C0026001C000C0037009E
:1002200050002A0027003300120038004F007300EE
:100230002E0031003400E50061590000290035002E
:10024000E100E700E60000001E00015A075A085AC4
:10025000520001001F00025A095A0A5A5100105A4E
:100260002000035A0B5A0C5A50000F5A2100045A0E
:100270000D5A0E5A4F0001002200055A115A125A07
:100280000000010001002B0000002B120000010003
:1002900001002800000028000000305A2300065A00
:1002A000165A175A000001002400235A1A5A1B5AE2
:1002B0005200315A2500245A1C5A1D5A5100195A0D
:1002C0002600255A1E5A1F5A5000185A2700265A2F
:1002D000205A215A4F0001002D00275A225A295A2C
:1002E000E400000001003502E100E700E600000044
:1002F0001E0201004A0035020100E3001F02010056
:1003000050002E020100E0002002520051002D0298
:1003100001000100210201004F002E000100E20057
:10032000220201004D002D000000010001002B18E9
:1003300000002B1A00000100010001000000010074
:100340000000010023020100010001000000010083
:1003500024022F0226023102010001002502300290
:100360002702360201002E15260231002F00370227
:1003700001003511270233023000380201002D152B
:100380002D0231023402E500E400000001003502D4
:10039000E100E700E60000001E0201004A0035020D
:1003A0000100E3001F02010050002E020100E000E6
:1003B0002002520051002D02010001002102010023
:1003C0004F002E000100E200220201004D002D002E
:1003D0000000010001002B1800002B1A0000010092
:1003E00001000100000001000000010023020100E3
:1003F000010001000000010024022F022602310248
:1004000001000100250230022702360201002E15EC
:10041000260231002F003702010035112702330276
:100420003000380201002D152D0231023402E500A2
:10043000E4000000145C0100E100E700E6000000B9
:100440003A000100010001000100E3003B0001004F
:10045000010001000100E0003C000100010001007A
:10046000010001003D000100010001000100E20067
:100470003E00010001000100000001000100A80091
:100480000000AE00000001000100A9000000AA0069
:10049000000001003F000100010001000000010018
:1004A00040000100010001000100010041000100C5
:1004B0000100010001002C004200010001000100C8
:1004C00001002A00430001000100010001000100B9
:1004D000440045000100E500E4000000290035006B
:1004E000E1000100010000001E00140004001D00D6
:1004F000520001001F001A0016001B0051000100ED
:10050000200008000700060050000100210015002F
:10051000090019004F000100220017000A00050021
:1005200000004B0001002B0000002B1200004E00C9
:1005300001002800000028000000010023001C002A
:100540000B00110000002E00240018000D00100008
:100550005200010025000C000E00360051002C0056
:10056000260012000F00370050002A002700130059
:10057000330038004F0001002D0031003400E50049
:100580000100000005010980A101850319012AB7B6
:1005900000150126B700950175108100C0050C09F2
:1005A00001A101850419012AA002150126A00295C6
:1005B0000175108100C005010906A1018506050726
:1005C00019E029E715002501950875018102050745
:1005D000190029EF1500250195F075018102050824
:1005E0001901290595057501910295017503910180
:1005F000C005010906A101050719E029E715002535
:100600000195087501810295017508810105071999
:100610000029FF150026FF009506750881000508D2
:10062000190129059505750191029501750391013F
:10063000C009027800040100A0FA090400000103C7
:100640000101000921110100012240000705810379
:100650000800010904010001030000000921110143
:100660000001226D0007058203200001080B020231
:100670000202010009040200010202010005240037
:10068000100104240202052406020307058303085F
:1006900000FF09040300020A00000007050502101C
:1006A00000050705840210000512010002EF020197
:1006B00008973274490100010200011603450072D7
:1006C0000067006F0044006F007800200045005A6A
:1006D00000000028035A0053004100200054006528
:1006E00000630068006E006F006C006F00670079A7
:1006F0000020004C00610062007300000004030948
:10070000040011241FBECFEFDAE0DEBFCDBF11E041
:10071000A0E0B1E0EEEAFEE302C005900D92AA3639
:10072000B107D9F722E0AAE6B1E001C01D92A23BD1
:10073000B207E1F70E94D0190C943F1F0C940000FF
:100740000895E8EDF0E080818E7F80831092E200D2
:100750001092DA001092E100A0EEB0E08C9181607E
:100760008C9380818F77808319BCA7EDB0E08C914A
:100770008E7F8C9380818F7E808310927B02089580
:100780002091E4003091E50095E6A9012091EC006C
:10079000822F817020FF06C08091E80080FF06C094
:1007A00080E008952091E80022FD1AC08091AA02FD
:1007B000882389F0853089F08091EB0085FD0FC09A
:1007C0002091E4003091E50042175307F9F291506F
:1007D000E1F684E0089582E0089583E0089581E0E1
:1007E00008958091AA02843061F580912901909149
:1007F0002A01A0912B01B0912C01892B8A2B8B2BE4
:1008000001F1809116018F708093E9009091F300BF
:100810008091F200892B11F480E008959091E80016
:100820008091E8008E778093E80095FDF5CF0E94D7
:10083000C003811107C09091E8009E779093E80073
:10084000089582E00895EF92FF920F931F93CF9344
:100850007C018B010E94C003C82F811117C08091B9
:10086000E80085FD0BC08091E8008E778093E8005A
:100870000E94C003882399F3C82F08C0F701819113
:100880007F018093F1000150110949F78C2FCF911E
:100890001F910F91FF90EF9008958091A20287FF22
:1008A00013C08091E80082FF06C08091E8008B773A
:1008B0008093E80004C08091AA028111F2CF0895CC
:1008C0008091AA028823D9F38091E80080FFF8CFB5
:1008D0008091E8008E77ECCF982F9093E900242F39
:1008E000762F50E0891731F07091EC002091ED00E7
:1008F0005091F00021FD07C09F5F973071F7809302
:10090000E90081E008953091EB003E7F3093EB00E9
:100910003091ED003D7F3093ED003091EB00316080
:100920003093EB007093EC002093ED005093F000B7
:100930002091EE0027FDE0CF80E00895B0E0A0E038
:10094000E4EAF4E00C94801DC8EDD0E088818F7E4D
:100950008883E7EDF0E080818160808384E082BF5E
:1009600081E080937B0288818E7F888302EE10E095
:10097000F80110821092DA0081EEC82ED12CF60117
:10098000108288818F7788838881806888838881B6
:100990008F7D888319BC1092AA021092A102109236
:1009A000A00210929F0290EEE92EF12CF7018081B7
:1009B0008B7F808388818160888342E060E080E073
:1009C0000E946C04F60180818E7F8083F801808113
:1009D00081608083808188608083F70180818E7F41
:1009E0008083888180618883CDB7DEB7E8E00C948E
:1009F0009C1DFC018091A8029091A902861797077F
:100A0000A0F06115710529F49091E8009E7790930C
:100A1000E80090E06115710551F4911108C08091D2
:100A2000E80082FF34C080E00895BC01F2CF8091DD
:100A3000AA028823C1F18530C1F18091E80083FDCD
:100A400030C08091E80082FDEACF8091E80080FF0D
:100A5000E1CF8091F3002091F200382F61157105EC
:100A600019F02830310558F091E02830310509F0AF
:100A700090E02091E8002E772093E800CBCF819181
:100A80008093F100615071092F5F3F4FE7CF809154
:100A9000AA02882341F0853041F08091E80083FF6D
:100AA000BECF81E0089582E0089583E0089508951F
:100AB00080917E020895209114012223C9F0209193
:100AC000760227FF15C0E62FE695E695E695EE310E
:100AD000D8F4E80FF92FF11D677021E030E001C074
:100AE000220F6A95EAF720958281282322830895B0
:100AF000FC01329608962191621303C0DF01119721
:100B00001C92E817F907B9F7089520917002309107
:100B100071022817390771F0909371028093700267
:100B2000E0916E02F0916F02309721F00084F18520
:100B3000E02D0995089520916C0230916D022817DF
:100B4000390771F090936D0280936C02E0916E0210
:100B5000F0916F02309721F00680F781E02D099522
:100B60000895E0916E02F0916F02309729F00190A4
:100B7000F081E02D0995089580E00895A5E0B0E0AA
:100B8000E4ECF5E00C94861D6B837C838D838C8173
:100B90009D81892B21F0CA0189238F3F31F480E0A8
:100BA00081702596E2E00C94A21D8B81F9CF80E044
:100BB00008959091760292FF06C0282F2871283060
:100BC000F9F4877F846093FF06C0282F28712831AD
:100BD000F1F4877E84612091770220FF06C0382FD0
:100BE00038713830D9F4877F816021FF06C0282F03
:100BF00028712831D1F4877E816194FD877E089524
:100C0000282F24712430F9F68B7F8860DCCF282FC1
:100C10002471243101F78B7E8861DDCF382F31714B
:100C2000313019F78E7F8860E0CF282F2171213174
:100C300021F78E7E8861E1CF972F7E30A8F4663051
:100C400098F470E026E0929F600D711D1124FB0165
:100C500094E5899FE00DF11D1124EE0FFF1FE45173
:100C6000FF4F85919491089580E090E00895CF938F
:100C7000DF93EC0182389105A9F1D8F58133910514
:100C800009F496C048F58932910509F48AC08A971B
:100C900009F495C0C11522E5D20708F0B6C0C11508
:100CA00031E5D30708F026C1C83ED10508F09CC045
:100CB000C03ED10560F5C83AD10508F087C0C53AF5
:100CC000D10508F0EFC0C130D10509F12097F9F046
:100CD000C430D105E0F440C08533910509F45AC011
:100CE000C997C1F680917602837089F0C0EED0E09A
:100CF0000EC0833E910599F170F4803E910501F19B
:100D0000823E910539F68091760282FD21C0CE01A6
:100D1000DF91CF910895863E910561F1873E91055F
:100D200071F1843E910509F0B5CF8091770281FF82
:100D3000EECF80917602C7EED0E084FD0DC0E7CF04
:100D40008091760280FD07C19091770290FFDFCFFE
:100D5000C3EED0E084FFDBCFD0E0C0E0D8CF8091FD
:100D6000760282FDFBC09091770290FDBFCF84FF99
:100D7000CECFF2CF8091760283FDDDCFC8CF8091B8
:100D8000760283FDEEC09091770291FFF0CFC4EE22
:100D9000D0E0BDCF8091760285FFB9CFC9E2D0E027
:100DA000B6CF8091760285FFB2CFC5E3D0E0AFCF5A
:100DB0008091760286FFABCFCAE2D0E0A8CF8091C7
:100DC000760286FFA4CFC1E3D0E0A1CFCF3BD1050F
:100DD00018F6C85AD0E0CC0FDD1FC55CDE4F099075
:100DE000D881C02DD46493CFC11540E5D40708F055
:100DF00064C0C11580E4D80708F05CC0CE019A95A4
:100E000081159F4108F483CFA7CFC11536E5D307DD
:100E100018F5C11545E5D40708F084C0C11584E56F
:100E2000D80708F07AC09C2F969596959E0123705E
:100E30003327C115D34508F462C0C1E0D0E002C039
:100E4000CC0FDD1F2A95E2F730E2939FC0011124F9
:100E5000C82BD92BDA685BCFC1158AE5D80778F49F
:100E6000C11599E5D90708F068C0C11528E5D20772
:100E700008F472CFDC2FCC27C06FD06A48CFCE01E8
:100E800090568115904208F067CF8D2F8F710E9488
:100E9000D90590E0982F882788279F719C012C2BDB
:100EA000E90149C0C55AD0E0C85CDE4FC881D0E036
:100EB000D0642DCFDF70D06A2ACFCE01E4E09695C2
:100EC0008795EA95E1F783702C2F26952695237058
:100ED00040E2249F90011124382B8C2F8370C1E0B5
:100EE000D0E002C0CC0FDD1F8A95E2F7C22BD32BD6
:100EF000DC680DCFDC2FCC27C16FD06A08CFC1E0F2
:100F0000D0E002C0CC0FDD1F2A95E2F720E2929FCD
:100F1000C0011124C82BD92BEBCFDC2FCC27C46FF9
:100F2000D06AF5CE8C2F0E94D905C82FD0E0DC2FD7
:100F3000CC27CC27DF71D062EACE8C2F8F700E9435
:100F4000D90534E0D695C7953A95E1F7CF709C2F37
:100F5000EC01D069DCCEC9E3D0E0D9CEC2EED0E05E
:100F6000D6CEC6EED0E0D3CE80911F028111109272
:100F70001F020895809590917C02982390937C02A3
:100F800008958091FC019091CB01981301C00895C0
:100F90008F5F8770FACFB0E0A0E0E1EDF7E00C944E
:100FA0007F1D8C01C0902802D0902902E0902A0277
:100FB000F0902B028091200290912102A0912202B8
:100FC000B0912302C82AD92AEA2AFB2ACFE1D0E02D
:100FD000BC2ED701C6010C2E04C0B695A7959795D7
:100FE00087950A94D2F780FD09C0219788F7B12C24
:100FF0008B2DCDB7DEB7E9E00C949B1DB8018C2F8B
:101000000E941C060E943706019779F3F1CFCF9317
:10101000DF93EC010E94CB07BE010E941C060E94D8
:101020003706DF91CF910895292F9E3080F58630C5
:1010300070F590E036E0239F800D911D1124682FFC
:10104000677023E0969587952A95E1F725E0289F1C
:10105000F001299FF00D1124E257FE4F50E040E0CF
:1010600080E0219130E0062E02C0369527950A9443
:10107000E2F721703327042E01C0220F0A94EAF709
:10108000822B4F5F5F4F4530510559F7089580E03F
:101090000895292F9E30A0F5863090F590E036E037
:1010A000239F800D911D1124282F277041E001C03E
:1010B000440F2A95EAF723E0969587952A95E1F75C
:1010C00025E0289FF001299FF00D1124E257FE4FE3
:1010D00030E020E070E05191DF011197CB01022E4A
:1010E00002C0969587950A94E2F7817081958527CD
:1010F000842385278C932F5F3F4F2530310559F787
:101100000895FC01808191810E94070892959F704B
:10111000963091F058F4925F9F70923058F4803F6F
:1011200019F030F4883E30F481E008959A5FF4CFEE
:10113000843FD1F380E00895883EB0F3813FD1F73A
:10114000F3CF27982F98089526982E9808952598DC
:101150002D98089556985E980E94A7080E94A408AA
:101160000E94A108089520982898219829982298EB
:101170002A9823982B9852985A9853985B983E989F
:1011800046980895CF93C091E9002091EC00922FEA
:10119000917020FD90E82091250120FF12C0CF70B2
:1011A000C92B909116019F709093E9009091EB00EC
:1011B00090FF04C09091EE0097FD05C0CF70C093E2
:1011C000E900CF9108959FEF2091E800915025FD0F
:1011D00006C025ED2A95F1F700009111F5CF809317
:1011E000F10085E191E00E94F1038091E80080FF29
:1011F000E5CF8091E8008E778093E800DFCF809381
:10120000780270937A02609379028091AA02843006
:1012100001F582E08093E9008FEF9091E800815022
:1012200095FD06C095ED9A95F1F700008111F5CF77
:101230008091E80085FF0DC050E040E063E070E081
:1012400088E792E00E9423048091E8008E778093E3
:10125000E8000895BC0184E00E94FF080895BC01E5
:1012600083E00E94FF080895CF93DF93EC01809103
:1012700014018823B1F18091760287FF32C060E2C9
:1012800082E08093E9008FEF9091E800815095FD16
:1012900006C095ED9A95F1F700008111F5CF809188
:1012A000E80085FF1BC08091140170E050E040E031
:1012B000811104C050E040E068E070E0CE010E947F
:1012C00023048091E8008E778093E80080E2FE019D
:1012D000AFE7B2E001900D928A95E1F7DF91CF91EF
:1012E000089568E081E0CDCFEF92FF920F931F93B6
:1012F000CF93DF930E94AA0888E8E82EF12C8FEFA5
:1013000090E0F701918380830AE810E0F80191836F
:101310008083CCE8D0E099838883259A2D9AFFEFCB
:1013200020E782E0F15020408040E1F700C000005B
:10133000269A2E9A9FEFE0E7F2E09150E040F040CD
:10134000E1F700C00000279A2F9A2FEF80E792E084
:10135000215080409040E1F700C000000E94A708A3
:10136000EFEFF0E722E0E150F0402040E1F700C06D
:1013700000000E94A4088FEF90E7E2E081509040C7
:10138000E040E1F700C000000E94A1088091240223
:101390008770FFEF8F9FC0011124959587959595D4
:1013A00087959927F70191838083F8019183808342
:1013B000998388830E94AA08CDB7DEB7E6E00C9433
:1013C0009E1D86E0E5E6F2E0DF01982F1D929A95DA
:1013D000E9F7EFE5F2E0DF011D928A95E9F708955C
:1013E000CF93C82F0E94E109C0936B026C2F8DE050
:1013F00090E00E940B1FCF91089568EE7EEF90E081
:1014000080E00E94291F60E082E090E00E940B1FB4
:1014100060E083E090E00E940B1F10922002109287
:101420002102109222021092230260E084E090E0F8
:101430000E940B1F64E082E290E00E940B1F60E0BC
:1014400085E090E00E940B1F60E086E090E00E9443
:101450000B1F6FEF87E090E00E940B1F40E050E011
:10146000BA0188E090E00E941D1F60E08DE090E0EE
:101470000E940B1F40E050E0BA0188E190E00E941A
:101480001D1F60E087E190E00E940B1F40E050E0EC
:10149000BA018CE190E00E941D1F70E060E080E2E4
:1014A00090E00E94291F40E050E0BA0188E190E0FE
:1014B0000E941D1F109224021092250210922602F3
:1014C0001092270284E080932402409124025091DC
:1014D000250260912602709127028FE090E00E9421
:1014E0001D1F40E050E0BA0183E190E00E941D1F03
:1014F000089580917C0290911E02892B80936C014B
:1015000090911F029923A1F0892B80936C01809107
:1015100014018823E1F18091760287FF38C08EE1C3
:10152000EEE6F1E090E08150A0F591110E94B40741
:1015300040E250E06EEF71E08CE691E00E94EA1E1E
:10154000892B21F180E2ECE6F1E0AEEFB1E0019011
:101550000D928A95E1F7E0916E02F0916F0230975B
:10156000A9F080911401882359F08091760287FFB9
:1015700007C080916C0180936D0186E080936C01BF
:101580000280F381E02D8CE691E00995089586E0D4
:10159000C7CF2191222339F29F5FC5CF90E080E031
:1015A0000E949B0590E080E00E94850510921E023B
:1015B0000E94790A0895609328027093290280930B
:1015C0002A0290932B020E94CE0A08950F931F9334
:1015D00041E050E060E070E004C0440F551F661F1A
:1015E000771F8A95D2F7CB01BA01609570958095E7
:1015F0009095009128021091290220912A023091A1
:101600002B0260237123822393230E94DB0A1F9104
:101610000F9108959091FD01809589238093FD019C
:10162000282F277091F4282F082E000C330B9217C7
:10163000130659F09091770292FF07C08595859522
:1016400085950E94E60A1092FD010895CF93C091FE
:101650007702C2FB992790F9981791F080FBC2F9A5
:10166000C09377026091760284E090E00E940B1FA5
:101670006C2F82E290E00E940B1F82E00E940A0B16
:10168000CF9108950F931F9341E050E060E070E028
:1016900004C0440F551F661F771F8A95D2F78091AB
:1016A000280290912902A0912A02B0912B028A016E
:1016B0009B01082B192B2A2B3B2BC901B8010E9437
:1016C000DB0A1F910F91089560932002709321020D
:1016D00080932202909323020E94CE0A0895809163
:1016E0001401EEE6F1E0882361F08091760287FF35
:1016F00008C08EE1DF011D928A95E9F70E94CE0AAB
:10170000089586E0F7CFAAE2B0E0E9E8FBE00C94A8
:10171000851D82EA92E02091F100FC012193CF0126
:10172000F2E08A3A9F07B9F78091A302833009F467
:10173000B9C008F04CC0813009F47FC0823009F490
:10174000FBC08091E80083FF9CC02091150180912F
:10175000A6029091A7022817190609F092C080915D
:10176000A302813209F408C108F0F7C0803209F001
:1017700088C08091A202813209F083C08091E80084
:10178000877F8093E8008091E80082FF32C130912A
:10179000F1002091F1009091F1008091F1003093DF
:1017A000290120932A0190932B0180932C01809191
:1017B000F10080932D018091F10080932E018091A2
:1017C000F10080932F018091E8008B770DC18A3062
:1017D00009F4A1C08B3009F482C0893009F0B1CF7F
:1017E0008091A202813209F0ACCF8091A602909143
:1017F000A702029708F0A5CF8091E800877F809329
:10180000E8008091E80082FF38C09091F300809159
:10181000F200029731F48091F100813011F08630AE
:1018200021F48091F10080937E028091E8008B7713
:101830008093E8000E944D0484CF8091A202813AF7
:1018400009F07FCF8091E800877F8093E800809146
:10185000A6029091A702892B61F460E28FE792E0E3
:1018600070E00E94F9048091E8008B778093E80093
:1018700068CF60E090E080E0F3CF8091AA02811110
:10188000C0CF8091E80083FF9EC28091A202909118
:10189000A3029A3008F097C2E92FF0E0EF5BF04E18
:1018A0000C94B91D8091A202813A09F04ACF80912F
:1018B000A6029091A702892B09F043CF8091E800FE
:1018C000877F8093E8008091E80080FFFCCF8091C3
:1018D00014018093F1008091E8008E77A9CF809168
:1018E000A202813209F02DCF8091A6029091A70229
:1018F000892B09F026CF8091E800877F8093E8004C
:101900000E944D048091A4028093140110927C02E5
:101910000E946F0B16CF8091A202813209F011CF85
:101920008091E800877F8093E8000E944D048091B9
:10193000A50280937D0205CF8091A202813A09F031
:1019400000CF8091E800877F8093E8008091E800D5
:1019500080FFFCCF80917D02BCCF823209F44EC063
:10196000833209F08ECF8091A202813209F089CFB3
:101970008091E800877F38C08091A202813A09F007
:1019800080CF8091E800877F8093E8008091E80015
:1019900080FFFCCF8091290190912A01A0912B0119
:1019A000B0912C018093F100492F5A2F6B2F77278C
:1019B0004093F100AD01662777274093F1008B2F0C
:1019C0009927AA27BB278093F10080912D0180934E
:1019D000F10080912E018093F10080912F0180937E
:1019E000F1008091E8008E778093E8000E944D041A
:1019F00048CF8091AA028111C6CE43CF8091A20226
:101A0000813209F03ECF8091E800877F8093E80023
:101A10000E944D048091A4029091A502909326010A
:101A2000809325012ECF803899F0823809F0CBC100
:101A30008091A6028F70873008F0C5C18093E900BD
:101A40008091EB0085FB882780F91092E90006C0A1
:101A500080919F029091A002911182609091E80084
:101A6000977F9093E8008093F1001092F1008091AD
:101A7000E8008E77A4C1882309F492C1823009F06E
:101A8000A2C18091A402811195C18091A6028F709C
:101A90002FEF280F263008F096C18093E90020919F
:101AA000EB0020FF87C1933031F48091EB0080621E
:101AB0008093EB007FC19091EB0090619093EB00DD
:101AC00021E030E001C0220F8A95EAF72093EA0076
:101AD0001092EA008091EB008860EACF811173C117
:101AE0001091A4021F778091E3008078812B80936E
:101AF000E3008091E800877F8093E8000E944D0416
:101B00008091E80080FFFCCF8091E30080688093A3
:101B1000E30082E0111183E08093AA0254C180584F
:101B2000823008F050C18091A4029091A5028C3DB2
:101B300023E09207A1F583E08A838AE289834FB785
:101B4000F894DE01139620E03EE051E2E32FF0E04E
:101B500050935700E49120FF03C0E295EF703F5F80
:101B6000EF708E2F90E0EA30C0F0C7968D939D9372
:101B70002F5F243159F74FBF8091E800877F809312
:101B8000E8006AE270E0CE0101960E94F9048091BB
:101B9000E8008B778093E80016C1C096E7CF4091AC
:101BA000A6025091A702292F33272330310509F4CB
:101BB00044C078F52130310509F46FC088E790E022
:101BC000E1E3F6E02230310509F0FDC02091E800A4
:101BD000277F2093E8002091A8023091A902821764
:101BE000930708F49C0140E02115310509F064C019
:101BF000411162C08091E80082FDC9CF8091AA02A4
:101C0000882329F2853019F28091E80083FFF2CF12
:101C1000BECF21323105A9F12232310509F0D3C0FE
:101C20004115510509F443C04130510509F0CBC0BD
:101C30008DE690E0E4E8F5E0C9CF99278130910581
:101C4000C1F0009759F0029709F0BDC0EBEBF6E048
:101C5000E4918E2F90E0EBEBF6E007C0EDEFF6E0BD
:101C6000E4918E2F90E0EDEFF6E0009709F4ABC021
:101C7000ADCFE3EDF6E0E4918E2F90E0E3EDF6E0FA
:101C8000F4CF4115510571F04130510509F09BC069
:101C900089E090E0ECE5F6E099CF82E190E0E9EAB6
:101CA000F6E094CF89E090E0E3E4F6E08FCF80E4C3
:101CB00090E0E1EFF5E08ACF8091AA02882309F451
:101CC00066CF853009F463CF8091E80083FD5FCF54
:101CD0008091E80082FD8ECF8091E80080FF84CF64
:101CE0009091F3008091F2002115310519F08830B0
:101CF000910550F041E0089709F040E08091E8003C
:101D00008E778093E80070CF44914093F100319634
:101D1000215031090196E8CF803809F054C08091F4
:101D2000E800877F8093E8008091A1028093F10012
:101D30009ECE811148C01091A402123008F043C019
:101D40008091E800877F8093E8001093A1020E94B1
:101D50004D04112311F084E005C08091E30087FD5C
:101D6000FACF81E08093AA0242E061EC81E00E9418
:101D70006C0442E261EC82E00E946C0442E061EC9F
:101D800083E00E946C0442E160E885E00E946C04FC
:101D900042E161E884E00E946C048091AA0213C0D1
:101DA0008091A402813079F481E0933009F080E0E1
:101DB0008093A0021092E9008091E800877F8093D1
:101DC000E8000E944D048091E80083FF0AC08091E2
:101DD000E800877F8093E8008091EB008062809329
:101DE000EB00AA96E3E00C94A11D10927C020E94E5
:101DF0006F0B2FEF84E39CE0215080409040E1F78F
:101E000000C0000088E19AE00FB6F894A89580938E
:101E100060000FBE90936000FFCF882321F00E94E6
:101E2000BA070E94790A0895882339F090917C02BC
:101E3000982B90937C020E94790A0895882351F18F
:101E40009CEF980F913A40F4682F8CE691E00E9445
:101E50005B050E94790A089590E2980F983050F43B
:101E6000877091E001C0990F8A95EAF7892F0E9447
:101E7000BA07EFCF9BE5980F933028F490E080E00D
:101E80000E949B050895885A873120F490E080E0F5
:101E90000E9485050895CF93C82F882309F445C073
:101EA0008CEF8C0F813A08F068C080911401882370
:101EB000F1F18091760287FF3AC0EC2FE695E69526
:101EC000E695F0E0E459FE4F828190E04C2F477098
:101ED00021E030E002C0220F331F4A95E2F782234F
:101EE0009323892B61F06C2F8CE691E00E945B05B7
:101EF0000E94790A26C08091760287FF26C0AC2F07
:101F0000A695A695A695B0E0A459BE4FC77021E04E
:101F100030E001C0220FCA95EAF712968C91129711
:101F2000822B12968C930E94790ACF910895EEE647
:101F3000F1E084E791E02191C217A9F28E179F0783
:101F4000D1F7809114018111D6CFAEE6B1E0EFEF69
:101F500080E09D91C91739F3EF3F19F4911101C049
:101F6000E82F8F5F8630A9F7EF3FE9F20E2E000CC5
:101F7000FF0BE459FE4FC283D6CF80E28C0F88302E
:101F800068F4C77021E030E001C0220FCA95EAF77B
:101F900080917C02822B80937C02C5CFEBE5EC0F15
:101FA000E33040F4F0E0E85CFE4F808190E00E9476
:101FB0009B05BBCFC85AC73108F0B7CFEC2FF0E074
:101FC000EE0FFF1FE55CFE4F808191810E94850529
:101FD000ACCFCF93C82F873078F5809112019091C4
:101FE0001301892B39F564E670E080E40E949D1CA2
:101FF0009093130180931201892BD1F464E670E071
:1020000082E10E940B1D9093130180931201892B92
:1020100079F481E090E001C0880FCA95EAF764E6A0
:1020200070E080950E940B1D909313018093120124
:102030000E945E1DCF9108958A30B1F038F4883047
:1020400069F0893071F0209A2898F4CF8C3091F0A3
:1020500070F08D30C1F73E9A4698ECCF219A2998BE
:10206000E9CF229A2A98E6CF239A2B98E3CF529A67
:102070005A98E0CF539A5B98DDCF80E290E090933E
:1020800013018093120180918C0181110EC00E9476
:10209000971C81E080938C012FEF83ED90E321501A
:1020A00080409040E1F700C0000064E670E080E40A
:1020B0000E949D1C9093130180931201892B09F0BB
:1020C0004EC064E670E080E00E940B1D9093130107
:1020D00080931201892B09F042C064E670E080E031
:1020E0000E940B1D9093130180931201892BB9F567
:1020F00064E670E08FE30E940B1D909313018093C0
:102100001201892B61F50E945E1D64E670E080E497
:102110000E949D1C9093130180931201892BF9F466
:1021200064E670E08CE00E940B1D90931301809395
:102130001201892BA1F464E670E080E00E940B1D7F
:102140009093130180931201892B49F464E670E0A7
:102150008FE30E940B1D90931301809312010E9444
:102160005E1D809112010895CF93873050F58091C4
:10217000120190911301C0E0892B71F464E670E0C4
:1021800081E40E949D1C9093130180931201892B7E
:1021900031F0C0E00E945E1D8C2FCF91089584E63F
:1021A00090E00E943A1D97FF05C090931301809321
:1021B0001201EFCFC82FC095109213011092120197
:1021C000E9CFCFB18FB1869586958C73C3708C2B78
:1021D000C82FC095E1CF1F920F920FB60F92112416
:1021E0002F933F934F935F936F937F938F939F931F
:1021F000AF93BF93CF93DF93EF93FF93D091E90019
:10220000DF708091EC00C82FC17080FDC0E8109293
:10221000E9008091F000877F8093F00078940E941D
:10222000830B1092E9008091F00088608093F000A9
:10223000CD2BCF70C093E900FF91EF91DF91CF914B
:10224000BF91AF919F918F917F916F915F914F91CE
:102250003F912F910F900FBE0F901F9018951F92D6
:102260000F920FB60F9211242F933F934F935F93CA
:102270006F937F938F939F93AF93BF93EF93FF934E
:102280008091E10082FF09C08091E20082FF05C0D9
:102290008091E1008B7F8093E1008091DA0080FFE4
:1022A00024C08091D80080FF20C08091DA008E7F0A
:1022B0008093DA008091D90080FFA3C080E189BDBE
:1022C00082E189BD09B400FEFDCF81E08093AA02BE
:1022D00080917B02811109C00E94A1030E949E048B
:1022E0008091E20084608093E2008091E10080FFB1
:1022F00017C08091E20080FF13C08091E2008E7FC2
:102300008093E2008091E20080618093E2008091FE
:10231000D80080628093D80019BC85E08093AA021F
:102320008091E10084FF31C08091E20084FF2DC0E4
:1023300080E189BD82E189BD89B5982F917080FFC8
:10234000FBCF8091D8008F7D8093D8008091E100F1
:102350008F7E8093E1008091E2008F7E8093E20087
:102360008091E20081608093E2008091A102882345
:1023700009F44DC084E08093AA0210927C020E946E
:102380006F0B0E94B1058091AA028091E10083FF4A
:1023900027C08091E20083FF23C08091E100877F06
:1023A0008093E10082E08093AA021092A1028091C2
:1023B000E1008E7F8093E1008091E2008E7F809328
:1023C000E2008091E20080618093E20042E060E000
:1023D00080E00E946C048091F00088608093F0009F
:1023E000FF91EF91BF91AF919F918F917F916F91ED
:1023F0005F914F913F912F910F900FBE0F901F90C3
:10240000189519BC1092AA0210927B026ECF80918F
:10241000E30087FD93E09093AA02AFCF78941F92D8
:102420001FB61F9211248F939F93AF93BF938091F8
:10243000720290917302A0917402B091750201969C
:10244000A11DB11D8093720290937302A093740238
:10245000B0937502BF91AF919F918F911F901FBE56
:102460001F9018959C014FB7F8948091720290913B
:102470007302A0917402B09175024FBF821B930B3F
:1024800008952FB7F8948091720290917302A091F1
:102490007402B09175022FBF08950F931F93CF93CD
:1024A000DF93C62FD42F022FFC0182818823A9F04D
:1024B0006093AD020E9441129093AC028093AB02F4
:1024C000C77081E001C0880FCA95EAF70E94140F17
:1024D000DF91CF911F910F9108958091AD02681304
:1024E00035C08091AB029091AC020E943212883CC0
:1024F000910560F510E21D0FCD17B9F080E28C0F49
:10250000883040F4C77081E001C0880FCA95EAF7AF
:102510000E940D0F183048F481E09D2F977001C084
:10252000880F9A95EAF70E94140F802F0E944B0F94
:10253000802F0E941E0F183058F6D77081E001C01E
:10254000880FDA95EAF70E940D0FC2CFC77081E0BD
:1025500001C0880FCA95EAF7F6CFA5E0B0E0E3EB3B
:10256000F2E10C94781D7C01FC0183819481892B1C
:1025700031F08081918189238F3F09F0A0C4259695
:10258000E0E10C94941D0E94CB07182F682F8981DD
:102590009A810E94490869817A81812F0E941C06D4
:1025A0008C018F3AFDE59F0709F091C0F701828108
:1025B000882379F18091240291E0980F9770887FA9
:1025C000953008F4892B809324028091240287702F
:1025D000FFEF8F9FC001112495958795959587955D
:1025E0009927909389008093880090938B00809323
:1025F0008A0090938D0080938C004091240250912A
:10260000250260912602709127028FE090E00E94DF
:102610001D1FF7018281882391F01092AD020C35C5
:10262000FDE51F0709F4EAC108F08FC101153CE57B
:10263000130709F497C10F3D1C4509F4D2C1F701F6
:10264000828100811181882309F4DCC1C8010E94C4
:10265000CB07D82E682FC8010E944908B8018D2DDC
:102660000E941C060E9437068C01882EF701D2803A
:10267000958092943FE093228091FD018770C1F094
:10268000BD2CDD20B1F0812F807F803421F080E2ED
:10269000800F883068F08091770282FF09C082E065
:1026A0000E940A0B8091FD018770BB24B3948111B5
:1026B000B12CA12EA2942FE0A222FBE0FA1508F47F
:1026C00006C2EA2DF0E0E55BF04E0C94B91D8337AD
:1026D0009105D9F5F7018281882309F180912802BB
:1026E00090912902A0912A02B0912B020097A10596
:1026F000B10539F1B695A7959795879580FF21C0CB
:1027000081E00E94E60A80EE0E944B0F8CE20E945C
:102710004B0F8CE20E941E0F80EE0E941E0F8091D4
:10272000FD01877009F42BCFF7018281882309F41A
:1027300026CF8091770282FF22CF82E00E940A0B8F
:102740001ECF81E00E94420BDECF8033FAE59F0767
:1027500089F100F59A558A97E0F1043FFCE51F07DF
:1027600009F4E4C008F0D0C0093D3CE5130709F4C2
:10277000D9C00A3D8CE5180709F4E4C0083D9CE582
:10278000190709F046CF26E241EE61EEC7010E942B
:102790004D12C5CF81339A4501F7F7014081518130
:1027A0006281738184810E94BE05882309F4B7CFBA
:1027B00081E00CC0F7014081518162817381848185
:1027C0000E94BE05882309F4AACF80E00E94F00988
:1027D000A6CFD0906B02F701408151816281738155
:1027E00084810E94BE05482FDD20A1F0F1E0DF16B4
:1027F00099F110918D01F7014081518162817381BE
:1028000084810E94BE05882309F449C01F5F10938C
:102810008D0185CFF801FF27E455FF4F9491A92F33
:10282000A295A695A695A370B0E0882371F09D01AE
:102830002B593D4FF9018081892B8083A15ABD4FCF
:102840000C91E92FE02BEC93D4CFAB59BD4FE92F7E
:10285000E0950C91E023F7CF802F67E00E94AD1D3B
:10286000292FE82FF0E086E090E0821B910921E01B
:1028700030E001C0220F8A95EAF7DF01AB59BD4F66
:102880008C91442341F0822B8C93E15AFD4F80813F
:10289000282B2083AECF209528232C93AACF11502C
:1028A00011160CF4B4CF10928D01DD2031F0F1E05F
:1028B000DF16B1F00E94E10932CF0FE512E053E6D6
:1028C000C52E52E0D52EF80181918F0181110E9411
:1028D000C208C016D106B9F780E00E94C208EACF4C
:1028E00080915F02806880935F020FE512E045E609
:1028F000C42E42E0D42EF80181918F010E94C208BB
:10290000C016D106C1F7D6CF063FECE51E07B1F0E1
:1029100088F0073F2CE5120709F07BCE27E245EE51
:1029200066EE34CF27E245EE65EE30CF26E241EE8B
:1029300060EE2CCF27E245EE64EE28CF26E241EE92
:1029400062EE24CF28E241E0EFCF0E359DE5190776
:1029500009F44AC008F454C0093A1D4509F06FCE85
:102960000E94F50E10927C020E946F0B2FEF34E351
:102970008CE0215030408040E1F700C00000F89426
:1029800081E08093E00080E28093D8001092C9003B
:10299000EFE1FEE43197F1F700C000001DBA10929C
:1029A00068001CBC10BE1FBA10927A0010926E0014
:1029B00010926F0010927100109272001092C90074
:1029C0001092BC0014B817B81AB81DB810BA1092FB
:1029D000BC0015B818B81BB81EB811BA0C94003F4B
:1029E0009ECE0E94FD09BCCF8091770282FB882792
:1029F00080F991E089270E94260B21CE81E0FBCF50
:102A000080E0F9CFC8010E941408D82E27CE212FCC
:102A10002F70C22E107F19F0C29490EFC922DD20D2
:102A2000B9F0CC2069F080E2800F883010F081107E
:102A300009C080917C02C82AC0927C020E94790A57
:102A4000802F43C080911E02C82AC0921E02F6CF7A
:102A5000802F0E941E0FCC20D1F1005E083010F0B4
:102A6000811004C08C2D0E94BA0706C0C0948091CA
:102A70001E02C822C0921E020E94790A28C0312F6D
:102A80003F70C32E107F103219F0C29480EFC8221D
:102A9000882059F081E0881609F472C0DD2009F41D
:102AA0007AC0992009F472C0CBCF2091770222FD21
:102AB00044C0DD20E1F1CC2039F080917C02C82AAD
:102AC000C0927C020E94790A80E00E944B0F2A2D5E
:102AD0002850330B2430310510F40E94B105BB207F
:102AE000A9F08091FD0180FD11C0F701128285954A
:102AF000859585950E94420BC7010E94AD12809179
:102B0000FD018595859585950E94E60A85E0F7018A
:102B1000DE01119601900D928A95E1F709811A81E3
:102B2000C8010E941408B8010E941C0628CD80E04C
:102B30000E941E0FCC2059F295CFDD20A1F090917C
:102B40001F028C2D892B911003C00E94140FBFCF40
:102B5000E1E09E12FACF22FFBACF891709F4B7CF6E
:102B600080931F02B4CF911006C00E94B4078C2D31
:102B70000E940D0FACCFF1E09F1609F4A8CFF5CF5E
:102B8000DD2031F021E0291508F4A1CF8C2DDDCF17
:102B900091109DCFECCF992051F339E3831288C176
:102BA0008FEF97EEE3E081509040E040E1F700C006
:102BB00000007EC1812F86958695837061F08130FB
:102BC00009F085CFC8019370D11002C090E080E079
:102BD0000E9485057CCFC8019370D11002C090E09F
:102BE00080E00E949B0573CF812F837009F066C03F
:102BF000D1106DCF802F829586958770880F880FB2
:102C0000602F6F70462E512C712C612C082E04C041
:102C1000440C551C661C771C0A94D2F740E050E027
:102C2000BA0104FF0FC04FE050E060E070E004C064
:102C3000440F551F661F771F8A95D2F74095509510
:102C400060957095812F869586958370823019F1F5
:102C5000D8F400912002109121022091220230919B
:102C60002302813069F04429552966297729CB014F
:102C7000BA0160237123822393230E94640B27CF20
:102C8000402A512A622A732ACB01BA016429752984
:102C900086299729F2CF4429552966297729009159
:102CA0002002109121022091220230912302CB01B7
:102CB000BA016027712782279327DFCF8695DD2011
:102CC00011F0812F8170882309F401CF802F829524
:102CD00086958770880F880F602F6F70462E512C55
:102CE000712C612C082E04C0440C551C661C771CEA
:102CF0000A94D2F740E050E0BA0104FF0FC04FE061
:102D000050E060E070E004C0440F551F661F771F5D
:102D10008A95D2F74095509560957095812F86954C
:102D200086958370823019F1D8F4009128021091B1
:102D3000290220912A0230912B02813069F0442926
:102D4000552966297729CB01BA0160237123822393
:102D500093230E94DB0ABBCE402A512A622A732A9F
:102D6000CB01BA016429752986299729F2CF442914
:102D7000552966297729009128021091290220916E
:102D80002A0230912B02CB01BA01602771278227DA
:102D90009327DFCF1F70DD2029F0812F0E94420B87
:102DA000802FD3CE802F0E940D0F812F0E94E60A24
:102DB0008ECE802FF2EF8F1609F43DC0F81570F01B
:102DC00020EF8216D1F031EF831691F0DD2009F467
:102DD0006AC0911035CE812F8F7131C093EF891663
:102DE00089F1E4EF8E12F2CF8091770282FD3DC02F
:102DF000812F8F71DD20D1F222C0DD20B9F091103A
:102E000066CE1F7161E070E080E090E004C0660F64
:102E1000771F881F991F1A95D2F7009128021091E9
:102E2000290220912A0230912B02AFCFF1E0F9154F
:102E300008F44DCEE6CF812F8F71D110B7CF0E940D
:102E4000420B45CE60E070E0CB01DD2009F481CF7C
:102E50001F7161E070E080E090E004C0660F771FB2
:102E6000881F991F1A95D2F774CFDD2089F01F7142
:102E7000812F0E94420B8091770282FF07C028E0D9
:102E8000129FC001112483608093FD01812FD7CF51
:102E900081E00E940A0B31E0391508F018CE82E07B
:102EA0000E940A0B14CE992039F0893309F478CEA8
:102EB000802F0E941E0F0BCE812F8F7177CF85E060
:102EC000DE01119601900D928A95E1F7F7012281BA
:102ED00089819A81211157CB0E941408182F5BCB4E
:102EE0001F93CF93DF938091CA01807F09F049C07F
:102EF0008091C701882309F444C08091FC01D091DE
:102F0000CB016091C5017091C601A091C801B0913B
:102F1000C901C62FC72316E0D81799F190E0109782
:102F200011F0CF3F19F401968770F6CF189F9001EA
:102F3000199F300D1124F901E453FE4F41814713CD
:102F4000F2CF40814613EFCF42814111ECCF438154
:102F500054814A1B5B0B483C510528F78091CA01FC
:102F60008F7080618093CA01F901EF52FE4F80811A
:102F70008F708061808385EC91E00E94AD120E9489
:102F8000C107DF91CF911F910895A1E1B0E0EBEC73
:102F9000F7E10C947E1D8C0185E0F801DE011D96A1
:102FA00001900D928A95E1F7F801E28085ECA82E58
:102FB00081E0B82E6091C8017091C9016115710559
:102FC00009F426C19091C5014091C601892F84233F
:102FD0008F3F09F41DC120813181C380D480F090DE
:102FE000C701F601E61BF70BFF2009F4DCC0809156
:102FF000CA01582F507FE83CF10508F09FC05111DD
:103000006BC0FE2C431314C0921312C0E11010C009
:103010008F7080618093CA01C5010E94AD128091BA
:10302000CA01F80185838F2D6196EAE00C949A1D00
:10303000C114D10429F0822F83238F3F09F003C1EB
:1030400080E0F82FF170DF2E80FF3CC08091FC0102
:103050004091CB0156E0841315C02D873E878D85A6
:103060009E850E940708292F22952F702230F0F0AC
:10307000243018F59F70F1F0F8019581907FD1F41C
:10308000D12C1EC090E0589FF001599FF00D1124E3
:10309000E453FE4F6181361306C06081261303C0DE
:1030A0006281E6120FC001968770D5CF9F7011F034
:1030B000882331F3805E883018F3C8010E94AD1276
:1030C000FD2CB1CFEE2009F4AECF8091CA01816012
:1030D0008093CA01F12CA7CF431306C0921304C0FA
:1030E000F801EE2009F479C0C8010E948108882304
:1030F00009F1EE20F9F08091CA01803270F0209140
:10310000C5013091C60138872F831986DB86CA86B0
:103110008C87CE0107960E94AD1286E0F801A5ECDF
:10312000B1E001900D928A95E1F70E947017FF249B
:10313000F39479CFC8010E94AD12F9CF51110AC0A2
:1031400085EC91E00E94AD1286E0F50111928A951E
:10315000E9F7C0CF43130FC092130DC0E1100BC0AD
:10316000F8018583C8010E94AD1286E0F501119235
:103170008A95E9F758CFC8010E9481088823D1F2C7
:10318000EE20C1F28091CA01803238F22091C5014F
:103190003091C6013A8329831B82DD82CC828E83E3
:1031A000CE010196B8CFE83CF105F8F6FE2CEE20F2
:1031B00009F243131FC092131DC08091CA0180FD04
:1031C00010C0982F907F69F0F8018583903F31F00F
:1031D000982F907F905F8F70892B8583C8010E9404
:1031E000AD1286E0F801A5ECB1E001900D928A9550
:1031F000E1F719CFC8010E94810881118ECF80911B
:10320000CA0181608093CA01C8010E94AD120BCF30
:10321000EE2009F48FCFC8010E948108F82E882380
:1032200009F488CF86E0F801A5ECB1E001900D9299
:103230008A95E1F78091C5019091C6010E94070827
:103240000E947017F0CE81E08E25FBCEA7E1B0E0A2
:10325000ECE2F9E10C94851D4B8B5C8B6D8B7E8BC6
:103260008F8B611110921E021A8A198A85E0FE0165
:103270007396DE011D9601900D928A95E1F786E026
:10328000FE013D96DE01179601900D928A95E1F7B9
:10329000CE0107960E94C517882359F016E0809149
:1032A000FC019091CB01891345C06796E3E00C9433
:1032B000A11D86E0FE013796DE01119601900D9268
:1032C0008A95E1F78A859B85892B41F38F819885C3
:1032D00089238F3F19F32091CB0130E0C90101967A
:1032E000877099274091FC014817190681F41092C4
:1032F0007C020E946F0B1092CB011092FC0186E0C1
:10330000E5ECF1E0DF011D928A95E9F7C7CF96E081
:10331000929FD001939FB00D1124A453BE4FFE0184
:10332000319601900D929A95E1F78093CB010E941E
:10333000C107B4CF819FC001112484539E4F0E94C6
:10334000C517882309F4B1CF8091FC0190E0019664
:10335000877099278093FC01A2CF1F921FB61F92FE
:1033600011248F939F93AF93BF938091720290919A
:103370007302A0917402B09175024196A11DB11D16
:103380008093720290937302A0937402B0937502BB
:10339000BF91AF919F918F911F901FBE1F90189565
:1033A000CDB7DEB72D970FB6F894DEBF0FBECDBFF9
:1033B00085B7806885BF85B7806885BF84B7877FFC
:1033C00084BF0FB6F894A8958091600088618093BF
:1033D0006000109260000FBE80E890E00FB6F89495
:1033E00080936100909361000FBE87ED95E090930C
:1033F0006B0180936A010E94A1030E949E04809148
:10340000E20084608093E20078948091AA0288238D
:10341000A1F01091E9001F709091EC00892F81704C
:1034200090FD80E8182B1092E9008091E80083FD60
:103430000E94830B1F701093E90082E084BD93E02B
:1034400095BD9AEF97BD80936E000E943D1090E06D
:1034500090931301809312010E94B3088098889A78
:103460008198899A84988C9A85988D9A86988E9A54
:1034700087988F9AA1E4B2E0E3E3F2E011921D9203
:1034800022E0E134F207D1F78EE090E00E94BF1D08
:1034900080932D0290932E02FC010E961192E81754
:1034A000F907E1F789EA8093800089E08093810041
:1034B00024982C983F988AB18F7C8AB96E98479A45
:1034C0008BB180638BB9769A8FE090E00E94FF1EEB
:1034D0006093240270932502809326029093270222
:1034E00067704FEF649FB0011124759567957595CE
:1034F00067957727709389006093880070938B009D
:1035000060938A0070938D0060938C000E94740910
:1035100081E00E94F00990E080E00E94051F883E53
:103520009E4F11F00E94FD0982E090E00E94F71E7C
:1035300080934F0284E090E00E94F71E182F82E2F1
:1035400090E00E94F71E982F812F9093770280932E
:10355000760283E090E00E94F71E682F70E090E012
:1035600080E00E94640B90E080E00E94051F883E8E
:103570009E4F11F00E94FD098DE090E00E94F71E21
:1035800080936B0282E090E0909328018093270162
:103590008091AA02843079F58091290190912A01C5
:1035A000A0912B01B0912C01892B8A2B8B2B19F127
:1035B000809120018F708093E90088E0E0E3F1E0E2
:1035C000DE01119601900D928A95E1F750E040E0FE
:1035D00068E070E0CE0101960E94230450E040E0D4
:1035E00062E070E087E291E00E9423048091E800AD
:1035F0008E778093E80086E091E090936F0280934D
:103600006E022FE4E22E22E0F22E3EE1C32EDD24F4
:10361000DA948091120190911301892B91F080919D
:103620002C028F5F80932C0281110BC00E943D10F1
:1036300090E09093130180931201892B11F40E9462
:10364000740993E3A92E92E0B92E10E000E087E020
:10365000882E800E802F0E94E90F882D0E94E90F8E
:10366000802F0E94B4108F73F50191915F01912C0E
:10367000891721F03197808399249394882D0E9493
:10368000B4108F73F5019681891709F442C08683BF
:1036900081E08929182B0E94B3080F5F0730B9F623
:1036A00000913202002309F488C00E944112209147
:1036B000300230913102AC01421B530B9A019093BE
:1036C0003102809330024F3F510509F020F5452B20
:1036D000E9F01092320210922F02E0912D02F09147
:1036E0002E02AF01425F5F4F90E030E0819188236E
:1036F00031F0DF011197281788F01C92902FE41702
:10370000F507A1F73093320290932F02111164C094
:1037100057C080E0BECF2FEF30E0DBCF821B8C9311
:10372000302FEDCF9F5FBB0C963009F095C00F5F37
:103730001F4F0E30110509F084C0D986DA861B862A
:103740000E9441128160782F9D878C8749855A8518
:103750006B858D850E9426199CC09091F300209165
:10376000F200392F2115310509F4C1C09091AA0248
:10377000943001F581149104A104B104D9F080932F
:10378000E9009091E80092FF15C09091F3004091FC
:10379000F200592F452B11F09091F1009091F30018
:1037A0004091F200592F452B29F49091E8009B7726
:1037B0009093E80021503109D5CF012F111106C097
:1037C00080912F028823B9F1011106C00E94411295
:1037D0009093310280933002A0912D02B0912E027D
:1037E0008091320223E332E061E472E0FB01419117
:1037F000BF01F90191919F01491751F04C9141117D
:1038000007C0CC92AB0141505109FA01908381E08D
:103810001196E616F70651F780933202112359F0FC
:103820008FB7F894409172025091730260917402C4
:10383000709175028FBFE0E5F2E0A1E4B2E010E024
:1038400000E0302F8D919191981709F470CF292FB6
:10385000282790E0BB24B3944B2D422309F462CF78
:1038600099833A838B2191E009F490E09B830E9435
:1038700041128160782F9D838C8349815A816B81AD
:103880008D810E942619F801E05BFD4F8081B826EA
:10389000B0820E94B10590915E02891380935E020E
:1038A0008091AA02843019F58090290190902A0114
:1038B000A0902B01B0902C0181149104A104B104BB
:1038C000B1F080911B018F708093E9009091E80026
:1038D00092FF0DC09091F3002091F200392F232B1D
:1038E00009F03BCF8091E8008B778093E8008091CE
:1038F000AA02843009F08DCE8091290190912A018D
:10390000A0912B01B0912C01892B8A2B8B2B09F4D0
:1039100080CE809116018F708093E9008091E8003D
:1039200080FF77CE85E191E00E94F10372CE109284
:10393000B9008CE08093B8000895B0E0A0E0E3EA1D
:10394000FCE10C947D1DB82EEB010E9441126C012C
:10395000EE24E394F12CC431D10560F025E0E22E91
:10396000F12CCF3FDC0731F0CE0164E170E00E9422
:10397000621D7B0184EAA82E94E8992E1092BC0067
:10398000A092BC000E9441128C018091BC0087FF74
:103990000DC08091B900887F883001F18091B90015
:1039A000887F8031D9F00FEF1FEF09C00E944112CC
:1039B000801B910B8E159F0540F30EEF1FEFCF3F3D
:1039C000DC07E1F2C6010E9432128C179D07B0F2AB
:1039D000C801CDB7DEB7EBE00C94991DB092BB00E7
:1039E0009092BC000E9441128C018091BC0087FF24
:1039F0000AC08091B900887F883111F0803499F62F
:103A000010E000E0E5CF0E944112801B910B8E1563
:103A10009F0558F3D2CF0F931F93CF93DF93EB0102
:103A20008093BB0084E88093BC000E9441128C010B
:103A30008091BC0087FF11C02091B900287F81E0F0
:103A400090E0283211F490E080E091958195910901
:103A5000DF91CF911F910F910895CF3FDC0741F384
:103A60000E944112801B910B8C179D0708F38EEF6B
:103A70009FEFEECF0F931F93CF93DF93EC0184E87A
:103A80008093BC000E9441128C018091BC0087FF92
:103A900008C08091BB0090E0DF91CF911F910F9102
:103AA0000895CF3FDC0789F30E944112801B910BE0
:103AB0008C179D0750F38EEF9FEFEECF84E9809334
:103AC000BC000895AA1BBB1B51E107C0AA1FBB1F66
:103AD000A617B70710F0A61BB70B881F991F5A959A
:103AE000A9F780959095BC01CD0108952F923F9242
:103AF0004F925F926F927F928F929F92AF92BF92FE
:103B0000CF92DF92EF92FF920F931F93CF93DF93A9
:103B1000CDB7DEB7CA1BDB0B0FB6F894DEBF0FBE06
:103B2000CDBF09942A88398848885F846E847D8453
:103B30008C849B84AA84B984C884DF80EE80FD8055
:103B40000C811B81AA81B981CE0FD11D0FB6F894CB
:103B5000DEBF0FBECDBFED010895991B79E004C013
:103B6000991F961708F0961B881F7A95C9F78095BC
:103B70000895EE0FFF1F0590F491E02D09940F9327
:103B80001F93CF93DF938230910510F482E090E091
:103B9000E091B002F091B10230E020E0B0E0A0E0AE
:103BA000309799F42115310509F447C0281B390BCA
:103BB00024303105C0F58A819B816115710571F151
:103BC000FB0193838283FE0111C0408151810281F8
:103BD000138148175907F8F04817590799F41097B7
:103BE00061F012960C93129713961C933296CF01A4
:103BF000DF91CF911F910F9108950093B002109320
:103C0000B102F4CF2115310519F04217530718F40A
:103C10009A01BD01EF01DF01F801C2CF9093B1021B
:103C20008093B002D0CFFE01E20FF31F81939193F6
:103C30002250310939832883DACF2091AE023091A6
:103C4000AF02232B41F42091020130910301309304
:103C5000AF022093AE0220910001309101012115A5
:103C6000310541F42DB73EB7409104015091050153
:103C7000241B350B4091AE025091AF0242175307FF
:103C800008F0B5CF241B350B2817390708F4AFCF40
:103C9000BC016E5F7F4F2617370708F4A8CF640F6B
:103CA000751F7093AF026093AE02FA0181939193F6
:103CB0009ECFCF93DF930097E9F0FC0132971382F8
:103CC0001282C091B002D091B102DE0130E020E05A
:103CD0002097A1F420813181820F931F2091AE02A1
:103CE0003091AF022817390709F067C0F093AF028F
:103CF000E093AE02DF91CF910895DA01AE17BF07CE
:103D000008F040C012964D915C9113979D014115AA
:103D1000510599F7D9011396FC93EE9312974D91A3
:103D20005D91A40FB51FEA17FB0779F4808191819B
:103D30000296840F951FD90111969C938E938281D0
:103D4000938113969C938E931297B0E0A0E08A81A2
:103D50009B810097B9F5FE0181919191E80FF91FC0
:103D60008091AE029091AF028E179F0719F61097BF
:103D700061F51092B1021092B002D093AF02C093DD
:103D8000AE02B8CFB383A28340815181840F951FC7
:103D9000A817B90771F44E5F5F4F8D919C911197F1
:103DA000480F591F5183408312968D919C919383A4
:103DB00082832115310509F0ADCFF093B102E09374
:103DC000B00298CFDE01EC01C2CF13961C921E9276
:103DD0001297D3CFFB01DC0104C08D9101908019B3
:103DE00021F441505040C8F7881B990B0895F99968
:103DF000FECF92BD81BDF89A992780B50895A6E1BE
:103E0000B0E044E050E00C94311FA8E1B0E042E0A3
:103E100050E00C94311F262FF999FECF92BD81BD41
:103E2000F89A019700B4021639F01FBA20BD0FB6F8
:103E3000F894FA9AF99A0FBE08950396272F0E94D4
:103E40000C1F0E940B1F252F0E940C1F242F0C9467
:103E50000C1F0196272F0E940C1F0C940B1FDC01D6
:103E6000CB01FC01F999FECF06C0F2BDE1BDF89A85
:103E7000319600B40D9241505040B8F70895F8942F
:103E8000FFCF130D3B0DE30E3B0DE30E6E0D8F0DBB
:103E9000E30E8C0E990E071507153F153F15DA1521
:0E3EA000671567156715F415CA16D916D916D9
:103EAE000000B202200058053409A0032F092A0988
:103EBE0057052000010284100000010510000001CA
:103ECE008308000001000000000000000000000058
:103EDE00A120000000000200818283E200E900EAD6
:103EEE0000B500B600B700CD008301CC008A019268
:103EFE000194012102230224022502260227022A0E
:0A3F0E0002B300B4006F0070000061
:00000001FF
