:100000000C940A040C9427040C9427040C942704E1
:100010000C9427040C9427040C9427040C942704B4
:100020000C9427040C9427040C942B190C94E718B7
:100030000C94FF280C9427040C9427040C94270498
:100040000C9427040C9427040C9427040C94270484
:100050000C9427040C94071A0C9427040C9427047E
:100060000C9427040C9427040C9427040C94270464
:100070000C9427040C9427040C9427040C94270454
:100080000C9427040C9427040C9427040C94270444
:100090000C9427040C9427040C9427040C94270434
:1000A0000C9427040C9427040C94270400010101EC
:1000B0000101010101010202020202020202020325
:1000C00003030303030303040404040404040505F5
:1000D00005050506060606060707070707080808B8
:1000E00008090909090A0A0A0B0B0B0C0C0C0D0D67
:1000F0000D0E0E0E0F0F0F101011111112121313FF
:100100001414151516161717181819191A1A1B1B77
:100110001C1D1D1E1E1F20202122222324242526D3
:1001200026272829292A2B2C2D2D2E2F303132320B
:10013000333435363738393A3B3C3D3E3F40414217
:10014000434445464748494A4C4D4E4F50515354FD
:10015000555658595A5B5D5E5F61626465666869B1
:100160006B6C6D6F7072737577787A7B7D7E808231
:10017000838587888A8C8E8F91939596989A9C9E7A
:10018000A0A2A3A5A7A9ABADAFB1B3B5B7BABCBE8A
:10019000C0C2C4C6C9CBCDCFD1D4D6D8DBDDDFE257
:1001A000E4E7E9EBEEF0F3F5F8FAFDFF00D0D0D08C
:1001B000D0D0D00101020408102041424448480038
:1001C0000000484850608182848890A0C1C2C4D099
:1001D000D0D0D0D0D0C80000000000000000000047
:1001E00000000000000000000000000029003500B1
:1001F000E100E700E60000001E00140004001D00FE
:100200005200E3001F001A0016001B005100E0001E
:1002100020000800070006005000035121001500CF
:10022000090019004F00E200220017000A00050033
:1002300000004B0005512B0000002B1200004E0067
:10024000025328000000280000002D0023001C009D
:100250000B00110000001150240018000D001000C8
:1002600052002C0425000C000E00360051002C001A
:10027000260012000F00370050002A00270013004C
:10028000330038004F0073002E0031003400E500C9
:10029000E400000029003500E100685964590000BD
:1002A0001E00140004001D00520068591F001A00AF
:1002B00015001B00520061592000090016000600BD
:1002C0005000045121001300170019004F00645919
:1002D00022000A000700050000004B0005512B001A
:1002E00000002B1200004E000253280000002800DE
:1002F00000002D0023000D000B000E000000105028
:1003000024000F001100100052002C0425001800DA
:100310000800360051002C0026001C000C0037009D
:1003200050002A0027003300120038004F007300ED
:100330002E0031003400E50061590000290035002D
:10034000E100E700E60000001E00015A075A085AC3
:10035000520001001F00025A095A0A5A5100105A4D
:100360002000035A0B5A0C5A50000F5A2100045A0D
:100370000D5A0E5A4F0001002200055A115A125A06
:100380000000010001002B0000002B120000010002
:1003900001002800000028000000305A2300065AFF
:1003A000165A175A000001002400235A1A5A1B5AE1
:1003B0005200315A2500245A1C5A1D5A5100195A0C
:1003C0002600255A1E5A1F5A5000185A2700265A2E
:1003D000205A215A4F0001002D00275A225A295A2B
:1003E000E4000000010035020100010001000000EE
:1003F0001E0201004A003502010001001F02010037
:1004000050002E02010001002002520051002D0276
:1004100001000100210201004F002E000100010037
:10042000220201004D002D000000010001002B18E8
:1004300000002B1A00000100010001000000010073
:100440000000010023020100010001000000010082
:1004500024022F02260201000100010025023002C1
:100460002702360201002E15260201002F00370256
:1004700001003511270213123000380201002D153A
:100480002D0231023402010001000000010035029A
:1004900001000100010000001E0201004A003502B7
:1004A000010001001F02010050002E0201000100A6
:1004B0002002520051002D02010001002102010022
:1004C0004F002E0001000100220201004D002D000E
:1004D0000000010001002B1800002B1A0000010091
:1004E00001000100000001000000010023020100E2
:1004F000010001000000010024022F022602010079
:1005000001000100250230022702360201002E15EB
:10051000260201002F003702010035112702331295
:100520003000380201002D152D0231023402010085
:1005300001000000145C0100E100E700E60000009B
:100540003A000100010001000100E3003B0001004E
:10055000010001000100E0003C0001000100010079
:10056000010001003D000100010001000100E20066
:100570003E00010001000100000001000100A80090
:100580000000AE00000001000100A9000000AA0068
:10059000000001003F000100010001000000010017
:1005A00040000100010001000100010041000100C4
:1005B0000100010001002C004200010001000100C7
:1005C00001002A00430001000100010001000100B8
:1005D000440045000100E500E4000000290035006A
:1005E000E1000100010000001E00140004001D00D5
:1005F000520001001F001A0016001B0051000100EC
:10060000200008000700060050000100210015002E
:10061000090019004F000100220017000A00050020
:1006200000004B0001002B0000002B1200004E00C8
:1006300001002800000028000000010023001C0029
:100640000B00110000002E00240018000D00100007
:100650005200010025000C000E00360051002C0055
:10066000260012000F00370050002A002700130058
:10067000330038004F0001002D0031003400E50048
:100680000100000005010980A101850319012AB7B5
:1006900000150126B700950175108100C0050C09F1
:1006A00001A101850419012AA002150126A00295C5
:1006B0000175108100C005010906A1018505050726
:1006C00019E029E715002501950875018102050744
:1006D000190029EF1500250195F075018102050823
:1006E000190129059505750191029501750391017F
:1006F000C005010906A101050719E029E715002534
:100700000195087501810295017508810105071998
:100710000029FF150026FF009506750881000508D1
:10072000190129059505750191029501750391013E
:10073000C009027800040100A0FA090400000103C6
:100740000101000921110100012240000705810378
:1007500008000A0904010001030000000921110139
:100760000001226D000705820320000A080B020227
:100770000202010009040200010202010005240036
:10078000100104240202052406020307058303085E
:1007900000FF09040300020A00000007050502101B
:1007A00000050705840210000512011001EF020187
:1007B00008973276490100010200012003450072CA
:1007C0000067006F0044006F007800200045005A69
:1007D00000200047006C006F007700000030035AD3
:1007E0000053004100200054006500630068006E63
:1007F000006F006C006F006700790020004C006102
:100800000062007300200049006E006300000004D5
:100810000309040011241FBECFEFDAE0DEBFCDBF15
:1008200025E0AEE1B3E001C01D92AE3AB207E1F7B8
:1008300013E0A0E0B1E0E0EEF9E502C005900D9212
:10084000AE31B107D9F70E9476230C949D2C0C94FD
:1008500000000895E8EDF0E080818E7F80831092A3
:10086000E2001092DA001092E100A0EEB0E08C916C
:1008700081608C9380818F77808319BCA7EDB0E075
:100880008C918E7F8C9380818F7E808310926A05FD
:1008900008952091E4003091E50095E6A9012091AA
:1008A000EC00822F817020FF06C08091E80080FF5D
:1008B00006C080E008952091E80022FD1AC08091D2
:1008C0009905882389F0853089F08091EB0085FDBA
:1008D0000FC02091E4003091E50042175307F9F270
:1008E0009150E1F684E0089582E0089583E0089550
:1008F00081E0089580919905843061F580912D0102
:1009000090912E01A0912F01B0913001892B8A2B5B
:100910008B2B01F180911A018F708093E9009091E7
:10092000F3008091F200892B11F480E008959091FA
:10093000E8008091E8008E778093E80095FDF5CF80
:100940000E944904811107C09091E8009E7790931E
:10095000E800089582E00895EF92FF920F931F93AD
:10096000CF937C018B010E944904C82F811117C0CD
:100970008091E80085FD0BC08091E8008E77809320
:10098000E8000E944904882399F3C82F08C0F701A2
:1009900081917F018093F1000150110949F78C2F5B
:1009A000CF911F910F91FF90EF9008958091910545
:1009B00087FF13C08091E80082FF06C08091E800A5
:1009C0008B778093E80004C0809199058111F2CF64
:1009D0000895809199058823D9F38091E80080FFDC
:1009E000F8CF8091E8008E77ECCF982F9093E900B4
:1009F000242F762F50E0891731F07091EC00209170
:100A0000ED005091F00021FD07C09F5F973071F716
:100A10008093E90081E008953091EB003E7F3093B0
:100A2000EB003091ED003D7F3093ED003091EB0015
:100A300031603093EB007093EC002093ED00509305
:100A4000F0002091EE0027FDE0CF80E00895CF92E6
:100A5000DF92EF92FF920F931F93CF93DF93C8ED36
:100A6000D0E088818F7E8883E7EDF0E0808181602F
:100A7000808384E082BF81E080936A0588818E7FD5
:100A8000888302EE10E0F80110821092DA0081EE05
:100A9000C82ED12CF601108288818F7788838881B7
:100AA0008068888388818F7D888319BC109299051E
:100AB0001092900510928F0510928E0590EEE92EFF
:100AC000F12CF70180818B7F80838881816088830E
:100AD00042E060E080E00E94F504F60180818E7FB4
:100AE0008083F80180818160808380818860808339
:100AF000F70180818E7F8083888180618883DF9188
:100B0000CF911F910F91FF90EF90DF90CF900895BC
:100B1000FC01CB01209197053091980526173707E6
:100B200090F0009729F42091E8002E772093E800B8
:100B300040E0009751F4411108C08091E80082FF25
:100B400031C080E00895C901F3CF20919905222397
:100B5000A9F12530A9F12091E80023FD2DC02091B5
:100B6000E80022FDEACF2091E80020FFE2CF30919B
:100B7000F3002091F200009719F02830310558F069
:100B800041E02830310509F040E02091E8002E775F
:100B90002093E800CECF41914093F10001972F5F61
:100BA0003F4FE9CF80919905882341F0853041F08E
:100BB0008091E80083FFC1CF81E0089582E008952D
:100BC00083E008950F931F93522F10E0F801EE0F6A
:100BD000FF1FE357FD4F9081905797FD9195000FB0
:100BE000111FF801E257FD4F00810052110B500315
:100BF0009001519F300D112408E310E0091B1109E9
:100C000097FD13954003F001419FF00D1124E20F71
:100C1000F31F9F01220F331F2E0F3F1F37FF02C00C
:100C200021583F4F220F232F221F330B620F1F919A
:100C30000F9108950F931F93522F10E0F801EE0FBC
:100C4000FF1FE257FD4FA081A052BB0B9D01520335
:100C5000F001539FF00D1124000F111FD801A3576D
:100C6000BD4F0C910057110B40039001419F300D77
:100C700011242E0F3F1F37FF02C0215C3F4F96E02B
:100C8000359527959A95E1F7620F1F910F91089579
:100C90000F931F93522F10E0F801EE0FFF1FE25742
:100CA000FD4FA081A052BB0B9D015203F001539F49
:100CB000F00D1124000F111FD801A357BD4F0C9147
:100CC0000057110B40039001419F300D11242E0F4E
:100CD0003F1F37FF02C021583F4F220F232F221FF3
:100CE000330B620F1F910F910895EF920F93972F7F
:100CF00023E0029FB0011124759567956E0D792F41
:100D00000F91EF900895322F50E0FA01EE0FFF1F80
:100D1000E257FD4F9081905297FD9195440F551FDA
:100D2000FA01E357FD4F2081231B330B290F311D9F
:100D300097FD3A95620F0895E42FF0E0EE0FFF1F44
:100D4000E257FD4F6081621B0895E42FF0E0EE0F43
:100D5000FF1FE357FD4F6081621B0895622F0895C6
:100D6000582FA22FE42FF0E0EE0FFF1FE357FD4FA7
:100D7000208134EE239F212D112490E030E0245E69
:100D80003F4F2A1B310937FF03C0319521953109A7
:100D900043E0220F331F4A95E1F7821B930B97FD27
:100DA00080E0282F259F212D1124822F08951F9345
:100DB000172F922FE42FF0E0EE0FFF1FE357FD4FA8
:100DC000208134EE239F212D1124472F50E030E065
:100DD000245E3F4F291B310937FF03C03195219510
:100DE000310993E0220F331F9A95E1F7421B530B11
:100DF00057FD40E0742F719F712D11241F910895AC
:100E000080916D0508959C01809118018823C9F097
:100E100080912D0587FF15C0E62FE695E695E695AE
:100E2000603FE0F4E20FF32FF11D677081E090E086
:100E300001C0880F6A95EAF78095928189238283A1
:100E40000895F9013296285F3F4F8191681303C0DE
:100E5000DF0111971C92E217F307B9F708959C017F
:100E6000809118018823C1F080912D0587FF14C05F
:100E7000E62FE695E695E695603FF8F4E20FF32F4E
:100E8000F11D677021E030E001C0220F6A95EAF79A
:100E90008281822B82830895F90132968FEF90E050
:100EA0004191641751F08F3F19F4411101C0892F0E
:100EB0009F5F9630A9F78F3F09F40895280F311DE1
:100EC00087FD3A95F901628308958091200581118B
:100ED00010922005089580911F0590911E05892B81
:100EE00090911D05892B80931E03909120059923D5
:100EF000A1F0892B80931E0380911801882341F172
:100F000080912D0587FF24C08EE1E0E2F3E090E0C0
:100F1000815000F591110E946507E0913005F09134
:100F200031053097E1F080911801882359F08091C4
:100F30002D0587FF07C080911E0380931F0385E066
:100F400080931E030280F381E02D8EE193E00994EB
:100F500086E0DBCF21912223D9F29F5FD9CF08957C
:100F6000292F220FE22FE90FEE0FE80F9E2F977027
:100F7000E695E695E69585E0E89FF0011124EB51B2
:100F8000FB4F50E040E080E0219130E0092E02C0AC
:100F9000369527950A94E2F721703327042E01C075
:100FA000220F0A94EAF7822B4F5F5F4F45305105BD
:100FB00059F70895292F220FE22FE90FEE0FE80FBE
:100FC0008E2F877041E001C0440F8A95EAF7E695BD
:100FD000E695E69585E0E89FF0011124EB51FB4F83
:100FE00030E020E070E05191DF011197CB01022E3B
:100FF00002C0969587950A94E2F7817081958527BE
:10100000842385278C932F5F3F4F2530310559F777
:1010100008958091E4049091B304981301C0089559
:101020008F5F8770FACF882341F0809590911F05DC
:10103000892380931F050C946B070895882339F04A
:1010400090911F05892B80931F050C946B070895C1
:1010500020919D0430919E042817390771F09093D8
:101060009E0480939D04E0913005F0913105309706
:1010700021F00084F185E02D0994089520919B04CE
:1010800030919C042817390771F090939C04809349
:101090009B04E0913005F0913105309721F00680F6
:1010A000F781E02D0994089510921E0510921D05F8
:1010B0000E946B0790E080E00E943E0890E080E094
:1010C0000C9428086093290570932A0580932B05BA
:1010D00090932C050C9454080F931F93CF93DF9398
:1010E00000D000D0CDB7DEB741E050E060E070E066
:1010F00004C0440F551F661F771F8A95D2F740958D
:101100005095609570958091290590912A05A09140
:101110002B05B0912C058A019B01082319232A2352
:101120003B2309831A832B833C83C901B8010F90A9
:101130000F900F900F90DF91CF911F910F910C9412
:10114000620890911C058095892380931C05282FA7
:10115000277071F4282F082E000C330B92171306FA
:1011600039F08595859585950E946C0810921C052F
:1011700008950F931F93CF93DF9300D000D0CDB786
:10118000DEB741E050E060E070E004C0440F551F5E
:10119000661F771F8A95D2F78091290590912A05BD
:1011A000A0912B05B0912C058A019B01082B192BCE
:1011B0002A2B3B2B09831A832B833C83C901B8015B
:1011C0000F900F900F900F90DF91CF911F910F9183
:1011D0000C94620860932105709322058093230587
:1011E000909324050C945408682F882359F18CEFB0
:1011F000860F813A30F48EE193E00E9403070C944D
:101200006B0780E2860F883070F4677081E090E0B1
:1012100001C0880F6A95EAF7809590911F05892390
:1012200080931F05ECCF8BE5860F833020F490E090
:1012300080E00C943E08685A673120F490E080E02A
:101240000C9428080895CF93C82F882309F466C00A
:101250008CEF8C0F813AC0F580911801882311F131
:1012600080912D0587FF1EC0EC2FE695E695E6954B
:10127000F0E0E25EFC4F828190E04C2F477021E06D
:1012800030E002C0220F331F4A95E2F782239323F6
:10129000892B91F06C2F8EE193E00E9403070E944E
:1012A0006B070AC0E0E2F3E086E293E02191C21707
:1012B00089F38E179F07D1F76C2F8EE193E00E9480
:1012C0002F07CF910C946B0780E28C0F883068F465
:1012D000C77021E030E001C0220FCA95EAF7809183
:1012E0001F05822B80931F05ECCF8BE58C0F83307D
:1012F00038F42C2F2452330BC901CF910C943E08A3
:10130000C85AC73158F4EC2FF0E0EE0FFF1FE55F2D
:10131000FD4F80819181CF910C942808CF91089541
:10132000E0913005F0913105309721F00190F08186
:10133000E02D099480E00895FA0181110994FB01E0
:10134000FDCFFC01C09730F5EE0FFF1FEE0FFF1F22
:10135000E55BFE4F5281338180818370A82FB0E01E
:10136000E18170E9879FC00111248B5A9C4FE80FDF
:10137000F92FF11DB4976083FC01E50FF11DB497BF
:101380004083830F911DFC01B4972083AD5ABC4F5D
:1013900081E08C930895FF920F931F93CF93DF9377
:1013A000182F062FF42ED0E0C0E02F2D402F612FF4
:1013B000CE010E94A1092196C033D105B1F7DF917A
:1013C000CF911F910F91FF9008950C94CB090C942D
:1013D000A109FC019B01009729F480E077FF2BC055
:1013E00080E80895AC0197FF04C044275527481BA7
:1013F000590BB901640F751F37FD10C0241B350B45
:10140000C901A5E0880F991FAA95E1F70E94282A33
:1014100080E2861BF7FF0FC081950895CB0165E040
:10142000880F991F6A95E1F7BA01621B730B0E943E
:10143000282A80E6EECF0895EF920F93CF93DF93A3
:10144000D72FC82FBA01C9010E190E94E909602FD0
:10145000681B7D2F8C2FDF91CF910F91EF90089516
:101460000F93CF93DF93D72FC82FBA01C9010E94E2
:10147000E909682F600F7D2F8C2FDF91CF910F919D
:101480000895EF920F931F93CF93DF93D62FC72F1B
:10149000182FBA01C9010E19010F0E94E909081B92
:1014A000019F012D11246D2F7C2F802FDF91CF9173
:1014B0001F910F91EF900895EF920F931F93CF9389
:1014C000DF93D62F172FC82FBA01C9010E19010FAC
:1014D0000E94E909702F781B719F712D11246D2FC7
:1014E0008C2FDF91CF911F910F91EF9008950F9363
:1014F0001F93CF93DF93D62FC72F182FBA01C9019F
:10150000212F201B022F0E94E909982F990F990F74
:10151000282F291B200F219F212D11246D2F7C2F77
:10152000822FDF91CF911F910F9108950F931F93F9
:10153000CF93DF93D62F172FC82FBA01C901212FC0
:10154000201B022F0E94E909982F990F990F782FDD
:10155000791B700F719F712D11246D2F8C2FDF91CE
:10156000CF911F910F910895982FE82F96FDE09548
:101570002E2F2F7096FD2F5FE695E695E695E67087
:10158000F0E0ED5BFE4F8181829F802D212D1124A3
:1015900082958F702295207F822B2081820F97FD6C
:1015A0008195805808959C018230910508F4089532
:1015B0009FEF213E8EE1380740F4C90145E0969542
:1015C00087954A95E1F798E0980F61E0E62FE90FDB
:1015D000FF27FF1FAF0155954795842F449FF001CA
:1015E000459FF00DF00D11242E173F0738F49FEFA3
:1015F000940F961758F78FEF860F08954F3FE9F332
:1016000061E0640FF6CF0F93CF93DF93D72FC82FEE
:10161000F90147FD419528E330E0241B310947FDDE
:101620003395229FA001239F500D500D1124EE9F52
:10163000C001EF9F900D900D1124840F951F0E9403
:10164000D30A982F990F692F680F600F7D2F8C2F69
:10165000DF91CF910F9108959C0190E080E0269F4B
:10166000812D369F800D911D11240895AF92BF9258
:10167000CF92DF92EF92FF920F931F93CF93DF935E
:10168000262F472FE82FF0E0E455FF4F71110FC0D0
:101690006491862FE62F7E2FDF91CF911F910F91BE
:1016A000FF90EF90DF90CF90BF90AF900895E72E1E
:1016B000F12CE49186E0689F80011124CFEFD0E007
:1016C000C801BE010E94142ADB0130E0220F331F43
:1016D00055E5569FC001579F900D1124281B390BCB
:1016E000622F660F260FCE018E199F09E89F6001B9
:1016F000E99FD00C11246D2D429FA0011124452F8C
:101700005527CE01841B950BE89FA001E99F500D42
:101710001124852F5E01A21AB108AE9C9001AF9CE6
:10172000300DBE9C300D1124232F3327C21BD30B49
:10173000EC9F9001ED9F300D1124A330B105B1F065
:101740000C3F93E0190760F4A130B10599F01297AE
:10175000A9F00F3F110508F09ECF8D2D632F9BCF71
:10176000A430B10571F01697C1F395CF652F8E2F78
:10177000ED2D91CF6E2FE52F8D2D8DCF832F6E2FD9
:10178000F7CF8E2FE32F87CFBF92CF92DF92EF92CA
:10179000FF920F931F93CF93DF9300D000D00F924F
:1017A000CDB7DEB76C0180913501982F990F990F55
:1017B000980F9B8325E0F22EF90EBF2CE0E3EF1586
:1017C00010F480E3B82E6091A90566956695809126
:1017D000A1059091A2050E942C0B182F80E4810F87
:1017E0000E94B40A80588983812F0E94B40A8058CD
:1017F0008A839B81892F90E09D838C839C819B159C
:10180000A0F081E0EFE2EF1508F480E00F900F9078
:101810000F900F900F90DF91CF911F910F91FF903C
:10182000EF90DF90CF90BF900895EC81FD81E35160
:10183000FD4F8081909136018923A9F06091A60522
:101840007091A7058091A805E12E0C812A8149811C
:10185000F60109950E94360B462F672F282F8C81A1
:101860009D810E94E7098C819D810196C5CF7F9261
:101870008F929F92AF92BF92CF92DF92EF92FF92A0
:101880000F931F93CF93DF934C0180913501C82FA5
:10189000CC0FCC0FC80F15E01C0F712E113310F0B8
:1018A00090E3792E6091A90566958091A1059091AC
:1018B000A2050E942C0BF82ED0E0C71590F081E015
:1018C000103308F080E0DF91CF911F910F91FF90CE
:1018D000EF90DF90CF90BF90AF909F908F907F90D0
:1018E0000895FE01E351FD4F8081909136018923D7
:1018F000B9F19E01220F331FF901E357FD4F80819B
:10190000482F4057550B6A0122573D4FF9018081FE
:10191000282F2052330B5901449F9001459F300DD1
:10192000300D1124AA9CC001AB9C900D900D112488
:10193000820F931F0E94D30A082F6091A605709111
:10194000A7058091A805EF2C9501A601F401099542
:101950000E94360B462F672F282FCE010E94E709E1
:101960002196ABCFCF92DF92EF92FF920F931F930E
:10197000CF93DF937C0180913501C82FCC0FCC0F22
:10198000C80F15E01C0FC12E113310F090E3C92EC3
:101990006091A90566958091A1059091A2050E948C
:1019A0002C0BD82ED0E0CC1568F081E0103308F075
:1019B00080E0DF91CF911F910F91FF90EF90DF902A
:1019C000CF900895FE01E351FD4F80819091360143
:1019D000892301F1AE01440F551FFA01E257FD4F73
:1019E00020812052330B43575D4FFA01408140570D
:1019F000550B6091A6057091A7058091A8050D2D46
:101A0000F70109950E94360B462F672F282FCE012C
:101A10000E94E7092196C7CFDF92EF92FF920F93C2
:101A20001F93CF93DF937C0180913501C82FCC0F9A
:101A3000CC0FC80F15E01C0FD12E113310F080E32E
:101A4000D82E6091A905669566958091A105909123
:101A5000A2050E942C0B082FD0E0CD1560F081E08C
:101A6000103308F080E0DF91CF911F910F91FF902C
:101A7000EF90DF900895FE01E351FD4F808190913A
:101A80003601892391F06091A6057091A705809198
:101A9000A805202F4C2FF70109950E94360B462FE1
:101AA000672F282FCE010E94E7092196D6CFCF932A
:101AB000DF9300D000D00F92CDB7DEB76B837C836D
:101AC0008D838C819D81892B21F0CA0189238F3FD1
:101AD00051F480E081700F900F900F900F900F9055
:101AE000DF91CF9108958B81F5CF90912D0592FFD5
:101AF00006C0282F28712830F9F4877F846093FF6F
:101B000006C0282F28712831F1F4877E8461209146
:101B10002E0520FF06C0382F38713830D9F4877F62
:101B2000816021FF06C0282F28712831D1F4877EDB
:101B3000816194FD877E0895282F24712430F9F661
:101B40008B7F8860DCCF282F2471243101F78B7EB6
:101B50008861DDCF382F3171313019F78E7F886081
:101B6000E0CF282F2171213121F78E7E8861E1CFCE
:101B7000CF93DF93972F70E026E0929F600D711D49
:101B80001124FB0134E5839FE00DF11D1124EE0FBC
:101B9000FF1FE451FE4FC591D491CE01C03ED10547
:101BA00009F45DC088F5C133D10509F4A2C098F4E9
:101BB000C932D10509F496C0CA32D10509F4A0C0D2
:101BC000C430D10560F531E020E0219709F030E024
:101BD000832F922F24C0C933D105D1F1C238D1054A
:101BE000B9F1C533D10509F476C0CF3BD10508F072
:101BF0008EC0C83AD10508F009C1C53AD10500F335
:101C0000CE01849790640BC0C43ED10509F446C050
:101C100048F4C23ED10591F1C33ED105A1F1DF9157
:101C2000CF910895C63ED10509F443C0C73ED10502
:101C300009F446C0C11542E5D40708F09BC0C115A0
:101C400021E5D20790F29C2F8827816F906AE7CF19
:101C500020912D05237019F380EE90E0E0CF2091C4
:101C60002D0520FDFEC030912E0530FFD8CF83EE2C
:101C700090E024FFD4CF90E080E0D1CF20912D05DB
:101C800022FDF5CFCCCF20912D0522FDEDC0309166
:101C90002E0530FDE1CF24FFC2CFEDCF20912E05E0
:101CA00021FFBDCF80912D0584FDE5CF87EE90E02B
:101CB000B6CF20912D0523FFB2CF24FDDCCFF6CF88
:101CC00020912D0523FDD3C030912E0531FFE3CFA8
:101CD00084EE90E0A4CF20912D0525FFA0CF89E2CE
:101CE00090E09DCF20912D0525FF99CF85E390E0D1
:101CF00096CF20912D0526FF92CF8AE290E08FCFDC
:101D000020912D0526FF8BCF81E390E088CFC11570
:101D100030E5D30798F4C11540E4D40708F080C03B
:101D2000C83ED10528F4C03ED10508F4A4CF77CF32
:101D3000DA95C115DF4108F472CF9DCF9E01F4E022
:101D400036952795FA95E1F723708C2F8695869521
:101D5000837030E2839FC0011124922BC37021E075
:101D600030E002C0220F331FCA95E2F7822B932B7B
:101D70009C6855CFC11546E5D40718F5C11525E572
:101D8000D20708F058C0C11534E5D307A8F49C2F3A
:101D900096959695AE014370552721E030E002C03C
:101DA000220F331F4A95E2F740E2C115D345E0F513
:101DB000949FC0011124DACF9C2F8827846F906AEA
:101DC0002ECFC1158AE5D80780F4C11599E5D9074A
:101DD000D8F5CE0198558F3F910511F008F04BCF03
:101DE0009C2F8827806F906A1ACFCE01905681155C
:101DF000904208F040CF8D2F8F710E94750D90E0BA
:101E0000982F882788279F718C2B1CC0C85AD0E038
:101E1000CC0FDD1FC55FDD4F888199819464FFCEB3
:101E2000CE019F70906AFBCE949FC0011124822B3B
:101E3000932B9A68F4CE0E94750D90E0982F882716
:101E400088279F719062EBCE8C2F8F700E94750D4A
:101E500034E0D695C7953A95E1F7CF709C2F9069FD
:101E6000DECE89E390E0DBCE82EE90E0D8CE86EE47
:101E700090E0D5CEBF92CF92DF92EF92FF920F9378
:101E80001F93CF93DF938C01C0902905D0902A0532
:101E9000E0902B05F0902C05809121059091220572
:101EA000A0912305B0912405C82AD92AEA2AFB2A41
:101EB000CFE1D0E0BC2ED701C6010C2E04C0B695F0
:101EC000A795979587950A94D2F780FD0EC0219724
:101ED00088F7B12C8B2DDF91CF911F910F91FF903F
:101EE000EF90DF90CF90BF900895B8018C2F0E94A3
:101EF000B80D019761F3EECFCF93DF93D82FC92FA1
:101F00000E943A0F6D2F7C2FDF91CF910C94B80D6A
:101F10000E947C0F282F892F8F70392F32953F70A8
:101F2000903C80F43A30B0F4343020F4323090F405
:101F300080E008953630E1F781E0283E88F0213FC7
:101F4000B9F70EC03C3011F03F3091F78695869579
:101F50008695089581E0203F39F018F4283E40F737
:101F60000895243F29F7FCCF089527982F980895C6
:101F700026982E98089525982D98089556985E983D
:101F80000E94BB0F0E94B80F0C94B50F20982898A0
:101F90002198299822982A9823982B9852985A98F1
:101FA00053985B983E9846980895CF93C091E90066
:101FB0002091EC00922F917020FD90E82091290152
:101FC00020FF12C0CF70C92B90911A019F7090937F
:101FD000E9009091EB0090FF04C09091EE0097FD16
:101FE00005C0CF70C093E900CF9108959FEF209175
:101FF000E800915025FD06C025ED2A95F1F7000077
:102000009111F5CF8093F10089E191E00E947A046B
:102010008091E80080FFE5CF8091E8008E77809383
:10202000E800DFCFCF93DF9300D00F92CDB7DEB7BC
:1020300090919905943019F589836A837B8382E0B6
:102040008093E9008FEF9091E800815095FD06C0E4
:1020500095ED9A95F1F700008111F5CF8091E80098
:1020600085FF0DC050E040E063E070E0CE010196D6
:102070000E94AC048091E8008E778093E8000F9076
:102080000F900F90DF91CF910895BC0184E00C94E4
:102090001210BC0183E00C941210CF93DF93D82F61
:1020A000C92F809118018823C1F180912D0587FFE8
:1020B00034C060E282E08093E9008FEF9091E80005
:1020C000815095FD06C095ED9A95F1F700008111BC
:1020D000F5CF8091E80085FF1DC08091180170E068
:1020E00050E040E0811104C050E040E068E070E062
:1020F0008D2F9C2F0E94AC048091E8008E778093F6
:10210000E80080E2ED2FFC2FAEE6B5E001900D92E5
:102110008A95E1F7DF91CF91089568E081E0CBCF18
:10212000EF92FF920F931F93CF93DF930E94BE0F06
:1021300088E8E82EF12C8FEF90E0F70191838083FF
:102140000AE810E0F80191838083CCE8D0E099831D
:102150008883259A2D9AFFEF20E782E0F1502040F6
:102160008040E1F700C00000269A2E9A9FEFE0E73A
:10217000F2E09150E040F040E1F700C00000279A03
:102180002F9A2FEF80E792E0215080409040E1F7B6
:1021900000C000000E94BB0FEFEFF0E722E0E1502B
:1021A000F0402040E1F700C000000E94B80F8FEF20
:1021B00090E7E2E081509040E040E1F700C000008D
:1021C0000E94B50F809125058770FFEF8F9FC0019A
:1021D000112495958795959587959927F701918372
:1021E0008083F8019183808399838883DF91CF91E5
:1021F0001F910F91FF90EF900C94BE0F1F93CF9300
:10220000DF93EC01FC01E351FD4F80816823A1F0D5
:102210000E94AA2A182F0E94AA2A782F612F809143
:10222000A8050E94360B462F672F282FCE01DF917D
:10223000CF911F910C94E709DF91CF911F910895E1
:10224000DF92EF92FF920F931F93CF93DF93EC01F6
:10225000FC01E351FD4F8081682381F1D090A705F7
:102260000091A8051091A605E12EF12C0E94AA2A42
:10227000282FC7018C549F4F68E671E00E94282ADE
:102280008E199F0997FD0396959587959595879546
:102290002370612F289F600D11247D2D802F0E94B7
:1022A000360B462F672F282FCE01DF91CF911F913C
:1022B0000F91FF90EF90DF900C94E709DF91CF91A1
:1022C0001F910F91FF90EF90DF900895CF9384E0DE
:1022D00090E00E94F22BC82F81E290E00E94F22B46
:1022E000982F8C2FCF91089590E080E00E94002CD1
:1022F0009C0181E02F3E3E4F09F080E008956FEE93
:102300007EEF90E080E00E94342C60E082E090E07C
:102310000E94162C60E083E090E00E94162C109240
:10232000210510922205109223051092240560E0E9
:1023300084E090E00E94162C60E081E290E00E9430
:10234000162C60E085E090E00E94162C60E086E0AC
:1023500090E00E94162C6FEF87E090E00E94162C10
:1023600040E050E0BA0188E090E00E94282C60E054
:102370008DE090E00E94162C40E050E0BA0188E128
:1023800090E00E94282C60E087E190E00E94162CEB
:1023900040E050E0BA018CE190E00E94282C60E01F
:1023A00080E290E00E94162C40E050E0BA0188E103
:1023B00090E00E94282C109225051092260510927C
:1023C00027051092280584E08061809325054091BF
:1023D00025055091260560912705709128058FE00D
:1023E00090E00E94282C40E050E0BA0183E190E0A8
:1023F0000C94282C10921F0580911801E0E2F3E064
:10240000882359F080912D0587FF07C08EE1DF01F9
:102410001D928A95E9F70C94540886E0F8CF1F9333
:10242000CF93DF93CDB7DEB7AA970FB6F894DEBF90
:102430000FBECDBF81E995E0FC0101962091F1002E
:10244000208325E089399207B9F780919205893078
:1024500009F4A3C008F061C0823009F40DC18330D3
:1024600009F4DCC0813009F478C08091E80083FF72
:10247000C4C0209119018091950590919605281767
:10248000190609F0BAC080919205823209F444C15C
:1024900008F003C1803209F40CC1813209F0ADC0EB
:1024A00080919105813A09F0A8C08091E800877F6A
:1024B0008093E8008091E80080FFFCCF80912D019F
:1024C00090912E01A0912F01B09130018093F100E5
:1024D000492F5A2F6B2F77274093F100AD016627C4
:1024E00077274093F1008B2F9927AA27BB2780934A
:1024F000F100809131018093F1008091320180934D
:10250000F100809133018093F1008091E8008E7793
:102510008093E8000E94D60470C08A3009F49BC002
:102520008B3009F0A2CF80919105813209F09DCFC7
:102530008091950590919605892B09F096CF809111
:10254000E800877F8093E8000E94D604809193057D
:10255000809318010E94FA1188CF80919105813AE9
:1025600009F083CF8091E800877F8093E800809115
:10257000950590919605892B61F460E28EE695E0D1
:1025800070E00E9488058091E8008B778093E800D6
:102590006CCF60E090E080E0F3CF809191058132D4
:1025A00009F063CF8091950590919605029708F008
:1025B0005CCF8091E800877F8093E8008091E800FD
:1025C00082FF17C09091F3008091F200029729F4E6
:1025D0008091F1008B7F813021F48091F100809314
:1025E0006D058091E8008B778093E8000E94D60407
:1025F0003CCF809199058111E1CF8091E80083FF64
:1026000070C280919105909192059A3008F069C24C
:10261000E92FF0E0E156F34D0C943C2A80919105AE
:10262000813A09F022CF8091950590919605892BEA
:1026300009F01BCF8091E800877F8093E8008091AC
:10264000E80080FFFCCF809118018093F100809119
:10265000E8008E77C9CF80919105813209F005CFCE
:102660008091E800877F8093E8000E94D6048091E3
:10267000940580936C05F9CE80919105813A09F01B
:10268000F4CE8091E800877F8093E8008091E80095
:1026900080FFFCCF80916C05D8CF833209F0ADCF9D
:1026A00080919105813209F0A8CF8091E800877F61
:1026B0002FCF80919105813209F09FCF8091E80062
:1026C000877F8093E8008091E80082FF20C03091EE
:1026D000F1002091F1009091F1008091F100309390
:1026E0002D0120932E0190932F0180933001809132
:1026F000F100809331018091F1008093320180914B
:10270000F100809333018091E8008B7701CF8091B5
:1027100099058111D8CF71CF80919105813209F04F
:102720006CCF8091E800877F8093E8000E94D604F8
:10273000809193059091940590932A0180932901AB
:102740005CCF803899F0823809F0CBC18091950533
:102750008F70873008F0C5C18093E9008091EB004D
:1027600085FB882780F91092E90006C080918E05CC
:1027700090918F05911182609091E800977F9093DE
:10278000E8008093F1001092F1008091E8008E77CC
:10279000A4C1882309F492C1823009F0A2C18091BA
:1027A0009305811195C1809195058F702FEF280FAA
:1027B000263008F096C18093E9002091EB0020FFBD
:1027C00087C1933031F48091EB0080628093EB00FD
:1027D0007FC19091EB0090619093EB0021E030E09D
:1027E00001C0220F8A95EAF72093EA001092EA00CE
:1027F0008091EB008860EACF811173C1109193053D
:102800001F778091E3008078812B8093E300809193
:10281000E800877F8093E8000E94D6048091E8005A
:1028200080FFFCCF8091E30080688093E30082E02A
:10283000111183E08093990554C18058823008F0CB
:1028400050C140919305509194054C3D83E0580749
:10285000A1F583E08A838AE289834FB7F894DE0189
:10286000139620E03EE051E2E32FF0E05093570052
:10287000E49120FF03C0E295EF703F5FEF708E2F71
:1028800090E0EA30C0F0C7968D939D932F5F24317E
:1028900059F74FBF8091E800877F8093E8006AE294
:1028A00070E0CE0101960E9488058091E8008B7748
:1028B0008093E80016C1C096E7CF2091950530912E
:1028C0009605852F99278330910509F160F48130B1
:1028D000910509F472C0029709F003C188E790E0FE
:1028E000E1E3F7E029C08132910509F45AC08297EB
:1028F00009F0F7C02115310509F469C0213031050F
:1029000009F0EFC08DE690E0E4E8F6E015C0CA01FA
:1029100099274130B1F18230910509F43AC0892BF1
:1029200009F0DFC0EFE0F8E0E4918E2F90E0EFE0F7
:10293000F8E0009709F4D5C02091E800277F2093A4
:10294000E80020919705309198058217930708F4C5
:102950009C0140E02115310509F03EC041113CC009
:102960008091E80082FDA1CF80919905882309F428
:102970009CCF853009F499CF8091E80083FFF0CF98
:1029800094CFEDEDF7E0E4918E2F90E0EDEDF7E0E0
:10299000D0CFEBEBF7E0E4918E2F90E0EBEBF7E09C
:1029A000C8CF2115310571F02130310509F099C0EA
:1029B00089E090E0ECE5F7E0BFCF82E190E0E9EA62
:1029C000F7E0BACF89E090E0E3E4F7E0B5CF80E448
:1029D00090E0E1EFF6E0B0CF80919905882309F40B
:1029E00064CF853009F461CF8091E80083FD5DCF2D
:1029F0008091E80082FDB4CF8091E80080FFAACFEB
:102A00009091F3008091F2002115310519F0883082
:102A1000910550F041E0089709F040E08091E8000E
:102A20008E778093E80096CF44914093F1003196E1
:102A3000215031090196E8CF803809F052C08091C9
:102A4000E800877F8093E800809190058093F100F3
:102A50009CCE811146C010919305123008F041C000
:102A60008091E800877F8093E800109390050E9492
:102A7000D604112311F084E005C08091E30087FDA6
:102A8000FACF81E08093990542E061EC81E00E94F9
:102A9000F50442E261EC82E00E94F50442E061EC60
:102AA00083E00E94F50442E160E885E00E94F504BD
:102AB00042E161E884E00E94F50413C0809193052F
:102AC000813079F481E0933009F080E080938F05C4
:102AD0001092E9008091E800877F8093E8000E94CF
:102AE000D6048091E80083FF0AC08091E800877FC8
:102AF0008093E8008091EB0080628093EB00AA96BF
:102B00000FB6F894DEBF0FBECDBFDF91CF911F91FE
:102B1000089586E0EFE9F4E0DF01982F1D929A9581
:102B2000E9F7E5EAF4E0DF011D928A95E9F70895F7
:102B3000CF93C82F0E948915C0932F056C2F8DE06D
:102B400090E0CF910C94162CEF92FF921F93CF93AD
:102B5000DF937B01182F110FD0E0C0E08C2F8C5D2C
:102B600080933F03D701AC0FBD1FE0E4F3E08D91EC
:102B7000819383E0E035F807D1F724E630E041E1C6
:102B800050E06FE373E0812F0E94D7296096C0392F
:102B9000D10521F7DF91CF911F91FF90EF9008951C
:102BA00080915303882329F065E573E084E70E9450
:102BB000A4151092530380915403882329F065EEE5
:102BC00073E087E70E94A415109254030895EFE381
:102BD000F3E06083418324E630E042E050E0BF014F
:102BE000880F0C94D729EF92FF920F931F93CF93E6
:102BF000DF93E82E062F10E007561B4FF801808167
:102C0000882381F0F2E16F9FE0011124CB58DB4F64
:102C1000F12C49916F2D8E2D0E94E715F39482E1DE
:102C2000F812F7CFF8011082DF91CF911F910F9129
:102C3000FF90EF900895CF93DF93C82F4BE06DEF97
:102C40000E94E71540E06AE08C2F0E94E7158FE3B1
:102C50009CE90197F1F700C0000040E060E08C2F94
:102C60000E94E71540E061E08C2F0E94E71540E0EC
:102C700066E08C2F0E94E71540E06DEF8C2F0E94DC
:102C8000E715D0E040E06D2F8C2F0E94E715DF5F45
:102C9000D231C1F740E06D2F8C2F0E94E715DF5F26
:102CA000D432C1F740E06D2F8C2F0E94E715DF5F13
:102CB000D43BC1F74BE06DEF8C2F0E94E71541E04C
:102CC0006AE08C2F0E94E71540E06DEF8C2FDF91BA
:102CD000CF910C94E7156F927F928F929F92AF9253
:102CE000BF92CF92DF92EF92FF920F931F93CF93F9
:102CF000DF930E94222984E70E941B1687E70E9427
:102D00001B166BE4E62E61E0F62ED12CC12C72E18D
:102D1000772EE8E08E2E912CAA24A394B12C662461
:102D20006394F701418150E0CA0184970281045203
:102D3000110BC381C452DD0BF601EE0FFF1FEE0F26
:102D4000FF1FE55BFE4F2081237030E0FC0197FD03
:102D5000379643E0F595E7954A95E1F7729EA00115
:102D6000739E500D11244B585B4FE40FF52FF11D4E
:102D7000B4010E94282AA50101C0440F8A95EAF7F0
:102D80008081842B8083F80117FD379693E0F595B9
:102D9000E7959A95E1F7729EC001739E900D1124FC
:102DA0008B589B4FE80FF92FF11DC801B4010E9409
:102DB000282AA50101C0440F8A95EAF78081842B57
:102DC0008083FE01D7FD379683E0F595E7958A95D8
:102DD000E1F7729EC001739E900D11248B589B4F9A
:102DE000E80FF92FF11DCE01B4010E94282AA50198
:102DF00001C0440F8A95EAF78081842B808327568F
:102E00003B4FF9016082FFEFCF1ADF0A84E0E80E42
:102E1000F11CE0E3CE16D10409F083CF60E084E733
:102E20000E94F31561E087E7DF91CF911F910F9129
:102E3000FF90EF90DF90CF90BF90AF909F908F90DA
:102E40007F906F900C94F31545E050E06CE170E0DA
:102E500085EA95E00C94062C9091A505937089F075
:102E6000811107C094609093A505109234010C94D1
:102E70002417893110F09066F6CF880F880F982BB1
:102E8000F2CF08959091A505969596958FEF890FAD
:102E9000913009F488E10C942C178091A505869552
:102EA00086958F5F893108F081E00C942C17909102
:102EB000A505937041F08093A6056093A705409304
:102EC000A8050C9424170895E5EAF5E0438120E174
:102ED000421B08F440E08181628190E00C94571716
:102EE000E5EAF5E0438120E1420F08F44FEF8181EC
:102EF000628190E00C945717E5EAF5E0628120E1E9
:102F0000621B08F460E08181438190E00C945717C4
:102F1000E5EAF5E0628120E1620F08F46FEF81815C
:102F2000438190E00C945717E5EAF5E081814381F5
:102F300062818850990B0C945717E5EAF5E081817E
:102F400090E04381628108960C945717E5EAF5E01A
:102F5000248130E1230F08F42FEF24830C942417ED
:102F6000E5EAF5E0248130E1231B08F420E0248326
:102F70000C942417E5EAF5E085E38083809138011D
:102F800090913901A0913A0181839283A3838CE3CC
:102F900084830C9424170E946B160E947411811173
:102FA00004C00E947F110E94BA1745E050E06CE116
:102FB00070E085EA95E00E94E22B8091A5058C7F68
:102FC00011F40C94BA17089580E290E090930B01ED
:102FD00080930A0180913E0381110EC00E94222934
:102FE00081E080933E032FEF83ED90E321508040FA
:102FF0009040E1F700C0000064E670E080E40E94C9
:10300000282990930B0180930A01892B09F04EC067
:1030100064E670E080E00E94842990930B01809325
:103020000A01892B09F042C064E670E080E00E944A
:10303000842990930B0180930A01892BB9F564E6EA
:1030400070E08FE30E94842990930B0180930A0122
:10305000892B61F50E94042A64E670E080E40E94F6
:10306000282990930B0180930A01892BF9F464E6D7
:1030700070E08CE00E94842990930B0180930A01F8
:10308000892BA1F464E670E080E00E94842990938B
:103090000B0180930A01892B49F464E670E08FE309
:1030A0000E94842990930B0180930A010E94042AB4
:1030B00080910A010895CF93C82F873070F58091D1
:1030C0000A0190910B01892B99F564E670E080E488
:1030D0000E94282990930B0180930A01892BD1F437
:1030E00064E670E082E10E94842990930B01809352
:1030F0000A01892B79F481E090E001C0880FCA951C
:10310000EAF764E670E080950E94842990930B01B1
:1031100080930A01CF910C94042A8B30C9F050F4AB
:10312000893081F08A3089F0883049F0209A2898D7
:10313000CF9108958C3079F4539A5B98F9CF219A06
:103140002998F6CF229A2A98F3CF239A2B98F0CF7A
:10315000529A5A98EDCF3E9A4698EACFCF93DF9392
:10316000873058F580910A0190910B01C0E0892BBE
:1031700071F464E670E081E40E94282990930B01C9
:1031800080930A01892B39F0C0E00E94042A8C2F19
:10319000DF91CF91089584E690E00E94B329EC017D
:1031A00097FF05C090930B0180930A01EDCFC09566
:1031B00010920B0110920A01E8CFCFB12FB12695E2
:1031C00026952C73C3702C2BC22FC095E0CF1F9275
:1031D0000F920FB60F9211242F933F934F935F934B
:1031E0006F937F938F939F93AF93BF93CF93DF930F
:1031F000EF93FF93D091E900DF708091EC00C82F2E
:10320000C17080FDC0E81092E9008091F000877FD6
:103210008093F00078940E940F121092E900809140
:10322000F00088608093F000CD2BCF70C093E90050
:10323000FF91EF91DF91CF91BF91AF919F918F91CE
:103240007F916F915F914F913F912F910F900FBEA2
:103250000F901F9018951F920F920FB60F92112486
:103260002F933F934F935F936F937F938F939F938E
:10327000AF93BF93EF93FF938091E10082FF09C06A
:103280008091E20082FF05C08091E1008B7F8093F6
:10329000E1008091DA0080FF24C08091D80080FF97
:1032A00020C08091DA008E7F8093DA008091D9006F
:1032B00080FF9FC080E189BD82E189BD09B400FE25
:1032C000FDCF81E08093990580916A05811109C045
:1032D0000E942A040E9427058091E2008460809366
:1032E000E2008091E10080FF17C08091E20080FF42
:1032F00013C08091E2008E7F8093E2008091E20013
:1033000080618093E2008091D80080628093D80031
:1033100019BC85E0809399058091E10084FF2DC060
:103320008091E20084FF29C080E189BD82E189BDEE
:1033300009B400FEFDCF8091D8008F7D8093D80026
:103340008091E1008F7E8093E1008091E2008F7E8A
:103350008093E2008091E20081608093E20080919E
:103360009005882309F44BC084E0809399050E945E
:10337000FA110E94900910926B058091E10083FF81
:1033800027C08091E20083FF23C08091E100877F06
:103390008093E10082E080939905109290058091DE
:1033A000E1008E7F8093E1008091E2008E7F809328
:1033B000E2008091E20080618093E20042E060E000
:1033C00080E00E94F5048091F00088608093F00016
:1033D000FF91EF91BF91AF919F918F917F916F91ED
:1033E0005F914F913F912F910F900FBE0F901F90C3
:1033F000189519BC1092990510926A0572CF8091A8
:10340000E30087FD02C081E0B0CF83E0AECF7894C7
:103410001F921FB61F9211248F939F93AF93BF9358
:1034200080919A0590919B05A0919C05B0919D0576
:103430000196A11DB11D80939A0590939B05A093C1
:103440009C05B0939D05BF91AF919F918F911F9067
:103450001FBE1F9018952FB7F89480919A059091F0
:103460009B05A0919C05B0919D052FBF0895FF92EB
:103470000F931F93CF93DF93C62F042FF22EFC01DF
:1034800082818823A9F06093A0050E942B1A909353
:103490009F0580939E05C77081E001C0880FCA9583
:1034A000EAF7DF91CF911F910F91FF900C941E08C6
:1034B0008091A005681341C060919E0570919F05A1
:1034C0003FB7F89480919A0590919B05A0919C0537
:1034D000B0919D053FBF861B970B883C910568F511
:1034E000D0E2D40FC417A1F0C77011E0812F01C042
:1034F000880FCA95EAF70E941308D83048F4802F45
:10350000877001C0110F8A95EAF7812F0E941E086B
:103510008F2D0E9423098F2D0E94F408D830A0F42B
:10352000077081E001C0880F0A95EAF7DF91CF911B
:103530001F910F91FF900C941308C77081E001C098
:10354000880FCA95EAF7F2CFDF91CF911F910F91C3
:10355000FF9008957F92AF92BF92CF92DF92EF9249
:10356000FF920F931F93CF93DF93CDB7DEB72997C9
:103570000FB6F894DEBF0FBECDBF7C01FC01838186
:103580009481892B39F01081D180812F8D218F3F3B
:1035900009F038C629960FB6F894DEBF0FBECDBF2E
:1035A000DF91CF911F910F91FF90EF90DF90CF901F
:1035B000BF90AF907F9008950E943A0F082F682F18
:1035C00089819A810E94DA07E12FF0E016E0D19E0E
:1035D000E00DF11D112424E5029FE00DF11D1124E1
:1035E000EE0FFF1FE451FE4F059114910A323DE5A5
:1035F000130709F449C00B324DE5140709F494C0D0
:10360000033C5CE5150709F0AAC0F7018281882315
:10361000E9F090913601809125059F3F09F098C00F
:10362000109236018F7E8093250540E060E080E0B7
:103630000E94E509409125055091260560912705D6
:10364000709128058FE090E00E94282C80911C0545
:10365000877009F49FCFF7018281882309F49ACFFC
:1036600082E029960FB6F894DEBF0FBECDBFDF9182
:10367000CF911F910F91FF90EF90DF90CF90BF906F
:10368000AF907F900C94A108F7018281882379F193
:103690008091250591E0980F9770887F953008F408
:1036A000892B80932505809125058770FFEF8F9FDB
:1036B000C0011124959587959595879599279093A5
:1036C00089008093880090938B0080938A00909368
:1036D0008D0080938C0040912505509126056091C6
:1036E0002705709128058FE090E00E94282C043F68
:1036F000FCE51F0709F472C108F057C1093D3CE51C
:10370000130709F467C10A3D4CE5140709F46EC1BB
:1037100026E241EE61EE083D5CE5150709F058C070
:10372000C7010E94371A92CFF70182818823F9F2EC
:1037300090912505892F877F93FF886080932505C9
:1037400083FFC9CF40E060E080E00E94E509C3CF7D
:103750009FEF909336018061809325056BCF0337EF
:10376000110559F5F7018281882309F46FCF809103
:10377000290590912A05A0912B05B0912C05009761
:10378000A105B105B1F0B695A7959795879580FFEE
:1037900010C081E00E946C0880EE0E9423098CE238
:1037A0000E9423098CE20E94F40880EE0E94F40833
:1037B0004DCF81E00E94B908EFCF0033FAE51F0733
:1037C00009F449C0B0F5C8019A558A9708F452C067
:1037D000F7019281992309F426C51092A0050631BC
:1037E000FCE51F0708F005C102302CE5120708F4BC
:1037F000ADC10E94661190932E0580932D05063170
:103800003CE5130708F020C102304CE5140708F02E
:103810000EC160912D0510912E0584E090E00E946C
:10382000162C612F81E290E00E94162C0E94FA1162
:103830000DCF01333AE5130709F059CFF701408165
:1038400051816281738184810E94570D882309F41C
:10385000FDCE81E00CC0F70140815181628173810E
:1038600084810E94570D882309F4F0CE80E00E94E5
:103870009815ECCED0902F05F701408151816281DF
:10388000738184810E94570D482FDD20A1F0F1E063
:10389000DF1699F11091AB04F701408151816281EB
:1038A000738184810E94570D882309F449C01F5FEA
:1038B0001093AB04CBCEF801FF27E455FE4F949153
:1038C000A92FA295A695A695A370B0E0882371F0C4
:1038D0009D0121563B4FF9018081892B8083AB5597
:1038E000BB4F0C91E92FE02BEC93D4CFA156BB4FEB
:1038F000E92FE0950C91E023F7CF802F67E00E943D
:10390000082A292FE82FF0E086E090E0821B910939
:1039100021E030E001C0220F8A95EAF7DF01A156CD
:10392000BB4F9C91442341F0922B9C93EB55FB4F52
:103930008081282B2083AECF209529232C93AACFDA
:10394000115011160CF4B4CF1092AB04DD2031F0FD
:10395000F1E0DF16B1F00E94891578CE05EA14E097
:1039600049EAC42E44E0D42EF80181918F018111DF
:103970000E94D50FC016D106B9F780E00E94D50F7E
:10398000EACF8091A50480688093A50405EA14E03D
:103990003BEAC32E34E0D32EF80181918F010E94BF
:1039A000D50FC016D106C1F7D6CF063F6CE5160776
:1039B000C9F027E245EE66EE073F7CE5170709F4FC
:1039C000AFCE27E245EE64EE053F8CE5180709F41B
:1039D000A7CEFECE27E245EE65EEA2CE26E241EE70
:1039E00060EE9ECE26E241EE62EE9ACE28E241E003
:1039F000F3CF98012B5F3C452730310508F4F9CE11
:103A00000631FCE51F0709F0A1C080911F058A7AE5
:103A100091E009F490E09093AC0469E2811165E3D0
:103A20008EE193E00E942F070E946B070FCEF801F2
:103A3000E350FC4580912D058160E331F105A0F450
:103A4000E755F34D0C943C2A0B5F1C4507301105DC
:103A500008F0DFCE0454134DF80180912E050C942C
:103A60003C2A80912D05826080932D05D2CE8091D5
:103A70002D058460F9CF80912D058860F5CF816098
:103A800080932E05C6CE8260FBCF80912D0580618C
:103A9000EBCF80912D058062E7CF80912D0580646A
:103AA000E3CF0E94FA1180912D058068DDCF8091CF
:103AB0002D058C60D9CF8360E3CF80912D058E7F5B
:103AC000D3CF80912D058D7FCFCF80912D058B7F1A
:103AD000CBCF80912D05877FC7CF8E7FD1CF8D7FB4
:103AE000CFCF80912D058F7EBFCF80912D058F7D0B
:103AF000BBCF80912D058F7BB7CF0E94FA118091AB
:103B00002D058F77B1CF80912D05837FADCF8C7F31
:103B1000B7CF80912D0582FB992790F921E092275C
:103B200090FB82F990FB83F99FCF982F909591702D
:103B30008E7F892B90FB81F9A3CF0E94FA1190917F
:103B40002D05892F97FB87F980588ECF80911F050F
:103B50008272F801E35CFC45E431F10508F04DC0E8
:103B6000ED53F34D0C943C2A8091A50591E08927F3
:103B70008093A505109234010E94241767CD42E47A
:103B800057E16DE477E10E949C0960CD4DE457E177
:103B900062E477E1F8CF44E957E16DE977E1F3CFEB
:103BA0004DE957E164E977E1EECF4CE757E168E88A
:103BB00077E1E9CF48E857E16CE777E1E4CF44E605
:103BC00057E160E777E1DFCF40E757E164E677E16F
:103BD000DACF40EB57E166EA77E1D5CF46EA57E125
:103BE00060EB77E1D0CF81E00E942C172FCD85E0EC
:103BF000FBCF8DE0F9CF82E1F7CF992349F0011592
:103C0000FCE51F0709F461C00F3D1C4509F49AC08B
:103C1000F701C080D180992309F497C0C6010E94A2
:103C20003A0F182F682FC6010E94DA07B601812FBC
:103C30000E94B80D8C01782EF701C580C2942FE048
:103C4000C222D280D11010921E0580911C0587706F
:103C500099F0DD2089F0812F807F803421F080E28F
:103C6000800F883048F082E00E94A10880911C05F6
:103C70008770AA24A3948111A12CB12EB2949FE045
:103C8000B922F8E0BF1609F44BC1FB1508F4A4C033
:103C900023E02B1508F45EC0812F807F1F7031E078
:103CA0003B1508F0ADC0803211F01295107F7720DF
:103CB00009F4DFC071E0771609F4FCC0DD2009F4D7
:103CC00004C1CC2009F4FCC0B1C00E94FA113FEF3E
:103CD00044E35CE0315040405040E1F700C0000058
:103CE000F89481E08093E00080E28093D800109205
:103CF000C9008FE19EE40197F1F700C000001DBAF2
:103D0000109268001CBC10BE1FBA10927A0010926C
:103D10006E0010926F00109271001092720010925B
:103D2000C9001092BC0014B817B81AB81DB810BA60
:103D30001092BC0015B818B81BB81EB811BA0C9474
:103D4000003F84CC0E947F1181CCC6010E94B00745
:103D5000182F6CCF44E0B41609F4C8C0EB2DE8501E
:103D6000FF0B349710F40E949009AA20A9F08091CB
:103D70001C0580FD11C0F7011282859585958595FA
:103D80000E94B908C7010E94AA1A80911C05859556
:103D9000859585950E946C0885E0F701DE011196F6
:103DA00001900D928A95E1F789819A810E94B0076E
:103DB0009A81E981F0E006E0909FE00DF11D112469
:103DC00014E5819FE00DF11D1124EE0FFF1FE4515A
:103DD000FE4F85919491DECB59E0B51609F48EC162
:103DE00086E08B0D8F70823008F0B8CF802F62EFA5
:103DF000761293C1812F8F71DD2009F4D0C18AC161
:103E0000882311F01295107F802FDD20C9F0112337
:103E100069F090E2900F983010F001110BC0809182
:103E20001F05182B10931F050E946B07802F0E94FF
:103E3000230994CF80911E05182B10931E05F4CFF3
:103E40000E94F408112309F489CF1095005E083010
:103E500010F0711008C080911F05182310931F05E2
:103E60000E946B077BCF80911E05182310931E05BF
:103E7000F7CFDD2091F090912005892F812BC11083
:103E800003C00E941E086ACFE1E0CE12FACF981755
:103E900009F464CF8093200561CFC11006C00E9451
:103EA0006507812F0E94130859CFF1E0CF1609F45E
:103EB00055CFF5CFDD2031F001E00C1508F44ECFE1
:103EC000812FDFCFC1104ACFECCFCC2051F3093383
:103ED00049F41FEF27EE33E0115020403040E1F766
:103EE00000C00000802F0E94F40838CF812F8695F3
:103EF0008695837061F0813009F030CFC8019370EE
:103F0000D11002C090E080E00E94280827CFC801AD
:103F10009370D11002C090E080E00E943E081ECF56
:103F2000812F837009F072C0D11018CF202F2295F5
:103F300026952770220F220F402F4F7050E070E01F
:103F400060E0022E04C0440F551F661F771F0A94BD
:103F5000D2F780E090E0DC0104FF0FC08FE090E03A
:103F6000A0E0B0E004C0880F991FAA1FBB1F2A95CC
:103F7000D2F780959095A095B095E12FE695E695BE
:103F8000E370E23051F1E33009F100912105109125
:103F900022052091230530912405E13099F0842BEE
:103FA000952BA62BB72BAC01BD01402351236223D7
:103FB00073234E835F8368877987CB01BA010E94A0
:103FC000EA08CCCE402B512B622B732B8A019B012C
:103FD000082B192B2A2B3B2B12C0842B952BA62B9D
:103FE000B72B4091210550912205609123057091D6
:103FF00024058C019D0104271527262737270E83CA
:104000001F8328873987C901B801D9CF8695DD205C
:1040100011F0812F8170882309F4A0CE202F2295E2
:1040200026952770220F220F402F4F7050E070E02E
:1040300060E0022E04C0440F551F661F771F0A94CC
:10404000D2F780E090E0DC0104FF0FC08FE090E049
:10405000A0E0B0E004C0880F991FAA1FBB1F2A95DB
:10406000D2F780959095A095B095E12FE695E695CD
:10407000E370E23081F1E330F9F00091290510910D
:104080002A0520912B0530912C05E13089F0842BF5
:10409000952BA62BB72BAC01BD01402351236223E6
:1040A00073234E835F8368877987CB01BA0110C081
:1040B000402B512B622B732B8A019B01082B192B50
:1040C0002A2B3B2B0E831F8328873987C901B80110
:1040D0000E94620843CE842B952BA62BB72B4091D0
:1040E000290550912A0560912B0570912C058C01B2
:1040F0009D010427152726273727E4CF1F70DD20D1
:1041000029F0812F0E94B908802FBBCE802F0E94FA
:104110001308812F0E946C0821CE22EF271570F022
:1041200030EF731609F141EF7416A1F1DD2009F4A7
:1041300059C0C1107BCE812F8F7131C053EF7516DE
:1041400089F164EF7612F2CFDD2009F440C01F71CF
:10415000812F0E94B90858E0159FC0011124836087
:1041600080931C05812F1BC0DD2079F0C110F6CD96
:104170001F7181E090E0A0E0B0E004C0880F991FBB
:10418000AA1FBB1F1A95D2F7AACF21E02C1508F45D
:10419000E5CDEECF812F8F71DD2009F4BBCF0E94DA
:1041A000B908DCCD60E070E0CB01DD2009F490CFF0
:1041B0001F7181E090E0A0E0B0E0AC01BD0104C05F
:1041C000440F551F661F771F1A95D2F76ACF81E0FB
:1041D0000E94A10861E06C1508F0C0CD82E00E9449
:1041E000A108BCCDCC2059F0893309F07BCE7FEFFC
:1041F00087EE93E0715080409040E1F771CE812FBF
:104200008F7188CF85E0DE01119601900D928A951D
:10421000E1F7F701228189819A812111CDC90E949C
:10422000B007082FD1C906311C4509F0F1CC8091A7
:10423000AC0469E2811165E38EE193E00E9403071B
:10424000F3CB1F93CF93DF938091B204807FA9F4C7
:104250008091AF04882389F08091E404D091B30465
:104260006091AD047091AE04A091B004B091B1041E
:10427000C62FC72316E0D81304C0DF91CF911F913A
:10428000089590E0109711F0CF3F19F401968770D0
:10429000F2CF189F9001199F300D1124F901EC54B1
:1042A000FB4F41814713F2CF40814613EFCF42814C
:1042B0004111ECCF438154814A1B5B0B483C5105B3
:1042C00028F78091B2048F7080618093B204F90165
:1042D000E754FB4F80818F70806180838DEA94E08A
:1042E0000E94AA1ADF91CF911F910C940908AF92F6
:1042F000BF92CF92DF92EF92FF920F931F93CF93D3
:10430000DF93CDB7DEB72B970FB6F894DEBF0FBEA5
:10431000CDBF8C0185E0F801DE01179601900D926A
:104320008A95E1F7F80180819181E2802DEAA22E41
:1043300024E0B22E6091B0047091B1046115710552
:1043400009F421C13091AD044091AE04242F232300
:104350002F3F09F418C1C380D480F090AF04F60158
:10436000E61BF70BFF2009F4DFC02091B204522FA7
:10437000507FE83CF10508F0BAC0511177C0FE2C1F
:10438000491321C038131FC0E1101DC02F702061D8
:104390002093B204C5010E94AA1A8091B204F801C8
:1043A00085838F2D2B960FB6F894DEBF0FBECDBF41
:1043B000DF91CF911F910F91FF90EF90DF90CF9001
:1043C000BF90AF900895CD2829F0282F29232F3FA3
:1043D00009F0F7C020E0F22FF170DF2EE091E40445
:1043E0004091B30456E020FD1CC0EE20D1F2809134
:1043F000B20481608093B204F12CD3CF2E2F30E031
:104400005E9FF0011124EC54FB4F6181961306C0AE
:104410006081861303C06281E612E7CFF90131960D
:10442000E770E413EBCF8F8398878F8198850E9484
:104430007C0F292F22952F70903260F0225F2F7011
:10444000223078F49F7051F0F8019581907F31F41B
:10445000D12C0AC09F7011F08823D1F3805E883080
:10446000B8F3C8010E94AA1AFD2C9BCF491312C0B1
:10447000381310C0E1100EC0F8012583C8010E9456
:10448000AA1A86E0F801ADEAB4E001900D928A958F
:10449000E1F787CF8F8398878F8198850E94880F57
:1044A000882309F1EE20F9F08091B204803270F097
:1044B0002091AD043091AE043A8329831B82DD82C2
:1044C000CC828E83CE0101960E94AA1A86E0F80162
:1044D000ADEAB4E001900D928A95E1F70E942121A6
:1044E000FF24F3945ECFC8010E94AA1AF9CF51119C
:1044F0000AC08DEA94E00E94AA1A86E0F5011192A2
:104500008A95E9F779CF4913C5CF3813C3CFE110A6
:10451000C1CFF8012583C8010E94AA1A86E0F501DF
:1045200011928A95E9F73DCFE83CF105B8F7FE2CEA
:10453000EE20C9F2491316C0381314C08091B2049A
:1045400080FD9FCF982F907F09F49BCFF801858342
:10455000903F09F493CF982F907F905F8F70892BB5
:1045600085838CCF8F8398878F8198850E94880F51
:104570008111ACCF8091B20481608093B204C801F4
:104580000E94AA1A0ECFEE2009F4ADCF8F83988730
:104590008F8198850E94880FF82E882309F4A3CF75
:1045A00086E0F801ADEAB4E001900D928A95E1F75A
:1045B0008091AD049091AE040E947C0F0E94212155
:1045C000F0CE21E02E2507CF1F93CF93DF93CDB7F9
:1045D000DEB767970FB6F894DEBF0FBECDBF4B8B2B
:1045E0005C8B6D8B7E8B8F8B1A8A85E0FE017396B8
:1045F000DE011D9601900D928A95E1F786E0FE019D
:104600003D96DE01179601900D928A95E1F7CE0155
:1046100007960E947721882389F016E08091E404B0
:104620009091B30489134FC067960FB6F894DEBF1C
:104630000FBECDBFDF91CF911F91089586E0FE019F
:104640003796DE01119601900D928A95E1F74A8521
:104650005B854115510509F37F816885862F872386
:104660008F3FD9F22091B30430E0C90101968770E1
:104670009927E091E404E817190671F40E94FA11F1
:104680001092B3041092E40486E0EDEAF4E0DF0156
:104690001D928A95E9F7C1CF79836A835D834C8344
:1046A00096E0929FD001939FB00D1124AC54BB4F64
:1046B000FE01319601900D929A95E1F78093B30433
:1046C0000E940908AACF819FC00111248C549B4FDE
:1046D0000E947721882309F4A7CF8091E40490E019
:1046E0000196877099278093E40498CFCDB7DEB701
:1046F0002E970FB6F894DEBF0FBECDBF84B7877F6D
:1047000084BF0FB6F894A89580916000886180936B
:104710006000109260000FBE80E890E00FB6F89441
:1047200080936100909361000FBE85B7806885BF5C
:1047300085B7806885BF0E942A040E942705809162
:10474000E20084608093E200789480919905882348
:10475000A1F01091E9001F709091EC00892F8170F9
:1047600090FD80E8182B1092E9008091E80083FD0D
:104770000E940F121F701093E90082E084BD93E045
:1047800095BD9AEF97BD80936E000E94E41790E06C
:1047900090930B0180930A010E94C60F8098889A1B
:1047A0008198899A84988C9A85988D9A86988E9A01
:1047B00087988F9AACE4B5E0EEE3F5E011921D9294
:1047C00025E0EC34F207D1F78EE090E00E94BA2A9F
:1047D0008093330590933405FC010E962BEF2193C3
:1047E000E817F907E1F70E947411811102C00E94D5
:1047F0007F110E94CB1789EA8093800089E0809323
:10480000810024982C983F988AB18F7C8AB96E9841
:10481000479A8BB180638BB9769A8FE090E00E94C3
:10482000FA2B6093250570932605809327059093B6
:10483000280567708FEF869FB001112475956795E5
:1048400075956795772770938900609388007093BA
:104850008B0060938A0070938D0060938C00909120
:10486000250594FF47C1809336010E94901081E096
:104870000E9498150E947411811102C00E947F113C
:1048800082E090E00E94F22B80935B050E9466110B
:1048900090932E0580932D0583E090E00E94F22BEB
:1048A000282F30E050E040E029873A874B875C872B
:1048B000CA01B9010E94EA080E947411811102C064
:1048C0000E947F118DE090E00E94F22B80932F05D3
:1048D0008091A505837011F4109234018091A50593
:1048E0008C7F81608093A5058EE091E090933105E7
:1048F0008093300582E090E090932C0180932B010F
:1049000080919905843079F580912D0190912E0147
:10491000A0912F01B0913001892B8A2B8B2B19F19B
:10492000809124018F708093E90088E0EBE3F1E04F
:10493000DE01119601900D928A95E1F750E040E07A
:1049400068E070E0CE0101960E94AC0450E040E0C7
:1049500062E070E08BE291E00E94AC048091E8009C
:104960008E778093E8005BEFE52EF12C65E0462E14
:10497000512C70E3C72ED12CEAE0AE2EB12C8091E1
:104980000A0190910B01892BA1F0809132058F5F74
:104990008093320581110DC00E94E41790E090933E
:1049A0000B0180930A01892B21F40E9490100E9430
:1049B000CB170EE315E0912C812C47E0642E680C98
:1049C000882D0E945B18862D0E945B18882D0E94FE
:1049D000AE18D8019D918D01712C891729F0FD0128
:1049E0003197808377247394862D0E94AE18F80146
:1049F0009681891709F481C0868381E08729982AE6
:104A00000E94C60F8394F7E08F12D7CF0E942B1A13
:104A10009C0140913605509137059093370580935E
:104A200036058091350590E0841B950B820F931F0E
:104A3000B7010E94142A182F792F882E80933505EC
:104A400070903905772009F49CC3E0913305F0910B
:104A50003405AF01425F5F4F60E001910B3FC9F049
:104A6000802F90E0212F372F801608F448C0D901FD
:104A7000A81BB90BCD01092E000CAA0BBB0B4E973E
:104A8000A105B10508F442C0CF0101972BEFDC016D
:104A90002C934E175F0709F760933905911002C0F8
:104AA000611171C3109238058091330590913405DE
:104AB000409139052EE335E0ECE4F5E060E05191FA
:104AC000D9017D919D01571759F0DC015C915B3F45
:104AD000F9F48C92AF0141505109DA017C9341E025
:104AE0000196B5E0EA35FB0751F74093390560932D
:104AF00038054DC310923601B8CE80E07FCFD70184
:104B0000A81BB90BCD01820F931FB5CF672DC1CF65
:104B100061E0E6CF833009F4C9C2ECE5F5E0ACE42E
:104B2000B5E010E000E0302F8D919191981709F4D5
:104B3000E1C2292F282790E099249394422F4921FC
:104B400009F4D3C299833A83892191E009F490E072
:104B50009B830E942B1A8160782F9D838C834981CF
:104B60005A816B818D810E94E422F801E45AFA4F48
:104B70008081982690820E94900990915A05891709
:104B800021F00E94900980935A0580919905843004
:104B900019F560902D0170902E0180902F0190905A
:104BA00030016114710481049104B1F080911F01FE
:104BB0008F708093E9009091E80092FF0DC0909172
:104BC000F3002091F200392F232B09F0AAC2809123
:104BD000E8008B778093E80080919905843009F094
:104BE000CECE80912D0190912E01A0912F01B091F8
:104BF0003001892B8A2B8B2B09F4C1CE80911A01AD
:104C00008F708093E9008091E80080FFB8CE89E141
:104C100091E00E947A04B3CE80910D01781218C001
:104C20009091A505937020910C0130E081E09217DE
:104C3000130609F480E0182F11701093370128E152
:104C4000271550F0E72DF0E0E952F34D0C943C2A83
:104C500081E0F1CF111102C010E068C040E060E0D7
:104C600080E00E94E509F8CF80913501082F000F00
:104C7000000F080F35E0932E900E292C30E33915E4
:104C800010F420E3222E6091A6057091A705809173
:104C9000A8050E94360B862E672E382E10E00215CE
:104CA00030F011E04FE2491508F040C0D5CFF801CF
:104CB000E351FD4F808190913601892331F0232DFE
:104CC000482D662DC8010E94E7090F5F1F4FE7CFEF
:104CD00080913501082F000F000F080F55E0500F8D
:104CE0005987252E513310F090E3292E6090A705A7
:104CF0008090A8051091A605612F762D882D0E9421
:104D0000360B962E7D878E876091A905610F762DD3
:104D1000882D0E94360B862E672E382E10E0021545
:104D2000C8F011E08985803308F096CF8091350175
:104D30008F5F809335011111F0CE82E080933401B2
:104D4000809137018111E9CE7110E7CE83E0809325
:104D50003401E3CEF801E351FD4F9081809136019B
:104D6000892359F0232D482D662D90FD03C02E85F3
:104D7000492D6D85C8010E94E7090F5F1F4FCFCFF6
:104D800080913501082F000F000F080F85E0982E45
:104D9000900E692C90E3991510F410E3612E309079
:104DA000A7052090A8052091A905B0E48B2E382DE9
:104DB000329F312D1124832E10E0061508F071CF9B
:104DC000F801E351FD4F8081909136018923B9F0BC
:104DD000F801EE0FFF1FE257FD4F808182958F7023
:104DE0006091A605889D600D1124732D822D0E946F
:104DF000360B462F672F282FC8010E94E7090F5F47
:104E00001F4FDBCF80913501082F000F000F080FD7
:104E1000E5E09E2E900E692C50E3591510F470E3D6
:104E2000672E3090A7052090A8052091A90560E481
:104E3000862E382D329F312D1124832E10E0061539
:104E400008F02FCFF801E351FD4F8081909136019A
:104E50008923D9F0F801EE0FFF1FE357FD4F608162
:104E6000869EB001112455E0759567955A95E1F736
:104E70008091A605680F732D822D0E94360B462F58
:104E8000672F282FC8010E94E7090F5F1F4FD7CF58
:104E900080913501082F000F000F080F35E0932E89
:104EA000900E292C50E3591510F420E3222E809007
:104EB000A6051091A7056090A8056091A9056695C3
:104EC000669566958091A1059091A2050E942C0B94
:104ED0000E94B40A805887FD8195880F282F362DAF
:104EE000239F212D1124682D712F822F0E94360BB4
:104EF000862E672E382E10E0021508F0D2CEF8016B
:104F0000E351FD4F808190913601892331F0232DAB
:104F1000482D662DC8010E94E7090F5F1F4FECCF97
:104F200087ED96E00E940C0D182F00CF80EB96E0E5
:104F3000F9CF86E99AE00E94B20CF6CF87E79AE0B3
:104F4000FACF8CE59AE00E94370CEECF81E49AE02C
:104F5000FACF8EEA96E0E6CF85EA96E0E3CF8CE9D9
:104F600096E0E0CF83E896E0DDCF85E796E0EBCFF3
:104F700083E09BE0E0CF80E39AE0DDCF8CE19AE034
:104F8000E2CF88E496E00E94C40BCECF8AE196E09F
:104F9000FACF82EE95E0F7CF11111CC06091A90500
:104FA00020E1620F08F46FEF8091A1059091A205B6
:104FB0000E942C0BB5010E94142A892B09F04CCEBB
:104FC0000E94AA2AB6010E94282A609136010E94F6
:104FD0002011ACCE80913501082F000F000F080F73
:104FE00095E0692E600E862D50E3561508F480E397
:104FF00010E0882E912C0815190534F011E08FE28D
:10500000861508F093CE28CE60913601C8010E9423
:1050100020110F5F1F4FEFCF11111CC06091A90528
:1050200020E1620F08F46FEF8091A1059091A20535
:105030000E942C0BB2010E94142A892B09F00CCE7D
:105040000E94AA2AB6010E94282A609136010E9475
:10505000FE106CCE80913501082F000F000F080F55
:1050600085E0682E600E862D90E3961508F480E3A7
:1050700010E0882E912C0815190534F011E0AFE2EC
:10508000A61508F053CEE8CD60913601C8010E9404
:10509000FE100F5F1F4FEFCF70920D018091A5059D
:1050A000837080930C010E94D01550CE4091A105D1
:1050B0005091A2056091A3057091A4052FB7F894B3
:1050C00080919A0590919B05A0919C05B0919D05BA
:1050D0002FBF841B950BA60BB70B4A97A105B105F3
:1050E00008F41BCD1092340118CD9F5F990C9630B7
:1050F00009F024CD0F5F1F4F0E30110509F013CDBD
:105100008FEF89838A831B820E942B1A8160782FFC
:105110009D838C8349815A816B818D810E94E42219
:105120002ACD9091F3002091F200392F21153105FD
:1051300009F452CD90919905943001F561147104F0
:1051400081049104D9F08093E9009091E80092FFE6
:1051500015C09091F3004091F200592F452B11F0AA
:105160009091F1009091F3004091F200592F452B5E
:1051700029F49091E8009B779093E8002150310941
:10518000D5CF91108FCC8091380581118BCC8FB702
:10519000F89440919A0550919B0560919C057091FF
:1051A0009D058FBF40933A0550933B0560933C05A6
:1051B00070933D0580916B05712C811109C0809120
:1051C000A505E82FE3707E2E19F0782E769476945C
:1051D00080913401823009F45FCF08F09BCC8111BB
:1051E0001BCD109235014093A1055093A205609309
:1051F000A3057093A405F1E0F09334018ECC1F92C7
:105200001FB61F9211248F939F93AF93BF938091EA
:105210009A0590919B05A0919C05B0919D054196A2
:10522000A11DB11D80939A0590939B05A0939C05A9
:10523000B0939D05BF91AF919F918F911F901FBE1D
:105240001F9018951092B9008CE08093B8000895D3
:10525000EF92FF920F931F93CF93DF93182FEB01E1
:105260001092BC0084EA8093BC000E942B1A7C013F
:105270008091BC0087FF27C08091B900887F88306B
:1052800029F08091B900887F8031D9F51093BB0057
:1052900084E88093BC000E942B1A8C018091BC0092
:1052A00087FF24C02091B900287F90E080E028315A
:1052B000B1F081E090E0203411F490E080E091952D
:1052C000819591090CC0CF3FDC0791F20E942B1A07
:1052D0008E199F098C179D0758F28EEF9FEFDF9173
:1052E000CF911F910F91FF90EF900895CF3FDC0772
:1052F000A9F20E942B1A801B910B8C179D0770F24C
:10530000ECCF8FEF9FEFEBCF0F931F93CF93DF93F4
:10531000EB018093BB0084E88093BC000E942B1AB1
:105320008C018091BC0087FF11C02091B900287FBB
:1053300081E090E0283211F490E080E09195819531
:105340009109DF91CF911F910F910895CF3FDC0715
:1053500041F30E942B1A801B910B8C179D0708F3B9
:105360008EEF9FEFEECF0F931F93CF93DF93EC0160
:1053700084E88093BC000E942B1A8C018091BC00B1
:1053800087FF08C08091BB0090E0DF91CF911F9113
:105390000F910895CF3FDC0789F30E942B1A801BE1
:1053A000910B8C179D0750F38EEF9FEFEECFCF92AE
:1053B000DF92EF92FF920F931F93CF93DF936B01D6
:1053C0008A01F22EE32E622F732F0E942829AC014E
:1053D000E6010C0D1D1DC017D10711F057FF0DC0C0
:1053E00084E98093BC00CA01DF91CF911F910F9196
:1053F000FF90EF90DF90CF9008956F2D7E2D8991D3
:105400000E948429AC01E7CF84E98093BC00089511
:10541000991B79E004C0991F961708F0961B881F06
:105420007A95C9F780950895AA1BBB1B51E107C067
:10543000AA1FBB1FA617B70710F0A61BB70B881F24
:10544000991F5A95A9F780959095BC01CD010895B3
:1054500097FB072E16F4009407D077FD09D00E9421
:10546000142A07FC05D03EF4909581959F4F08952E
:10547000709561957F4F0895EE0FFF1F0590F49191
:10548000E02D0994CF92DF92EF92FF92CF93DF93BA
:10549000CDB7DEB72A970FB6F894DEBF0FBECDBFEB
:1054A00089879A87A985BA852D913D914D915C9107
:1054B00029833A834B835C83232B242B252B41F4B4
:1054C00024E239ED4BE557E029833A834B835C8333
:1054D00069817A818B819C812DE133EF41E050E03D
:1054E0000E943A2C69017A01A7EAB1E49B01AC0160
:1054F0000E94592C69837A838B839C83ACEEB4EF32
:10550000A70196010E94672C9B01AC0189819A81B9
:10551000AB81BC81820F931FA41FB51FB7FF03C0CF
:105520000197A109B048E985FA8580839183A28318
:10553000B3839F772A960FB6F894DEBF0FBECDBF18
:10554000DF91CF91FF90EF90DF90CF9008950E9470
:10555000422A089580E091E00E94422A0895B0E036
:10556000A0E08093000190930101A0930201B09309
:10557000030108950F931F93CF93DF939C0102972C
:1055800010F422E030E0E091AC05F091AD0590E040
:1055900080E0B0E0A0E0309791F4009709F445C0B6
:1055A000821B930B84309105B8F58A819B8161152C
:1055B000710569F1FB0193838283FE0111C0408173
:1055C00051810281138142175307F0F042175307AC
:1055D00099F4109761F012960C93129713961C93FE
:1055E0003296CF01DF91CF911F910F9108950093D3
:1055F000AC051093AD05F4CF009719F04817590783
:1056000018F4CA01BD01EF01DF01F801C4CF909386
:10561000AD058093AC05D1CFFE01E80FF91F2193B2
:105620003193029799838883DCCF8091AA0590916A
:10563000AB05892B41F4809106019091070190936D
:10564000AB058093AA058091040190910501009714
:1056500041F48DB79EB74091080150910901841B18
:10566000950B4091AA055091AB054817590708F0D2
:10567000B8CF841B950B8217930708F4B2CFB901FA
:105680006E5F7F4F8617970708F4ABCF640F751FC7
:105690007093AB056093AA05FA0121933193A1CFD2
:1056A000CF93DF939C010097E9F0FC0132971382BE
:1056B0001282C091AC05D091AD05DE0190E080E092
:1056C0002097A1F480819181280F391F8091AA052C
:1056D0009091AB058217930709F067C0F093AB0573
:1056E000E093AA05DF91CF910895DA01AE17BF07C5
:1056F00008F041C012964D915C911397CD01411570
:10570000510599F7DC011396FC93EE9312974D9196
:105710005D91A40FB51FEA17FB0781F42081318149
:105720002E5F3F4F240F351FDC0111963C932E93C3
:105730002281338113963C932E931297B0E0A0E020
:105740008A819B810097B1F5FE0181919191E80FCB
:10575000F91F8091AA059091AB058E179F0711F64E
:10576000109759F51092AD051092AC05D093AB058A
:10577000C093AA05B7CFB383A28340815181240F80
:10578000351FA217B30771F44E5F5F4F2D913C9107
:105790001197420F531F5183408312962D913C91D4
:1057A00033832283009709F0ADCFF093AD05E093EA
:1057B000AC0598CFDE01EC01C3CF13961C921E926C
:1057C0001297D4CFDC01CB01FC01F999FECF06C0C2
:1057D000F2BDE1BDF89A319600B40D9241505040AF
:1057E000B8F70895F999FECF92BD81BDF89A99272F
:1057F00080B50895A6E1B0E044E050E00C94E42BBD
:10580000A8E1B0E042E050E00C94E42BDC01A40FEE
:10581000B51F4150504048F0CB01840F951F2E9189
:105820000E94172C41505040D0F70895262FF99927
:10583000FECF92BD81BDF89A019700B4021639F0EF
:105840001FBA20BD0FB6F894FA9AF99A0FBE0895C0
:105850000396272F0E94172C0E94162C252F0E949A
:10586000172C242F0C94172C0196272F0E94172CED
:105870000C94162C052E97FB1EF400940E94512CBC
:1058800057FD07D00E946C2C07FC03D04EF40C94FB
:10589000512C50954095309521953F4F4F4F5F4F7C
:1058A000089590958095709561957F4F8F4F9F4F8C
:1058B00008950E948E2CA59F900DB49F900DA49FDB
:1058C000800D911D11240895B7FF0C94592C0E944E
:1058D000592C821B930B0895A1E21A2EAA1BBB1B05
:1058E000FD010DC0AA1FBB1FEE1FFF1FA217B307AC
:1058F000E407F50720F0A21BB30BE40BF50B661FC2
:10590000771F881F991F1A9469F760957095809585
:1059100090959B01AC01BD01CF010895A29FB001FC
:10592000B39FC001A39F700D811D1124911DB29FD3
:10593000700D811D1124911D0895F894FFCFA113BE
:10594000C9137115C9137115FC131D1471151C159C
:105950002915311D371D3B1D451D491D4D1D511D6F
:10596000571D5D1D611D651D691D711D751D791D0D
:105970007D1D831D9D1D891D3F1D431D6D1D6F1DBB
:105980005B1D871D951DB41DBF1DC61DCB1DD01DE4
:10599000D51DDA1DDF1DE41DE91DEE1DF31DF71DEC
:1059A000F91DFB1D261B261B261B261B261B2A2634
:1059B00034266826C026022748279027962799274D
:1059C0009E27A127A627A927AC27AF27B227B5274F
:1059D000B827BB27BE27C127C627C927CC270C2835
:1059E000010000000000AE0520002000FFFF0007BE
:1059F0004D102904491045100102841000000105D2
:105A000010000001830800000100000000000000F9
:105A1000000000000300FF0000FFFFA120000000C5
:105A2000000200003131295A1B750A004434540029
:105A300074648400554565008575950036264600DA
:105A4000665676009686A600372747007767870058
:105A50003828480088789800392949006959790020
:105A60009989A9003A2A4A006A5A7A003B2B4B00CE
:105A70006B5B7B004C3C5C007C6C8C005D4D6D0076
:105A80008D7D9D003E2E4E006E5E7E01443454019D
:105A90007464840155456501857595013626460176
:105AA000665676019686A6013727470177678701F4
:105AB00038284801887898013929490169597901BC
:105AC0009989A9013A2A4A016A5A7A013B2B4B016A
:105AD0006B5B7B014C3C5C017C6C8C015D4D6D0112
